:020000022000DC
:1070000000F003206D7302005573020057730200F5
:10701000597302005B7302005D7302000000000000
:107020000000000000000000000000005F7302008C
:1070300061730200000000006373020065730200C8
:1070400067730200677302006773020067730200D0
:107050006773020067730200CDE8030067730200E4
:1070600067730200677302007DBC03006773020050
:1070700067730200677302006773020067730200A0
:1070800067730200E970040005E402006773020000
:107090004D71040067730200C1F3030067730200BF
:1070A0006773020067730200677302006773020070
:1070B0006773020067730200000000000000000018
:1070C0006773020067730200677302006773020050
:1070D0006773020067730200677302006773020040
:1070E000677302006773020067730200000000000C
:1070F00000000000677302000000000067730200D8
:10710000000000000000000000000000000000007F
:10711000000000000000000000000000000000006F
:10712000000000000000000000000000000000005F
:10713000000000000000000000000000000000004F
:10714000000000000000000000000000000000003F
:10715000000000000000000000000000000000002F
:10716000000000000000000000000000000000001F
:10717000000000000000000000000000000000000F
:1071800000000000000000000000000000000000FF
:1071900000000000000000000000000000000000EF
:1071A00000000000000000000000000000000000DF
:1071B00000000000000000000000000000000000CF
:1071C00000000000000000000000000000000000BF
:1071D00000000000000000000000000000000000AF
:1071E000000000000000000000000000000000009F
:1071F000000000000000000000000000000000008F
:10720000344935480A1A02D0072291438D46334942
:1072100033480A1A06D00722914381F309880222D3
:1072200082F314882F483049304A00F042F8304841
:107230003049314A00F03DF830483149314A00F0D8
:1072400038F831483149324A00F033F83148324990
:10725000324A00F02EF832483249334A00F029F819
:1072600032483349334A00F024F833483349002286
:1072700000F02AF832483349002200F025F832485D
:107280003249091A082902DB0022026041601F48C6
:107290001F49884205D00268043003B4904703BCFC
:1072A000F7E700208646EC4600200021284A904758
:1072B000FEE7884207D0521A05D0037801300B70E0
:1072C0000131013AF9D17047884202D00270013091
:1072D000FAE7704700F0032000E8032000F00320E5
:1072E00000F003201CC90400002E0020AC30002058
:1072F000A0730200A0730200BA9B04001CC9040022
:10730000002E0020002E002030A0040030A0040039
:1073100030A0040030A0040030A0040030A004001D
:1073200030A0040030A004001CC90400C8CB040035
:10733000AC300020AC300020AC300020C172002006
:10734000C4720020C4720020C4720020C4760020E1
:10735000297B0200FEE7FEE7FEE7FEE7FEE7FEE729
:10736000FEE7FEE7FEE7FEE700F002B8FFF7FCBF2E
:1073700008484FF00701884385460748804707487B
:10738000016841F470010160BFF34F8FBFF36F8F4D
:10739000FFF736BF00F00320FDF7030088ED00E0A3
:1073A00041DF70470D4B1B6813F4804F03D00C4B2B
:1073B0001B68032B00DC704700B585B0094BD3F880
:1073C000043502920191084A00929F220749042045
:1073D00008F058F905B05DF804FB00BF403000200C
:1073E0003C30002000100140B4A00400AAA004001A
:1073F0000D4B1B6813F4804F03D00C4B1B68032B01
:1074000000DC704700B585B0094BD3F80435029213
:107410000191084A0092A8220749042008F032F995
:1074200005B05DF804FB00BF403000203C30002078
:1074300000100140DCA00400AAA0040010B50C4616
:107440000D2001F0B3FA207010BD000010B582B01D
:107450000C460D4B1B6813F4804F03D00B4B1B687D
:10746000032B05DC21460D2001F0CCFA02B010BD43
:10747000074BD3F804350191064A00928E22064943
:10748000042008F0FFF8EDE7403000203C300020F9
:107490000010014004A10400AAA0040000B583B0BC
:1074A0000F4B1B6813F4804F03D00E4B1B68032B4C
:1074B0000BDC1EF071FC0322C8210F2001F00EFB33
:1074C0000CF0B8F903B05DF804FB074BD3F80435B2
:1074D000064A0092CC220649042008F0D3F8E8E7D7
:1074E000403000203C300020001001401CA104006E
:1074F000AAA0040010B582B0441C374B1B6813F4DB
:10750000804F03D0354B1B68032B18DC012C22D095
:10751000042C42D0304B1B6813F4804F30D02F4BDB
:107520001B68032B2CDD2E4BD3F804352D4A00921B
:107530004FF485722C49042008F0A4F820E0284B71
:10754000D3F804350194294A0092E8222649042000
:1075500008F098F8DAE7204B1B6813F4804F03D04B
:107560001E4B1B68032B0DDC0D2001F01FFA80F071
:107570000101C9B20D2001F045FA1D4800F034FCAC
:1075800002B010BD164BD3F804351A4A0092F0220F
:107590001549042008F076F8E6E70CF0DDF8A0B90C
:1075A0000D4B1B6813F4804FEAD00C4B1B68032B68
:1075B000E6DD0B4BD3F804350F4A00924FF482728C
:1075C0000949042008F05EF8DAE70DF0C5FE0CF07A
:1075D000B7F8FFF763FFD3E7403000203C300020CE
:1075E000001001401CA30400AAA0040038A104005C
:1075F000102E00204CA104005CA1040000B583B053
:107600003138032814D90D4B1B6813F4804F11D067
:107610000B4B1B68032B0DDD0A4BD3F804350A4ACC
:1076200000924FF48C720949042008F02BF801E015
:10763000FFF760FF03B05DF804FB00BF403000209F
:107640003C300020001001401CA30400AAA004004C
:1076500008B50378232B00D008BDFFF71FFFFBE719
:1076600000B58DB01EF054FB2422002103A822F0A7
:107670003FFA01238DF80C3007238DF80F300623D5
:107680008DF81430244B0793244B0B93244903A803
:107690000CF066F8034618B3002B32D00B2B2FD119
:1076A0001EF07AFB1F4B1B6813F4804F03D01E4B58
:1076B0001B68032B18DC1B4B1B6813F4804F20D076
:1076C000194B1B68032B1CDD184BD3F80435184AE3
:1076D000009240F263121749042007F0D3FF10E034
:1076E0001EF036FB0346D7E7104BD3F80435124A99
:1076F00000924FF4B1720F49042007F0C3FFDAE79C
:1077000013B90DB05DF804FB0C4A4FF4B471184680
:1077100018F070F9F5E700BF517602001179020008
:10772000AC300020403000203C30002000100140F0
:10773000E4A10400AAA0040094A104004CA0040049
:1077400000B583B01D4A05214FF4103007F07EFFCD
:107750001B4B1B6813F4804F03D01A4B1B68032B81
:1077600013DC1FF0F7FCE0B901F0FAF9164801F05C
:107770002BFAE0B901F05CFD01F098FD01F0C6FDC7
:10778000FFF76EFF03B05DF804FB104BD3F8043530
:107790000F4A009240F26F120E49042007F072FF68
:1077A000DFE70D4A40F2711118F024F9DCE70A4ACC
:1077B00040F2751118F01EF9DCE700BF21F6020057
:1077C000403000203C300020F574020000100140E1
:1077D00020A20400AAA004004CA0040000B583B0BD
:1077E00000213F4800F036FB002835D13D4B1B6897
:1077F00013F4804F03D03C4B1B68032B31DC00217A
:107800003A4800F0A7FB002839D1364B1B6813F427
:10781000804F03D0344B1B68032B35DC00213448E8
:1078200000F08EFE00283DD13249314800F0B6FE0E
:1078300000283CD12E492A4800F064FB00283BD1A7
:10784000284B1B6813F4804F03D0274B1B68032B76
:1078500037DC03B05DF804FB274AB02118F0CAF802
:10786000C4E7264BD3F804351D4A12880192244AF6
:107870000092B1222349042007F004FFBFE71E4A0B
:10788000B52118F0B7F8C0E71C4BD3F80435174AF8
:10789000128801921C4A0092B6221A49042007F06D
:1078A000F1FEBBE7144AB92118F0A4F8BCE7124A6C
:1078B000BA2118F09FF8BDE70F4ABB2118F09AF8DB
:1078C000BEE70E4BD3F80435094A128801920F4ADD
:1078D0000092BC220B49042007F0D4FEB9E700BF98
:1078E000102E0020403000203C300020B03000201E
:1078F000082F0020FC2E00204CA0040000100140A6
:1079000050A20400AAA004006CA2040088A20400F3
:1079100000B583B00C4B1B6813F4804F03D00B4BA6
:107920001B68032B04DCFFF759FF03B05DF804FB71
:10793000074BD3F80435074A009240F24312064938
:10794000042007F09FFEEEE7403000203C3000208E
:1079500000100140A4A20400AAA0040010B504462F
:1079600000210F2001F0A4F804EB8404620032210E
:10797000032001F0B3F810BD08B503781D2B00D02B
:1079800008BD044800F0A4FA0028F9D018F024F843
:10799000F6E700BF102E002008B501F0D3F808BDAF
:1079A00000B585B003A812F0FFF80D4B1B6813F467
:1079B000804F03D00B4B1B68032B02DC05B05DF836
:1079C00004FB094BD3F80435BDF80C200192074A9B
:1079D000009240F22D120649042007F053FEEDE715
:1079E000403000203C30002000100140C4A20400C0
:1079F000AAA0040010B58AB06421264800F07AFFDE
:107A0000254B1B789BB90DF10C0C244C0FCCACE82A
:107A10000F0094E807008CE8070003A800F000FFBF
:107A200038B11F4A40F2931117F0E4FF01E0FFF76D
:107A3000B7FF01F091FD01F0FFF81A4805F02EFAAA
:107A40000BF0E8FE98B9184B1B6813F4804F03D075
:107A5000164B1B68032B10DC00210C2001F028F8CA
:107A60000222C8210C2001F039F80AB010BD0C4ADE
:107A700040F29F1117F0BEFFE5E70D4BD3F8043538
:107A80000C4A009240F2A1120B49042007F0FAFDC3
:107A9000E2E700BFFD750200AC300020F8A2040050
:107AA0004CA00400002E0020403000203C3000207C
:107AB000001001401CA30400AAA0040000B583B07C
:107AC000144B1B6813F4804F03D0134B1B68032B1C
:107AD00013DC01F0EBFB01F019FCFFF761FF01F093
:107AE00031F800210F2000F0E3FF0422C8210F200D
:107AF00000F0F4FF03B05DF804FB084BD3F8043545
:107B0000074A00924FF499720649042007F0BAFD23
:107B1000DFE700BF403000203C3000200010014073
:107B2000DCA20400AAA0040008B5FFF709FEFFF7D5
:107B300061FFFFF735FCFCE730B583B00446002356
:107B400080F86C302D23836631B14A68C0F88020FC
:107B50000B68036603B030BD00250195D0F8F03006
:107B6000186B83685B6801AA29469847019B2366C6
:107B7000C4F88050EEE708B5836B13B190F8481055
:107B8000984708BD08B59C3801F010FA08BD000000
:107B90002DE9F04184B004460F4615461E46A0F17B
:107BA000EC0850F8B03C0DF10F0140469847A4F1A5
:107BB000A20214F8BC1C38461DF0ECFF50B9019627
:107BC000029514F8A22C9DF80F309A4208D104B007
:107BD000BDE8F081084A40F20F1117F00BFFEEE705
:107BE0009C3C204601F0E2F901A94046FFF7A4FFC2
:107BF000204601F0CDF9EAE760A4040008B5034689
:107C0000084613F8A42C13F8BC1C1DF0ABFF00B9F8
:107C100008BD034A4FF4817117F0ECFEF8E700BF8E
:107C200060A4040030B583B004461546124B1B68AF
:107C300013F4804F03D0114B1B68032B11DCE36B53
:107C400004F148012046984794F848302B7094F886
:107C50004A306B7004F1500001F0B6F9686003B06F
:107C600030BD074BD3F80435064A009287220649F7
:107C7000042007F007FDE2E7403000203C30002000
:107C800000100140C0A40400B1A40400F0B585B008
:107C9000044615461F460A9E224B1B6813F4804F6C
:107CA00003D0214B1B68032B1CDCE36B0DF10F0190
:107CB00020469847297884F84A1094F830001DF03F
:107CC00029FFE0B92A789DF80F309A421CD100258F
:107CD00036B194F84830337094F84A307370756058
:107CE00005B0F0BD114BD3F8043512780192104A5B
:107CF00000929A220F49042007F0C4FCD5E70E4AEF
:107D0000A22117F077FEDDE739462046FFF714FF82
:107D1000256E04F1500001F03BF9D4F8F00000F0BA
:107D200051FCD5E7403000203C30002000100140DD
:107D3000CCA40400B1A4040060A4040030B583B056
:107D40000446A0F1500510F8082C10F8063C9A42A1
:107D500018D114F8083C8DF8003014F8063C8DF862
:107D60000130002301936946A4F150001DF020FE6C
:107D700054F8103C23B114F8062C216A2846984781
:107D800003B030BD00F8083C2846FFF7F4FEE0E7FA
:107D900030B583B00446A0F1500510F8073C13B984
:107DA00010F8063C4BB954F8103C23B114F8062CDB
:107DB000216A2846984703B030BD00F8083C2846A1
:107DC000FFF7D9FE00230093019314F8083C8DF8C7
:107DD000003014F8063C8DF80130236A019369469F
:107DE00028461DF0E5FDDEE730B583B0044650308F
:107DF00001F0DCF894F84850E36B04F148012046A8
:107E0000984794F8483084F84A308DF800308DF85F
:107E1000013000230193694620461DF0C9FD94F806
:107E2000481094F830001DF075FE28B994F84830D9
:107E3000AB4207D103B030BD054A40F2371117F00D
:107E4000D9FDF3E7D4F8F00000F0BCFBF2E700BF87
:107E500060A4040070B310B50446194BC362C36B31
:107E60005BB3836B33B120461DF070FD034630B128
:107E7000184610BD036C002BF5D10E23F8E704F172
:107E800030001DF09BFE03460028F1D10D4BC4F8D5
:107E9000EC30002323650C4A6265A3650B4BE36558
:107EA00004F15000C4F8D8000123636601F0B0F873
:107EB0000346DDE70E23184670470E23D8E700BFC0
:107EC000DCA40400E4A40400917D02003D7D0200D6
:107ED00010B582B004460DF1070190F830001DF096
:107EE0002FFE30B99DF8071020461DF06DFD02B041
:107EF00010BD034A40F2731117F07CFDF2E700BF9A
:107F000060A4040020B129B1C0F8F010002070472F
:107F10000E2070470E20704708B51146007B1EF0FA
:107F200017FA00B908BD024A4B2117F063FDF9E7C3
:107F3000F0A4040008B511681960007B1EF0F4F984
:107F400000B908BD024A562117F054FDF9E700BFF9
:107F5000F0A4040060B110B50446064B83601EF027
:107F60002DF900B110BD04F10C001EF003FAF9E781
:107F70000E2070474CA504005038704710B586B0ED
:107F8000FFF7FAFF0446154B1B6813F4804F03D02C
:107F9000134B1B68042B0BDC0023A4F84830236C24
:107FA00023B1B4F84A20216F2046984706B010BD8F
:107FB0000C4BD3F8043590F83420B0F84A10006F19
:107FC0000490606F039002910192074A00924FF46F
:107FD000C6720649052007F055FBDDE7403000205A
:107FE0003C30002000100140B4A50400A5A5040009
:107FF00000B583B0FFF7C0FF0D4B1B6813F4804F33
:1080000003D00C4B1B68042B02DC03B05DF804FBAF
:10801000094BD3F8043590F834200192074A0092B6
:1080200040F283120649052007F02CFBEDE700BF64
:10803000403000203C30002000100140F8A5040032
:10804000A5A5040000B585B08DF80410B0F848303F
:10805000ADF80630B0F84A30ADF80830039201A907
:1080600004301EF0BBFB05B05DF804FB10B584B016
:10807000FFF782FF0446B0F84A20A0F8482000230A
:10808000A0F84A30134B1B6813F4804F03D0124BF7
:108090001B68042B0DDC236C23B1B4F84A20216F3C
:1080A00020469847226F00212046FFF7CBFF04B0FF
:1080B00010BD0A4BD3F8043590F8341002920191A8
:1080C000074A00924FF4D2720649052007F0DAFA07
:1080D000E1E700BF403000203C30002000100140AC
:1080E00014A60400A5A5040070B138B50C460546D9
:1080F0003C301EF019FD00B138BD044BAB63214686
:1081000028461EF079FBF7E70E20704780A7040091
:1081100038B5044680F86C20012343662D2383661E
:108120000D4629B16B68C4F880302B68236638BDD2
:10813000784601F0D1F9F5E72DE9F0418AB015460E
:108140001F46109E0446E0B1DAB1B4F848202988F1
:108150008A421AD1002246B13270B4F84830738096
:10816000B4F84A30B380236EB360424B1B6813F4FB
:10817000804F03D0404B1B68032B67DC0AB0BDE87F
:10818000F081784601F0A8F9DFE70DF11B0294F8C1
:108190003C001EF08DFC8046002855D1002308933A
:1081A0000993D7B1002239462046FFF7B1FF2B884B
:1081B000A4F84A30D4F8EC30434520D82D4B1B6846
:1081C00013F4804F03D02C4B1B68042B26DC04F1E6
:1081D000500000F0DDFE0022BDE7236B9B685B686A
:1081E0004BB1206B83685B6807AA00219847079B07
:1081F000089308AFD6E7784601F06EF9F1E708F189
:108200003A0354F8230003685F68236ED4F8802093
:108210009DF81B10B84708F10108CBE7174BD3F8BE
:1082200004352A88216E0491D4F8801003919DF8BA
:108230001B1002910192124A009240F22B12114936
:10824000052007F01FFAC2E7022284E70B4BD3F8A0
:108250000435B4F84810B4F84A0003900291019232
:10826000094A00924FF49F720649042007F00AFA67
:1082700084E700BF403000203C3000200010014067
:108280004CA60400A5A5040084A6040070B506460B
:108290000D46002401E0023501340F2C0CD82A468B
:1082A000E1B296F83C001EF00BFC0028F3D0034A24
:1082B000622117F09FFBEEE770BD00BF54A50400DC
:1082C00030B583B014460546A0B19AB1002323709F
:1082D000B5F848306380211D2846FFF7D7FF0E4BC5
:1082E0001B6813F4804F03D00C4B1B68032B05DC79
:1082F00003B030BD784601F0EFF8E7E7084BD3F85C
:10830000043562880192074A0092F8220649042047
:1083100007F0B8F9ECE700BF403000203C30002007
:1083200000100140B8A60400A5A5040030B587B030
:1083300014460546E0B1DAB100232370B5F84830A1
:108340006380B5F84A30A38095F87C30022B13D1B6
:108350002B6F0BB14FF0FF33A360144B1B6813F46A
:10836000804F03D0124B1B68032B0BDC07B030BDD2
:10837000784601F0B1F8DFE705F1500000F024FE87
:10838000A060EAE70B4BD3F804356288A188686FD8
:108390000490A068039002910192074A0092E222A1
:1083A0000649042007F06EF9E0E700BF40300020E6
:1083B0003C30002000100140DCA60400A5A504000C
:1083C000F0B587B016461D460446E0B1DAB10DF1AE
:1083D0001702318894F83C001EF08CFB074620BB46
:1083E000B4F8482033889A4203D0B4F84A20934224
:1083F00017D104F1500000F0D9FD0023A4F84A3051
:10840000A4F848300DE0784601F066F8DFE707F1A0
:108410003A0354F8230003689B689DF817109847A7
:108420000137D4F8EC30BB42F1D845B100232B70B2
:10843000B4F848306B80291D2046FFF727FF0E4B0C
:108440001B6813F4804F03D00C4B1B68032B01DC1B
:1084500007B0F0BD0A4BD3F80435B4F84A20B4F89D
:10846000481002910192074A0092C3220649042053
:1084700007F008F9ECE700BF403000203C30002056
:108480000010014024A70400A5A50400F0B587B0A2
:1084900015461C46074628B322B30DF1170229885A
:1084A00097F83C001EF0E0FA064650BB2B88A7F870
:1084B0004830D7F8EC30B34218D800253CB12570CD
:1084C000B7F848306380211D3846FFF7DFFE174BB1
:1084D0001B6813F4804F03D0154B1B68032B12DC71
:1084E00007B0F0BD784600F0F7FFD6E706F13A0393
:1084F00057F8230003681B689DF81710984701364A
:10850000D7E70125DAE70B4BD3F80435B7F84A2053
:10851000B7F84810039102920195074A00929822F9
:108520000649042007F0AEF8DAE700BF403000202B
:108530003C300020001001404CA70400A5A5040019
:1085400000B310B50446036CFBB1FFF7CDFD034645
:1085500008B1184610BD0023A4F848300C4A226523
:108560000C4A6265A3650C4BE36504F15000C4F846
:10857000D80000F04DFD03460028EAD10022C4F8DF
:10858000EC20E6E70E23184670470E23E1E700BF14
:10859000F17F02007D7F02006D800200034658B12A
:1085A00061B1D0F8EC0058B900F13A0243F822105A
:1085B000421CC3F8EC2070470E2070470E20704715
:1085C000042070470023A0F84830704769DF7047E7
:1085D00003781F2B00D07047014B01221A70FAE775
:1085E0000B3100203F4B1B78002B79D000B587B0B2
:1085F000012804D003286CD007B05DF804FB0023E9
:10860000019301A9012016F07BFD00284BD1002326
:108610000393049305939DF80C20012363F3030255
:108620008DF80C20D2B263F307128DF80C209DF860
:108630000D2063F301028DF80D201023ADF81630E4
:10864000019A03A94120FFF7C1FF78BB01A816F0EA
:10865000B1FD70BB244B1B6803B198470123029303
:1086600002A90DF1020012F081F828BBBDF802004A
:1086700011F08AFC0DF1010111F02CFEF8B90CF09B
:10868000B5FB9DF8011000200CF0B0FED0B904F04D
:1086900097FBD8B9134B00221A70134B5B68002B61
:1086A000AAD09847A8E717F097F9B0E717F094F920
:1086B000CCE717F091F9CDE717F08EF9D6E717F070
:1086C0008BF9DCE7784600F007FFE0E717F084F964
:1086D000E0E716F0E9FD00288ED017F07DF98BE772
:1086E000704700BF0A3100200C31002008B5064B4E
:1086F00001221A70054804F0D1FB04F0B3FB00B965
:1087000008BD17F069F9FBE70A310020F82F0020B7
:1087100008B503781C2B00D008BD074B1B78002B35
:10872000FAD016F005FE18B9044804F0BBFBF3E7D5
:1087300017F052F9F8E700BF0A310020F82F0020A7
:1087400008B5094B1B7863B90849094817F00CFEB6
:1087500040B90323002207494969074817F020FE62
:1087600000E0082008BD00BF0B31002028310020A8
:10877000943400200C3100206033002008B50378C9
:10878000023B082B3FD8DFE803F01C05113E3E2CCE
:108790003E3E36001E4B9B68002B34D0007A0028EA
:1087A00031D01C4A0121117098472CE0184BDB682E
:1087B0004BB3184A127832B3164A00211170984709
:1087C00021E0154B1B784BB9114B1B691BB1114AAA
:1087D000002111709847FFF7B3FF14E0FFF786FF01
:1087E00011E010220A4B99690C4817F062FE50B153
:1087F00017F0F2F807E08168C0680AF031FF18B995
:10880000054B01221A7008BD17F0E6F8F8E700BF23
:108810000C31002008310020093100206033002095
:1088200010B586B08446224A03AB07CA03C323F8B7
:10883000022B120C1A701F4CA646BCE80F00AEE8C3
:108840000F009CE807008EE80700A369002B2DD0DD
:10885000194B009303AB194A19491A4817F042FD06
:10886000034610B1184606B010BD174819F0F6FAC5
:108870000146144817F062FD03460028F2D1134860
:1088800019F06CFC03460028ECD1104819F09EFC4E
:1088900001460C4817F052FD03460028E2D10C486F
:1088A00004F0FCFAFFF74CFF0346DBE70723D9E7A8
:1088B00094A704000C3100207D870200283100209D
:1088C0009434002060330020483100201033002011
:1088D0000430002008B5064B1B681BB906E0044BAA
:1088E0001B68984714F048FB0028F8DA08BD00BF61
:1088F000D434002010B50C46134B1860134A0121E4
:1089000013481EF061FC98B9610CE00341F27073EA
:10891000984271F1000310D34FF47A72002320F0D3
:108920007FFF014600220B481EF064FC38B910BDE1
:10893000094A4A2117F05EF8E6E70521F2E7064A00
:108940004B2117F057F8F2E7D4340020D588020005
:1089500000A80400D8340020A0A7040070B5054684
:10896000002403E00D4A93420ED80134032C14D89E
:108970000B4B1B5DAB42F8D10A4B1E6804F0E0FDC7
:10898000331AEFD5831BEDE704F0DAFD054B1860D1
:10899000054B1B6820469847E7E770BD801A060024
:1089A0000CA8040024350020203500201F280CD9F5
:1089B00000F01F00064BD3F8043523FA00F010F046
:1089C000010F0CBF0120002070474FF0A043F2E7D9
:1089D0000003005070B505460024264600E001342F
:1089E000032C0AD80123A3402B42F8D0044B185D76
:1089F000FFF7DCFFA0400643F1E7304670BD00BF43
:108A000010A8040008B511B115F06AFE08BD15F0F4
:108A100057FEFBE770B50546002400E00134032C47
:108A20000FD80123A3402B42F8D0064B1E5D3046E1
:108A3000FFF7BCFF80F00101C9B23046FFF7E2FF4B
:108A4000ECE770BD10A8040010B5144B1B684BB1C7
:108A5000134B1868FFF7DEFF104B1C68013C1C60CD
:108A600024B110BD002016F0B7FFF1E70D481EF04D
:108A7000E3FB00E00134032CF3D80123A340084AB0
:108A800012681342F6D0084B1968E14001F0010169
:108A9000064B185DFFF7B6FFECE700BFF834002087
:108AA000FC340020003500202835002010A80400E8
:108AB00070B505460E46002400E00134032C09D8A9
:108AC0000123A3402B42F8D03146034B185DFFF73A
:108AD00099FFF2E770BD00BF10A8040042B310B5C3
:108AE0000C461346132900D810BD124A10605B00D3
:108AF000013B114A1360FFF76DFF104B1860610CCA
:108B0000E40314F5FA704FF47A724FF0000341F168
:108B1000000120F085FE0146002209481EF06AFB94
:108B20000028E1D10121034B1868FFF7C1FFDBE703
:108B3000704700BFFC340020F834002028350020A6
:108B40000035002008B504481EF076FB0021034BD9
:108B50001868FFF7ADFF08BD00350020FC34002089
:108B600010B582B015F028FD40B10024ADF80440E6
:108B70008DF8064001238DF8053007E015F0CCFC98
:108B80000028F2D016F028FFEFE70134032C09D8B3
:108B900001A90A4B185D15F019FD0028F5D016F053
:108BA0001BFFF2E7064A012106481EF00DFB08B93B
:108BB00002B010BD16F010FFFAE700BF10A80400C5
:108BC000498A020008A8040060B310B582B0164AB2
:108BD000106015F0F1FC40B1144B1B68ADF8043087
:108BE0001B0C8DF8063000240CE015F095FC0028D5
:108BF000F2D016F0F1FEEFE701210D4B185D15F0F4
:108C0000F9FD0134032C0AD80A4A01A9084B185D62
:108C100015F076FD0028EFD016F0DEFEECE7002020
:108C200002B010BD0E2070472035002004A80400BB
:108C30000CA804005D890200002800F082802DE964
:108C4000F04FD1B004463F4B1B6813F4804F03D064
:108C50003D4B1B68032B31DC3A4B1B6813F4804FF0
:108C600003D0394B1B68032B2ADC51B0BDE8F08FD1
:108C7000E25C36490D68100959002E5C0FA800F817
:108C8000136002F00F020131AA5C425401330F2B32
:108C9000EED90FAA00238DF85C3003F1804303F571
:108CA0008833D3F804350292294A0192294A009266
:108CB00042222949042006F0E5FCCDE70023E6E73F
:108CC000264BD3F804350D932068020202F47F028C
:108CD00042EA0062010A01F47F4142EA0108B4F865
:108CE00004C04FEA0C2292B2B4F806E04FEA0E211B
:108CF00089B2257A667AA77AE37A94F80C9094F888
:108D00000DA094F80EB0E47B0B94CDF828B0CDF80C
:108D100024A0CDF82090079306970596049541EA84
:108D20001E21039142EA1C22029248EA106001903F
:108D30000B4A00920D9B43220749042006F0A2FC37
:108D400093E77047403000203C3000204430002042
:108D500078A804008CA8040065A804000010014055
:108D600094A8040008B5034B53F8203008469847F0
:108D700008BD00BFD4A8040008B5034B53F8203049
:108D80000846984708BD00BFECA8040008B58368F2
:108D900003B1984708BD006B003818BF0120704729
:108DA0000369013B13F1030F03D843691BB900208A
:108DB0007047002070470120704708B50246012126
:108DC0008C3009F08AFD08BD08B50A4600230B6304
:108DD000022102F18C0009F080FD08BD90F82C30D2
:108DE000022B01D10020704710B5044638301DF029
:108DF000F8F84FEA411C4CEAD06C4201121A6CEBB5
:108E0000010C4FEA8C0C4CEA927C93001B1841EB4E
:108E10000C01C90041EA5371C3F3103343EA4143E3
:108E2000C90B226A934271F1000301D3012010BDE6
:108E30000020FCE710B50446002303630362703092
:108E400004F032FB04F138001DF007F910BD10B535
:108E5000044638301DF001F900232362E3680BB1AA
:108E60002046984710BD08B5844600F1200E00F159
:108E700010030FCB8EE80F006046FFF7E8FF08BD38
:108E800008B5FFF7E4FF08BD70B5044600F13805EA
:108E900028461DF0E2F804F1200604F110030FCB80
:108EA00086E80F00636A83EAE376A6EBE376002B9D
:108EB00043D0226AD30E5101891A63F100039B004B
:108EC00043EA91738900891843F100034FEAC30C08
:108ED00032460023C8004CEA517120F0A1FCA66A7A
:108EE000F20E73019B1B62F10002920042EA937240
:108EF0009B009B1942F10002D20042EA5372DB0050
:108F00001E469446984271EB020301D306468C46F6
:108F1000B6F57A7F7CF1000313D221220023C4E945
:108F20001023012384F8383028461DF06DF818B955
:108F300063680BB12046984770BD784600F0CCFAC4
:108F4000B7E74FEACC3141EA5641F60305483018FD
:108F5000054A4FF0000341F1000120F061FCC4E933
:108F60001001DEE720A1070040420F0010B50446C3
:108F700004F0E6FA236B4FF47A7101FB030104F16C
:108F8000700004F0A9FA23680BB12046984710BD81
:108F900010B5044630B12246002104F18C0009F0DE
:108FA0009CFC10BD784600F097FAF4E710B5044633
:108FB00030B12246032104F18C0009F08EFC10BD73
:108FC000784600F089FAF4E738B50546D8B12C6A3E
:108FD00005F138001DF005F84A0142EAD06243016C
:108FE0001B1A62EB0102920042EA93729B0018186E
:108FF00041EB0201C90041EA5071C0F3103040EA70
:109000004140201A38BD784600F066FADFE70000DC
:1090100038B5044690B1C4F880400A4BA367A464F5
:10902000094BE36404F138001DF02EF805460749AA
:1090300004F18C0009F03BFC284638BD784600F06E
:109040004BFAE8E7C98D0200BB8D020024A9040099
:1090500072DF704773DF704774DF70472DE9F047A8
:10906000A2B0074688469146324C002525606560CF
:10907000A560E56030490B78C3EB43102F4E0644E2
:1090800026602F4A0244A2601F22A280A2810133DF
:1090900003F001030B704FF03C0A5246294613A817
:1090A00020F026FD06238DF84F30ADF848700123DF
:1090B0008DF84A30ADF85C3012AA1892ADF83C70C9
:1090C000ADF84090CDF844800DEB0A021D928DF86A
:1090D000783052462946684620F00AFD02238DF872
:1090E0000030221D314613A815F0FCFE90B9114B3B
:1090F00003F10C029968684615F0F4FE68B9114A4C
:109100000C491148FFF7A4FF082809D070B922B014
:10911000BDE8F08716F060FCE9E716F05DFCEEE7CD
:10912000002204490848FFF793FFEFE716F054FCCC
:10913000EDE700BF703500202C35002030350020D1
:10914000803500201430002010300020B0F5202F92
:109150000AD2074BA3FB0023DB0808B103B90123A4
:10916000044A9381916070474FF6FF73F5E700BFA3
:10917000CDCCCCCC1430002008B50121054B18789B
:10918000FFF768FF18B9002004F02CFE08BD16F0A8
:1091900023FCF8E71030002008B5044B1878FFF7DF
:1091A0005BFF00B908BD16F017FCFBE7103000208C
:1091B00076DF70477ADF70477CDF704769DF704782
:1091C00008B516F009FC08BD08B503F06FFE08BD30
:1091D00000B583B0037823B1012B0BD003B05DF849
:1091E00004FB3B214088FFF7E3FF0028F6D016F090
:1091F000F3FBF3E7094B1B6813F4804FEED0084BE9
:109200001B68032BEADD074BD3F80435064A0092AE
:1092100068220649042006F035FADFE740300020D6
:109220003C30002000100140A0A9040085A90400E2
:1092300000B585B016F038F860BB0023039303A98E
:10924000012015F05DFF40BB0023009301930293C2
:109250009DF80020012363F303028DF80020D2B2B1
:1092600063F307128DF800209DF8012063F30102DB
:109270008DF801201023ADF80A30039A6946412089
:10928000FFF79CFF60B903A815F094FF58B905B02B
:109290005DF804FB16F0A0FBCFE716F09DFBD3E7CB
:1092A00016F09AFBEFE716F097FBF0E700B585B0F4
:1092B0009DF80C30012262F303038DF80C30DBB211
:1092C00062F307138DF80C3010220F4903A8FFF743
:1092D00073FF98B90023019302937823ADF804300B
:1092E000C823ADF806304FF4C873ADF80A3001A8B2
:1092F000FFF760FF28B905B05DF804FB16F06CFBC2
:10930000E8E716F069FBF6E7CCA9040000B58BB0DE
:1093100001AA0023019302937821ADF80410C8211B
:10932000ADF806104FF4C871ADF80A10039304931A
:1093300005930693079308930993039240F6CD4350
:1093400004934FF48033059303238DF81830074BB3
:109350000893074B099303A816F092F910B90BB0C4
:109360005DF804FB16F038FBF9E700BFD19102006D
:10937000C19102000620704700B587B044F2010396
:1093800098425DD01BD8012836D041F201039842A3
:1093900071D1474B1B6813F4804F36D0454B1B6887
:1093A000002B32DD444BD3F8043502920191434A3D
:1093B000009263224249012006F064F925E044F25C
:1093C0000203984257D13A4B1B6813F4804F1CD0CC
:1093D000384B1B68002B18DD374BD3F80435106869
:1093E0000390526802920191364A009269223449F0
:1093F000012006F047F908E02D4B1B6813F4804F5D
:1094000003D02C4B1B68002B0DDC4FF0A0434FF416
:10941000F032C3F81825C3F80C25EFF3108372B6A9
:109420004DF6AD6C3DE0244BD3F80435029201912A
:10943000254A009260222249012006F023F9E4E740
:109440001B4B1B6813F4804FDFD01A4B1B68002B9B
:10945000DBDD194BD3F80435106804905068039095
:10946000029192680192194A0092732214490120D4
:1094700006F008F9C9E70E4B1B6813F4804FC4D0FF
:109480000C4B1B68002BC0DD0B4BD3F8043501914E
:109490000F4A00927B220A49012006F0F3F8B4E754
:1094A00030BF0C4B1B78002BFAD107B05DF804FBE2
:1094B000403000203C3000200010014060AA040031
:1094C00031AA040084AA040044AA0400A4AA040047
:1094D000C8AA04002C30002000B583B00146002348
:1094E0000093054B01936A4644F20200FFF744FFE4
:1094F00003B05DF804FB00BFC4AA040010B4034627
:10950000044C006859689A68DB680FC45DF8044B26
:10951000704700BFC03500200E4B4FF0805202F163
:10952000600103C983E8030003F1080CA43292E848
:1095300003008CE8030093F9062002F00F0242F0CA
:1095400040029A7193F9082002F03F0242F0800233
:109550001A727047C035002000487047C03500209F
:10956000002308E0074901EBC3000022428042606B
:1095700001F8332001331F2BF4D9034B00221A606A
:10958000704700BFD0350020D036002000B5864699
:10959000114B1B684FF0000C0BE01F230F4A12F811
:1095A0003300B0B102EBC3025288724509D00CF10E
:1095B000010CBCF11F0F0BD85A1E002BEDD0134627
:1095C000ECE7064A02EBC30252688A42EFD100E0A0
:1095D00000205DF804FB00BFD0360020D03500200D
:1095E00010B40B4A13680B4C04EBC30CACF802002C
:1095F000CCF80410012104F833100B441360202B25
:1096000002D05DF8044B7047134600221A60F8E759
:10961000D0360020D03500200021072918D830B4DA
:1096200002E00131072910D84FEA011C094C34F837
:109630000CC08445F5D104EB0114A568E4689C4294
:1096400008BF9542EDD1012000E0002030BC7047FA
:1096500000207047D836002030B4C3698469C188BF
:109660004FEA132C1B06C4F30C028A4218D28A1A42
:109670002244A2F500529A184CF100010A4C2368CA
:109680005D1C256003F00703B0F814C007481C01F7
:1096900000EB031320F804C09A60D96030BC704717
:1096A0008A1A2244E7E700BF58370020D836002046
:1096B000C37D9BB1C3780A7802F080020A7003F080
:1096C0007F0313430B7002780B7803F07F030B705A
:1096D00043EAC2130B7003789BB97047C3780A78CA
:1096E00002F0BF020A709B0103F0400313430B70AA
:1096F000027903F0C0030B7002F03F0213430B70BA
:10970000E1E700B58378082B14BF002201224B78D3
:1097100003F07F034B7043EAC2134B70B0F806E0CE
:10972000DAB202F080024A70CEF3861C4CEA0202E2
:109730004A708B7803F003038B7043EA8E038B70BF
:1097400090F808E0DAB202F0FC028A70CEF3C10CA5
:109750004CEA02028A70CB7803F01F03CB7043EA15
:109760004E13CB70437ACA7802F0E002CA7003F05D
:109770001F031343CB705DF804FB00000023032B91
:1097800031D810B402E00133032B28D8C3EBC30255
:10979000164C04EB021292F84820012AF3D1C3EBD5
:1097A000C30204EB0212948AC2899442EBD1C3EB48
:1097B000C3020E4C04EB0212D2888A42E3D1C3EBFF
:1097C000C30204EB0212B2F8582012B1848AA242FA
:1097D000D9D1C3EBC303054800EB031000E0002020
:1097E0005DF8044B70470020704700BF8C370020A5
:1097F000002300E00133032B16D8C3EBC3020B494F
:1098000001EB021292F84820022AF3D1C3EBC30203
:1098100001EB0212918A828A9142EBD1C3EBC3031E
:10982000024800EB03107047002070478C3700207F
:1098300008B90420704708207047000000210E4B33
:109840001B688B4216D9002300E001330B4A02EB60
:10985000C10252689A420BD9084A52F8312002EBF1
:10986000C30C12F833208242EFD1DCF804007047B9
:109870000131E4E7002070475C37002060370020AA
:1098800070B58CB006460D4614462C22002101A866
:1098900020F02EF90F238DF80430ADF808609DF804
:1098A0000A3065F300038DF80A308DF80B4001A8EB
:1098B00001F0BCFA0CB070BD30B58DB005460C4659
:1098C0002C22002101A820F013F910238DF8043078
:1098D00002958DF80C4001A801F0A8FA0DB030BD3A
:1098E00000B58DB010B913F1020F06D1074B1868FF
:1098F00004F0B8FC0DB05DF804FB01218DF80410F4
:109900000293039201A801F091FAEFE7703700206B
:1099100070B5049C002962D01D468E46D2F800C066
:1099200051689668D368C4F80CC021616661A36170
:10993000D2F810C05169C4F81CC0216200236370C2
:109940000278D20922705AB30423734549D8E17DC5
:1099500041B3037803F07F03E3700023A3709AB14F
:1099600043789B0103F4FE53827843EA9203E38039
:109970008378DB0003F01803C27843EA52132372A2
:10998000C37803F01F036372002363622B78032BF9
:1099900021D82A78144B53F82230E362002070BD9E
:1099A0000123D2E70178C1F38011E170017801F061
:1099B0003F01217142B190F90130002B02DB0423F9
:1099C000A370CCE70823FBE70421A1700B44734587
:1099D000C5D90920E3E77846FFF77EFDD9E70920DE
:1099E000DDE70920DBE700BF84AC040070B50C465E
:1099F0001D4603789BB104263244A26000F10C039B
:109A00002360836A6360C36AE36000232374204693
:109A100004F0A6FF10B963691E442E6070BD0126D4
:109A2000EAE72DE9F0418EB00D4616461C46804609
:109A300000282DD0002D2FD0002C31D0636A0233A6
:109A4000059304F10C00E378002B2DD00121A278BE
:109A500001AF3B46082A14BF0022012204F04FFD4B
:109A60000697CDF81C80B2B2ADF820200B951544B6
:109A70000C95A3788DF83430237B022B16D000236D
:109A8000ADF8283005A804F032FD0EB0BDE8F08135
:109A90007846FFF721FDCDE77846FFF71DFDCBE7C0
:109AA0007846FFF719FDC9E70221D0E723692BB1FA
:109AB000236909931023ADF82830E3E77846FFF7D0
:109AC0000BFDF5E72DE9F04188B004460D46C37D56
:109AD000002B3CD0082605FB06F8637AAB4238D051
:109AE000257201AB324602A92046FFF77FFF0746E9
:109AF00048BB4DB994F8533033B9A369C3F30C0391
:109B0000E380012384F85330E37D7BB994F852302D
:109B100063B91DBBE06EB4F84A10A27823468A1AD6
:109B20000146FFF77EFF012384F852300799204653
:109B3000FFF7BEFDE16E3246414401981FF0AFFFD2
:109B400002A804F033FF384608B0BDE8F0810C26C7
:109B5000C1E7B4F84A60A6EB0806C1E77846FFF70C
:109B6000BBFCD7E770B505460E4609B100230B6074
:109B700095F85040002104E0631C85F85030013412
:109B8000E4B26B7AA34210D3EA6C0123A3401A42D9
:109B9000F5D121462846FFF795FF014628B9002E4A
:109BA000EAD0336801333360E6E7084670BDF0B5AC
:109BB00089B004460E46154683789A18C37D63B172
:109BC0000B239A4221D801AB02A92046FFF70EFFD2
:109BD000074620B1384609B0F0BD0F23F1E70799D9
:109BE0002046FFF765FDE37D43B12A4631460198E3
:109BF0001FF055FF02A804F0D9FEEBE723462A46E2
:109C000001993046FFF70DFFF4E70927E2E700006E
:109C100010B5044690F84830012B0CD103F090FCAD
:109C2000237B012B0BD0094BD968014404F1300090
:109C300003F052FC10BD7846FFF74EFCEEE7A27D24
:109C4000024BD9681B6903FB0211EEE77437002051
:109C500030B583B0002403E02846FFF7D9FF013474
:109C6000032C18D8C4EBC4030C4A02EB031393F87B
:109C70004830012BF3D100230193C4EBC40502EB60
:109C8000051501A92846FFF76DFF0428E4D0019BC4
:109C9000002BE4D0E0E703B030BD00BF8C370020DC
:109CA00038B5044690F84830022B09D1064B1D68A0
:109CB00003F046FC411904F1300003F00DFC38BDFF
:109CC0007846FFF709FCF1E77437002038B5044601
:109CD00090F84830022B10D10A4B5A7D5D689B6882
:109CE00003FB025503F02CFC411904F1500003F072
:109CF000F3FB012384F8683038BD7846FFF7ECFBAE
:109D0000EAE700BF7437002010B504460B46097817
:109D1000C1700021416299680B2903D8197B51B3A6
:109D2000012100E0012121700020A07029B1996873
:109D30000731C9080139617220720121E17504F10E
:109D40000C0C03F1100103C98CE80300D989A1822E
:109D500099692162197FA1751B6AE362A26220469C
:109D60001EF008FF30B1237B012B06D0E36A43F0DD
:109D70002003E36210BD0021D5E72023E362F9E769
:109D800010B50446808A02F0D5FE01281CD1237B41
:109D9000E3B194F91620002A1ADBE27D4AB1022BC6
:109DA00018D094F90330002B16DBA378B3B9002048
:109DB0000BE0E2780AB9012B12D1237893B9A3788A
:109DC000042B11D1002000E0102010BD1020FCE772
:109DD0000720FAE71020F8E70720F6E70720F4E766
:109DE0000720F2E70020F0E70720EEE738B5044649
:109DF00003784BB1C388C2698169808A06F090FFFD
:109E0000054645B9284638BDC2698169808A06F091
:109E100081FF0546F5E7E169002201F00101A08A12
:109E2000FFF72EFDEEE700002DE9F04780460E46D5
:109E300017464B1EDBB2012B0FD8B7F5C07F10D8E9
:109E40000024032C1AD8C4EBC403314A02EB0313D9
:109E500093F848304BB10134F3E77846FFF73CFB09
:109E6000EBE77846FFF738FBEAE7C4EBC40502EB03
:109E70000515384609F0CBFBE86600E000255DB328
:109E8000EB6E002B42D043462C4608F1300ED3F83F
:109E900000C058689968DA68C4F800C06060A160C2
:109EA000E260103310347345F1D10023EB64A5F860
:109EB0004A70012E13D06FF00103AB62002385F8C6
:109EC0006830144BAB652D66134BAB632D640120DA
:109ED00002F0B4FA85F848602846BDE8F0870F4BD9
:109EE0001B7D85F85130002385F8523085F85330BA
:109EF00085F85030D8F828206A65A5F858306FF0FA
:109F00000103AB62064BAB632D64E0E71D46E3E75C
:109F10008C370020BBA9020091A2020074370020F8
:109F2000DDA2020000B585B000228DF80F20A0B19F
:109F30000B46024602320A600DF10F01184604F08A
:109F4000DAFA9DF80F3043B10C4B1B6813F0040F85
:109F500003D00B4B1B68032B04DC9DF80F0005B0EE
:109F60005DF804FB074BD3F80435074A009240F232
:109F700015420649042005F085FBEEE7403000203D
:109F80003C300020001001403CAB04002FAB04002B
:109F90002DE9F04391B005460E4614461F46D0F811
:109FA000188003784BB1C388C8F30C029A4230D2B0
:109FB0009B1A4344A3F50053AB6105F10C00EB7809
:109FC00053B30121AA780DF130094B46082A14BF7A
:109FD0000022012204F093FAC5F81880CDF8109001
:109FE0000596AB78E21A92B2ADF8182032440A9284
:109FF00009978DF82C300023ADF82030EB78002B3A
:10A0000041D02B7B022B09D000236B62019302937A
:10A0100016E09B1A4344CFE70221D3E71023ADF8A3
:10A0200020302B690793EFE710AB03EB840454F85F
:10A030003C3C6B62002011B0BDE8F083019BB3B1E2
:10A0400002AB01AA2979286A10F0DAFE0024012C5B
:10A05000F4D810AB03EB840353F83C0C0028EDD08C
:10A0600003A9FFF75FFF0028DED10134EFE72B7B68
:10A07000022B2CD105F10C01E88910F07BFF0028A0
:10A08000BFD10520D7E72B7B012B01D00520D2E7DC
:10A09000EB89ADF80430AB8AADF806300024012C12
:10A0A00013D82946002341F8243F10AB03EB4403A7
:10A0B00033F83C0C10F0C9FE03A9686AFFF732FFC1
:10A0C00008B90134EBE70020B5E70520B3E7052028
:10A0D000B1E7000070B5F0B00E4614461D4610AB57
:10A0E0000A4601462046FFF753FF50B1224B1B683A
:10A0F00013F0040F03D0214B1B68052B2FDC70B02D
:10A1000070BD2046FFF772FE0028F8D103AB012294
:10A110008DF80C20A28AADF80E20002204928DF852
:10A12000142010AA0692A178711AADF81C1008AA82
:10A1300093E8030082E803000AAB04F10C0292E802
:10A14000030083E80300A37D8DF83830236A0C9365
:10A15000636A0D930F9505A800F068FECFE7084BE2
:10A16000D3F80435074A009240F2037206490620EC
:10A1700005F088FAC3E700BF403000203C300020E3
:10A180000010014050AB04002FAB040010B5044692
:10A19000C06E09F040FA04F1300003F085F994F83C
:10A1A0004830022B08D07022002120461FF0A0FC6E
:10A1B000002002F043F910BD04F1500003F074F9DF
:10A1C000F1E710B58CB0044690F84830012B0FD160
:10A1D00001238DF80430636D029303F0B1F903900D
:10A1E00001A800F023FE2046FFF7D0FF0CB010BD01
:10A1F0007846FFF771F9EBE730B585B00D460446B8
:10A20000D0B1E18894F84830022B19D094F8483046
:10A21000022B1ED02946606DFFF74EFB2046FFF74C
:10A22000B5FF164B1B6813F0040F03D0144B1B68CB
:10A23000032B12DC05B030BD7846FFF74DF9E0E79F
:10A24000637813F0020FE1D00022A08A1EF0EEFC2A
:10A25000DCE72046FFF700FADCE70A4BD3F80435C9
:10A2600094F8482002950192074A009240F2F312B6
:10A270000649042005F006FADCE700BF4030002064
:10A280003C300020001001407CAB04002FAB0400E8
:10A2900008B508460021FFF7AFFF08BD08B5037BEE
:10A2A000012B02D0FFF78DFF08BD0121FFF7A4FFAE
:10A2B000FAE7000008B590F8513053B1013B80F83F
:10A2C0005130002380F85030034B186803F0CAFF68
:10A2D00008BDFFF7E3FFFBE77037002010B50C4621
:10A2E00091F84830012B03D12046FFF7E3FF10BD62
:10A2F0007846FFF7F1F8F7E770B5C6B00E46154699
:10A3000082782A44C37D2BB14FF48073934278D373
:10A31000002303E04FF4C073F8E70133032B14D894
:10A32000C3EBC30C394C04EB0C1C9CF848100129FE
:10A33000F3D1BCF81440818A8C42EED1BCF80E40B7
:10A34000C1898C42E9D1082554E00121FFF76CFD59
:10A350000446002857D02A463146C06E1FF09FFBA6
:10A360000023459345A92046FFF7FCFB054608B1AD
:10A37000042842D1459B8BB9254B1B6813F0040F71
:10A3800037D0244B1B68032B33DDB4F84AC0BCF133
:10A39000800F28BF4FF0800C002313E02046FFF70A
:10A3A00037FCE9E7E26ED25C1B490D6810095900E1
:10A3B0002E5C04A800F8136002F00F020131AA5CC1
:10A3C000425401336345EDD304AA002302F81C3044
:10A3D00003F1804303F58833D3F8043502920F4A22
:10A3E00001920F4A00924FF4AC620E49042005F02E
:10A3F00049F90025284646B070BD2046FFF7C6FE45
:10A40000F8E70925F6E70425F4E700BF8C370020BC
:10A41000403000203C30002044300020A0AB04003D
:10A420008CA804002FAB040070B504460D461646F8
:10A43000FFF7A6FC30B923782BB1324629462046D7
:10A44000FFF75AFF70BD324629462046FFF7AFFBA3
:10A45000F8E7000038B504460D46CB695B78037118
:10A46000CB691B7883F00103C370CB6943628B8A8D
:10A470000B2B07D8CB7A002B40D10B7B012B02D0C2
:10A48000002300E001232370002B3CD0287B02280E
:10A4900036D0FFF7CDF9A070AB8A03440B331E4AC8
:10A4A00082FB03235B10013B6372002323720023B2
:10A4B000E37504F10C0395E8030083E80300AB693E
:10A4C00023622B89A382AB7AA3752B6AA362DF2355
:10A4D000E362284610F0BEFE20B12B78012B15D088
:10A4E000FF23E36220461EF045FB30B1237B012BA6
:10A4F0000ED0E36A43F02003E36238BD0123C2E7D4
:10A50000064B987DC5E70423A370D0E72023E8E736
:10A510002023E362F1E700BFABAAAA2A7437002028
:10A52000062979D1F0B585B0154690F800C04FEAFC
:10A530008C1202F4FE5241788478C3781B0443EAFB
:10A540000463047943EA042344791C434FFA8CF6EC
:10A5500042EA91012846FFF711F90746E0B1002EC3
:10A560002FDBC289A98A8A422BD02C4B1B6813F09F
:10A57000040F30D02A4B1B68012B2CDD294BD3F85C
:10A58000043502910192284A009240F27D622749E7
:10A59000022005F077F81EE0204B1B6813F0040F33
:10A5A00019D01F4B1B68012B15DD1E4BD3F804354A
:10A5B0001F4A009240F279621C49022005F062F8BD
:10A5C00009E0002E09DBFD6C2543FD644CB9032135
:10A5D0003846FFF711FE05B0F0BDAB8AA7F858303A
:10A5E000F1E73B7883B17B7A5A1C01239340013B0E
:10A5F0009D420DD0002187F850103846FFF7B2FA7F
:10A600003846FFF705FBE6E77846FEF765FFEAE721
:10A610003846FFF7D6FDDEE7704700BF4030002028
:10A620003C30002000100140E0AB04002FAB0400E0
:10A63000B0AB04002DE9F0438BB007460E4614463C
:10A640001D461046FFF7D2FB50B994F80380B8F1CD
:10A65000000F08D12B46224631463846FFF760FFEF
:10A660000BB0BDE8F0834046FFF7E8F881460028CC
:10A67000F6D08DF80480236A0793A38AADF81230D0
:10A6800005AB04F10C0292E8030083E80300A37D0C
:10A690008DF820300297039623788DF81030E36A06
:10A6A0000993294601A8C847DAE792F801C01CF0CF
:10A6B000010F08D010B5D47D14B1FFF7BBFF10BD5A
:10A6C000FFF708FDFBE77047F8B505460E46144650
:10A6D0001F46537813F0020F06D13B462246711EE7
:10A6E000681CFFF7E2FFF8BD0123C9B21EF0B4F900
:10A6F000F3E7000010B54FF4E072002113481FF09B
:10A70000F7F906F0D9FA0024114B1C60802221468B
:10A7100010481FF0EDF9104B104A1A60104A5A60A9
:10A720004CF250329A600F49D9601A6104221A75AE
:10A730009C7508225A750C4803F074FD0B4B186089
:10A740000B4B1C600B4806F0B5FD10BD8C3700208C
:10A7500058370020D83600207437002080969800A3
:10A76000F049020020A10700ADA9020070370020C7
:10A770005C370020E198020008B506F0BDFA08BD7C
:10A7800098B110B58CB00446036983B1C36983B135
:10A79000836983B101466846FFF75CFEA28A21699E
:10A7A0006846FFF741FE0CB010BD0E2070470E202A
:10A7B000F9E70E20F7E70E20F5E7000058B310B5D3
:10A7C00090B00A46044643683BB383693BB30146F5
:10A7D00004A8FFF799FA134B1B6813F0040F03D07A
:10A7E000114B1B68062B06DCA268616804A8FFF702
:10A7F0001BFE10B010BD0D4BD3F804352278A169B3
:10A80000029101920A4A009240F605020949072086
:10A8100004F038FFE8E70E2070470E20E9E70E202D
:10A82000E7E700BF403000203C300020001001402E
:10A8300024AC04002FAB0400037B012B01D00020CB
:10A84000704730B591B004460D463F4B1B6813F07E
:10A85000040F03D03D4B1B68032B5ADC04A80023D4
:10A8600004930593CDF81730B4F806E09DF8101066
:10A8700001F080018DF81010CEF3861C4CEA010126
:10A880008DF810109DF8112002F003028DF81120B0
:10A8900042EA8E028DF811202A0E8DF812202A0C21
:10A8A0008DF813202A0A8DF814208DF8155062783F
:10A8B000022A0CBF012119469DF8102002F07F02E8
:10A8C0008DF8102042EAC1128DF810204FF00602D8
:10A8D00009924FF001028DF82C20A28AADF82E20AB
:10A8E0000C938DF81C300890226A0D928DF8283058
:10A8F000E36A0F9319D0E389ADF82A30A37DF3B949
:10A900008DF838306FF0010107A8FFF757FF11B03D
:10A9100030BD0F4BD3F804350E4A009240F263224B
:10A920000D49042004F0AEFE98E70DF10E0103A8D6
:10A9300010F03CFBBDF80C30ADF82A30DEE7074BD9
:10A940005B7D8DF83830DDE7403000203C30002062
:10A950000010014050AC04002FAB040074370020FD
:10A9600090F84830022B00D0704710B5044690F89C
:10A970006830022B00D010BDC16CFFF75DFF0028CE
:10A98000F9D1002384F86830F5E7000010B5002401
:10A9900007E0C4EBC402130103481844FFF7E0FFCB
:10A9A0000134032CF5D910BD8C37002008B5FFF712
:10A9B0004FF9FFF7EBFF012008BD10B50C4691F8E9
:10A9C0004830022B06D1022384F868302046FFF776
:10A9D000C7FF10BD7846FEF77FFDF4E7F0B583B002
:10A9E0000446C069A369E188060A0006C3F30C02A5
:10A9F00091422FD98A1A1A44A2F50052851846F1BD
:10AA000000062A463346A08AFEF706FE002840F0DC
:10AA1000A2802046FEF7ECFE074630B3C269D0F8AC
:10AA200018C0C388100A1206CCF30C01994214D244
:10AA3000591A6144A1F50051521840F10003AA428D
:10AA400073EB06010DD3954276EB030339D33846F9
:10AA500003B0F0BD891ACA18D0E75B1A03EB0C01EA
:10AA6000EAE705213846FFF7C7FBE388E269A169F9
:10AA7000A08A06F027FA30BB2A463346A08A1EF089
:10AA8000F9F800283AD1627A0132E37D002B45D0F3
:10AA9000082101FB02F2002B42D04FF48073934255
:10AAA00041D302212046FFF7BFF907460028CED147
:10AAB00000212046FFF7C0FE02210020FEF7FCFE29
:10AAC000C5E70027C3E7E388E269A169A08A06F029
:10AAD00071FA08B90027BAE723785BB1617A4B1C99
:10AAE0000121994001392046FFF7A6FE2046FFF7D5
:10AAF0007DF9EFE77846FEF7EFFCEFE723784BB1FF
:10AB0000617A4B1C0121994001392046FFF794FEE0
:10AB100000279CE77846FEF7DFFCF1E70C21B8E759
:10AB20004FF4C073BBE70D4B1B6813F0040F03D049
:10AB30000B4B1B68002B01DC002788E7094BD3F87F
:10AB400004350192084A009240F27F320749012001
:10AB500004F098FDF0E7002779E700BF40300020BF
:10AB60003C3000200010014060AC04002FAB04001A
:10AB70002DE9F04782B007460E4615469846104626
:10AB8000FFF72CFF00284ED004464D4B1B6813F0F6
:10AB9000040F03D04B4B1B68032B47DC2046FFF709
:10ABA0007FF8237B012B4FD0E16C2B7A01229A4056
:10ABB000114238D10A43E264A6F1040A2B7AEA7DF5
:10ABC000002A49D04FF0080C0CFB03FC617A8B4241
:10ABD00045D0002A48D00823534547D1A269AB6924
:10ABE0009A420BD204F10C0E05F10C09B9E80F00E2
:10ABF000AEE80F0099E803008EE80300E06E5246CD
:10AC0000391D60441EF04BFF6B7813F0020F32D1F8
:10AC1000E66C2378002B35D0637A5A1C01239340CD
:10AC2000013B9E4232D002B0BDE8F087264BD3F8FC
:10AC300004352A7A0192254A009240F2A33224492F
:10AC4000042004F01FFDA9E794F86830002BABD175
:10AC50002046FFF73BF8A7E74FF00C0CB4E70CEBEE
:10AC60000A03A4F84A30B9E70C23B5E704212046CB
:10AC7000FFF7C2FAD7E701232A46F1B238461DF0A2
:10AC8000EBFEC5E77846FEF727FCC5E7E16C2046FA
:10AC9000FFF7D2FD6B7813F0020F0AD1434622462C
:10ACA000B4F84A10E06EFFF700FD2046FFF76EFA99
:10ACB000B9E70122E988A88A1DF0B8FFEEE700BFD6
:10ACC000403000203C3000200010014074AC0400F3
:10ACD0002FAB04002DE9F04190B0002856D00F466C
:10ACE00014461E468046002A52D004AB00933346D9
:10ACF000FEF70EFE054618B1284610B0BDE8F081FB
:10AD000004A8FFF73DF805460028F5D104A81DF07A
:10AD100031FF28B19DF8113043F002038DF8113056
:10AD200000230293039302A9608810F023F928B14D
:10AD30009DF8113043F001038DF811302269E1686C
:10AD4000208906F077F838B19DF8113003F0FE0342
:10AD50008DF81130002BCFD09DF81130002BCBD0C7
:10AD600013F0010F01D0039B08939DF8103033B10D
:10AD7000334604AA39464046FFF7FAFEBCE733469D
:10AD800004AA39464046FFF79FFCB5E70E25B3E716
:10AD90000E25B1E738B3F8B50E460546174B1F68C8
:10ADA000012F22D8002400E00134B44210D205EB78
:10ADB000C4035B68DBB115F8340015F93430002B9F
:10ADC00017DBC0B1FEF73AFD0028EDD00F200DE0F3
:10ADD0000B4B43F8375003EBC7035E600137074B5B
:10ADE0001F60002002E00E2070470420F8BD0E20F6
:10ADF000FCE70B20FAE70F20F8E700BF5C370020E4
:10AE000060370020084B196861B110B501E0214698
:10AE10003CB10C680B79002BF9D0034804F09CFB83
:10AE2000F5E710BD704700BF5039002038B5054622
:10AE300030B1104B1C68C4B10F4B01221A7004E0F2
:10AE40007846FEF749FBF4E724683CB12379002BF0
:10AE5000FAD154F8043C28469847F5E7064B1B788E
:10AE6000022B03D0044B00221A7038BDFFF7CAFF33
:10AE7000F8E700BF503900204C39002010B50446D7
:10AE800030B100232372211D034804F03AFB10BDAA
:10AE90007846FEF721FBF4E75039002010B5044650
:10AEA00058B10A4B1B78013BDBB2012B09D8074B89
:10AEB00002221A700123237210BD7846FEF70CFBA4
:10AEC000EFE7211D024804F047FBF5E74C3900206D
:10AED000503900200A8883689B5A07339BB223F0BD
:10AEE000030313449BB20288043A934200D900231F
:10AEF0000B80704710B582B004468368C91AADF85C
:10AF000006100DF10601FFF7E5FFBDF80630A06859
:10AF1000184402B010BD0088043880B270474388DE
:10AF20008268D018D1520123837070478268002351
:10AF3000937043808380704708B5073189B221F050
:10AF4000030189B2428883889A4204D29B1A9942AB
:10AF500020DC002008BD9A4212D9B0F800C0ACEB4A
:10AF6000020C614518D98B4218D3BCF1030F03D9E9
:10AF70008368134404229A70002343801846E9E74B
:10AF8000826813449B780BB10420E3E7FFF7CEFF00
:10AF90000020DFE70420DDE70020DBE70420D9E71D
:10AFA00038B504460D468368828813448B4202D02C
:10AFB0007846FEF791FA0023AB70211D2046FFF77B
:10AFC00089FFA288A36813449B78042B00D038BD66
:10AFD0000023A380FBE710B50C4683684288134426
:10AFE0008B4202D07846FEF777FA0023A37010BD9B
:10AFF00070B5054614460E46002944D0002D46D0B3
:10B00000B6F1005F08D94FF08053D3F80C3103F547
:10B010000023B6EB832F0ED3B6F5000F08D94FF0FF
:10B020008053D3F80C3103F50053B6EB832F02D3D2
:10B030007846FEF751FA631E3344B3F1005F08D936
:10B040004FF08052D2F80C2102F50022B3EB822F90
:10B050000ED3B3F5000F08D94FF08052D2F80C216F
:10B0600002F50052B3EB822F02D37846FEF734FA92
:10B07000042C10D92C8000236B80AB80AE60043C84
:10B080003480B37070BD7846FEF726FAB6E778468E
:10B09000FEF722FAB4E77846FEF71EFAEAE738B57B
:10B0A0000446A0B16288A36813449B78012B12D098
:10B0B000EFF3108572B6A388A16819448B78032B2F
:10B0C0000DD02046FFF732FF05B962B638BD78468D
:10B0D000FEF702FAE6E77846FEF7FEF9E8E72046D3
:10B0E000FFF708FFA368C31A638000238370EBE7B0
:10B0F0002DE9F0410E4614460546D0B1EEB16A88FE
:10B10000AB6813449B78012B1BD024B32846FFF770
:10B1100002FFA04221D3EFF3108872B621462846E1
:10B12000FFF70AFF074680B1B8F1000F16D162B6EB
:10B1300014E07846FEF7D0F9E0E77846FEF7CCF960
:10B14000DDE77846FEF7C8F9DFE721462846FFF736
:10B15000E6FE3060E8E7092700E009273846BDE849
:10B16000F081F8B50C4615460646E0B1FCB1A3786F
:10B17000012B20D12388AB4221D325B3EFF31087D5
:10B1800072B625800223A370F1183046FFF7A2FEA5
:10B190007388B288934203D0B268134400229A7035
:10B1A00007B962B6F8BD7846FEF796F9DEE778464D
:10B1B000FEF792F9DBE77846FEF78EF9DAE7784694
:10B1C000FEF78AF9D9E77846FEF786F9D6E770B533
:10B1D0000C46054690B1ACB1EFF3108672B6AA8862
:10B1E000AB6813449A78042A10D09A78022A15D0B2
:10B1F000032A18D0052006B962B670BD7846FEF75E
:10B200006BF9E8E77846FEF767F9E5E7291D284678
:10B21000FFF760FEAA88AB681344E6E703229A7042
:10B2200023600020E7E77846FEF756F90020E2E7C2
:10B2300038B5044680B1EFF3108572B6A088A168D6
:10B2400001448B78042B0BD08878022814BF00208F
:10B25000012005B962B638BD7846FEF73DF9EAE748
:10B260002046FFF747FE0146EEE738B5054630B108
:10B27000EFF3108472B6A888A968014407E0784605
:10B28000FEF72AF9F4E72846FFF734FE01468878EE
:10B29000C31EDBB2012BF6D9022814BF0020012007
:10B2A00004B962B638BD70B50C46064678B194B1A3
:10B2B000EFF3108572B6A378012B10D0032B13D1B6
:10B2C00021463046FFF76CFE05B962B670BD784680
:10B2D000FEF702F9EBE77846FEF7FEF8E8E72146CD
:10B2E0003046FFF778FEEFE77846FEF7F5F8EBE734
:10B2F00010B5EFF3108472B68388816819448B7897
:10B30000042B06D08878B0FA80F0400904B962B600
:10B3100010BDFFF7EFFD0146F4E70000024B0022ED
:10B320001A769A60022070475439002008B5064BFF
:10B33000986800221A605A609A60DA601A615A614D
:10B340009A6105F067F908BD5439002000B585B051
:10B350000A4BDB6802228DF8002001934FF48053E2
:10B360000293074A6946012001F0FAFA18B9012050
:10B3700005B05DF804FB0020FAE700BF5439002057
:10B380007239002000B585B00A4B1B6802228DF887
:10B39000002001934FF480530293074A694601202D
:10B3A00001F0DEFA18B9012005B05DF804FB0020B9
:10B3B000FAE700BF7439002072390020164BDA68B2
:10B3C000137951795B1A03F57F2303F6FF7302EBC0
:10B3D00003339A4205D002F580520F4BDA60032006
:10B3E000704700B585B00D4B1B6801208DF800003B
:10B3F00001930B4B0393042302930A4A694601F01D
:10B40000AFFA18B1002005B05DF804FB024B012231
:10B410001A760220F7E700BF543900207439002063
:10B42000783900207239002000B585B00C4BDA68FD
:10B430000C4B1B68043301208DF80000019203932C
:10B4400040F6FC730293084A694601F089FA28B96C
:10B450000120034B187605B05DF804FB0020FAE7E5
:10B4600054390020743900207239002000B585B0AD
:10B470000A4B1B6801208DF800000193084B0393D1
:10B4800004230293074A694601F06AFA18B90120B9
:10B4900005B05DF804FB0020FAE700BF7439002016
:10B4A000603900207239002010B584B0104BDA6882
:10B4B0001478104B1B68043301208DF800000193B1
:10B4C000039202940C4A694601F04AFA70B9094B9A
:10B4D0001B6804F0FC041C440434054B5C61D9680F
:10B4E0000A780A441A61012004B010BD0020FBE76D
:10B4F00054390020743900207239002008B5002327
:10B500000A2B09D8064A52F82320824201D001337F
:10B51000F6E7044A536002E07846FDF7DDFF08BD18
:10B520002CAD04005439002010B5214BDB6853B119
:10B530001F4B1B7E5BB91E4B5B680A2B26D97846D6
:10B54000FDF7CAFF22E07846FDF7C6FFF0E7784630
:10B55000FDF7C2FFEFE7164A5368013353600A2B29
:10B5600021D97846FDF7B8FF1DE0114B00225A6043
:10B5700019E00F4B1B7E1BB10D4B02221A7012E01B
:10B58000FFF7D4FE0FE00A4B1B7E83B9084B5A68C5
:10B59000084B53F82230984704460228E9D0032884
:10B5A000E3D00128D7D0012CEDD0032CEBD010BD77
:10B5B000543900202CAD0400104B1B681B685A1E28
:10B5C00012F1030F18D8C3F30B020AB10020704721
:10B5D00010B50B4AD3600023137653760124147000
:10B5E00093600848FFF78AFF0749204601F0A6F953
:10B5F000FFF79AFF204610BD0020704774390020E5
:10B60000543900204DB302000DB6020008B50B7886
:10B61000032B06D00B4B1B78012B06D0022B0BD033
:10B6200008BD084B00221A76F4E7064B1B7E002B60
:10B63000F6D1FFF779FFF3E70B78032BF0D1FFF793
:10B6400075FEEDE75439002000B585B0174BDB6877
:10B6500018784FF6FF7203F58051184405F0E0FDAD
:10B66000E0B10246114BD9680B780B44984217D0D1
:10B670000E4B5B7E83B10E4B01208DF800000192D2
:10B680000393042302930B4A694601F069F948B910
:10B690000120064B187606E0074BEDE7012002E09B
:10B6A000012000E0002005B05DF804FB54390020C3
:10B6B00000B0040072390020FCAF040008B5104B44
:10B6C000DB681878002203F58051184405F0A8FDC6
:10B6D00008B1012008BD0A4BDA68137951795B1A69
:10B6E00003F57F2303F6FF7302EB03339A4205D081
:10B6F00002F58052024BDA600320EBE70220E9E713
:10B7000054390020F0B585B0514BDE687279337939
:10B71000591E8A4214D006F580510D780D444D49CA
:10B720000968081D0F7907449B1A06EB03366B88DE
:10B73000013B9BB247F6FE62934260D92C461AE069
:10B740000120434B58767EE07846FDF7C5FE15E0B4
:10B7500024F47F6424F00F0404F5805423781C44FF
:10B76000A6421CD9A5421CD26388013B9BB247F676
:10B77000FE62934211D92388002BE5D0238804EB85
:10B78000830323F47F6222F00F029342E0D06288A9
:10B79000B2F5FE4FDCD01C46E2E725462FE000253F
:10B7A0002DE000252BE07846FDF796FE15E024F409
:10B7B0007F6424F00F0404F5805423781C44A642CF
:10B7C0001CD9A54237D26388013B9BB247F6FE6283
:10B7D000934211D92388002BE5D0238804EB8303FF
:10B7E00023F47F6222F00F029342E0D06288B2F528
:10B7F000FE4FDCD01C46E2E7254600E00025E5B11F
:10B80000144B19686A8801F58051384605F008FD27
:10B81000074690B101200E4B18768DF80000019577
:10B820000D4B0393042302930C4A694601F098F8E8
:10B8300058B92C46CEE70025E1E7B5FA85F56D0944
:10B84000034B5D76012005B0F0BD0020FBE700BF93
:10B850005439002074390020F8AF040072390020F8
:10B860002DE9F04186B0654B1B6923B1634B5B69E1
:10B870002BB1002748E07846FDF72EFEF6E7784624
:10B88000FDF72AFEF5E7A04618E07846FDF724FE0E
:10B8900018E028F47F6828F00F0808F5805898F819
:10B8A00000309844454520D944454AD2B8F8023082
:10B8B000013B9BB247F6FE62934214D9B8F80030C0
:10B8C000002BE2D0B8F8003008EB830323F47F624A
:10B8D00022F00F029342DCD0B8F80220B2F5FE4FFE
:10B8E000D7D09846DEE7444600E000243CBB002366
:10B8F0000093019B002B5CD10127002C78D062883B
:10B9000047F6FF739A4273D0002F75D13B4B5A69AB
:10B9100022F47F6626F00F06B61A06F580561C69DB
:10B92000DD682B796A799B1A05EB033500230193B7
:10B930006388013B9BB247F6FE629342A3D8009412
:10B940000EE00024D2E77846FDF7C6FD23E024F49C
:10B950007F6424F00F0404F58054237823441C46AC
:10B96000A542C6D92388019A02EB83029642C0D928
:10B97000009B634023F47F6323F00F03002BB8D1B7
:10B980006388013B9BB247F6FE618B42B1D80192BE
:10B990002388002BD7D0238804EB830323F47F6212
:10B9A00022F00F029342D2D06288B2F5FE4FD6D178
:10B9B000CDE7124A526901208DF808000392009ADF
:10B9C000059204930E4A02A900F0CAFF70B90B4910
:10B9D000019B23F003024B6913444B6114B1074BE5
:10B9E0001C618AE77846FDF777FDF8E7002000E064
:10B9F000012006B0BDE8F0810120FAE754390020AB
:10BA00007239002000B585B00023294A1370D3F89D
:10BA1000F83FB3F1FF3F09D0B3F1FF3F0DD08BB139
:10BA2000B3F1FF3F39D0A3F5805211E04FF010225F
:10BA30005269B2F1FF3FEFD104E04FF0102252699A
:10BA4000002AEDD14FF080535A691B6903FB02F2C3
:10BA5000A2F58052174B1A60174B1B6813F4801F16
:10BA600016D0164B1B68062B12DD154BD3F8043588
:10BA70000021D1F8F81FB1F1FF3F14D002920191DB
:10BA8000104A009240F276220F49072003F0FAFD97
:10BA9000FFF792FD05B05DF804FB4FF010235A69E3
:10BAA000A2F58052D4E74FF010214969E6E700BFC4
:10BAB0007039002074390020403000203C300020D4
:10BAC00000100140F8AC0400DFAC040010B50446DF
:10BAD000B0B1104B1B78BBB10E4BD968E3685879F5
:10BAE000A3EB0032914211D31A79121A02F57F2288
:10BAF00002F6FF7203EB0233994209D8012004E0F9
:10BB00007846FDF7E9FCE4E7002010BD0020FCE7E3
:10BB10000020FAE754390020024B1878003818BF8B
:10BB2000012070475439002010B50446124B1B7891
:10BB3000BBB92378032B18D10F4B9C60E268DA6005
:10BB40000E4B1B78ABB10A220B4B5A6000221A76BF
:10BB5000012018705A760A4900F0F0FEFFF7E4FC65
:10BB600010BD7846FDF7B8FCE3E77846FDF7B4FC76
:10BB7000E2E70022E8E700BF5439002070390020D6
:10BB80000DB60200014B1868704700BF74390020E1
:10BB900010B5044680B163681BB123680BB1A3687C
:10BBA00013B97846FDF798FCA3685A1E134207D1D3
:10BBB0000023E360236110BD7846FDF78DFCEAE7C2
:10BBC0007846FDF789FCF3E770B508B30E460446E6
:10BBD0008368FBB1EFF3108572B60369C2689342C4
:10BBE00012D001684268806800F1FF3C03EA0C0350
:10BBF00003FB021116B130461DF051FF23690133DA
:10BC000023614DB962B608E005B962B6052504E0C6
:10BC10000E2502E0092500E00025284670BD000041
:10BC20000246C0F30B0030BB39B301F6FF714FEA97
:10BC3000113C134B0221C3F80415114BD3F8003407
:10BC4000002BFAD001460AE00D4BC3F808250C4B37
:10BC5000D3F80034002BFAD002F58052013161454F
:10BC6000F2D3074B0022C3F80425054BD3F8003468
:10BC7000002BFAD07047102070470920704700BF92
:10BC800000E00140844610F0030F2DD111F0030FA6
:10BC90002CD16AB312F0030F2CD19008164B01225D
:10BCA000C3F80425144BD3F80034002BFAD003E07A
:10BCB0000CF1040C04311046421E58B10B68B3F16C
:10BCC000FF3FF5D0CCF800300B4BD3F80034002BFD
:10BCD000FAD0EDE7084B0022C3F80425064BD3F851
:10BCE0000034002BFAD070471020704710207047A6
:10BCF000092070470920704700E00140094B1B787C
:10BD000013F0040F02D00378122B00D07047064BBB
:10BD10001A68064B5A60034B1A786FF382021A7046
:10BD2000F4E700BF203A0020103A0020AC39002090
:10BD300010B582B001900C46BDF80630012B11D130
:10BD400023680A490B600A4B1A7842F001021A7004
:10BD5000D3B25B0883F0010303F001030B710020F1
:10BD600002B010BD7846FDF7B7FBE9E7103A0020B6
:10BD7000203A002010B582B001900C46BDF8063084
:10BD8000022B0FD12268094B1A6022791A71002008
:10BD900058719871D871064A137843F002031370F2
:10BDA00002B010BD7846FDF797FBEBE7083A00209C
:10BDB000203A002010B582B001900C46BDF8063044
:10BDC000032B06D1054B186820601B79237102B044
:10BDD00010BD7846FDF780FBF4E700BF103A002065
:10BDE00010B582B001900C46BDF80630032B0CD183
:10BDF000084B2068186022791A71074A137843F0BB
:10BE000001031370002002B010BD7846FDF764FBFB
:10BE1000EEE700BF103A0020203A002010B582B0B3
:10BE200001900C46BDF80630042B05D1044B03CB22
:10BE30002060616002B010BD7846FDF74DFBF5E76C
:10BE4000083A002010B582B001900C46BDF80630CB
:10BE5000042B0BD1074B2068616803C3064A137893
:10BE600043F002031370002002B010BD7846FDF7C6
:10BE700033FBEFE7083A0020203A002000B583B0FA
:10BE80000190BDF80630032B06D1054B00221A6045
:10BE90001A7103B05DF804FB7846FDF71DFBF4E76B
:10BEA000103A002000B583B00190BDF80630042B95
:10BEB00006D1054B00221A605A6003B05DF804FBFE
:10BEC0007846FDF709FBF4E7083A002000B585B095
:10BED0001A4B1B7813F0400F13D0184B1B7813F03C
:10BEE000040F0BD1002301938DF80830144B5B68CD
:10BEF00003F500530193B3F1807F06D905B05DF8D7
:10BF000004FB7846FDF7E8FAE7E70E4B1B788DF85F
:10BF100008300A4A137843F0040313700023ADF885
:10BF20000C300323ADF80E3001A9039806F066FB30
:10BF30000028E3D07846FDF7CFFADFE7203A00206B
:10BF4000AC390020213A002000B585B000220192D2
:10BF500002920F4B996801911B7B8DF808300D49B7
:10BF60000B780133DBB20B708DF80B30ADF80C2081
:10BF70000423ADF80E300DEB0301039806F03EFBF1
:10BF800010B905B05DF804FB7846FDF7A5FAF8E7AF
:10BF9000AC390020213A002000B585B00023019380
:10BFA00002930F4A91680191117B8DF80810128A53
:10BFB000ADF809200B4A12788DF80B20ADF80C3043
:10BFC0000423ADF80E300DEB0301039806F016FBC9
:10BFD00010B905B05DF804FB7846FDF77DFAF8E787
:10BFE000AC390020213A002000B58DB00B4B1B7BF3
:10BFF000012B0ED0094A926804928DF80830039004
:10C0000002238DF8043001A8FEF710FF0DB05DF893
:10C0100004FB024A9268013A0492EEE7AC39002030
:10C0200008B51D481D4B036000F038FF1C4B1B7802
:10C0300013F0200F2AD103F00303032B14D1194B63
:10C040001968194A916019791173B3F805001082C3
:10C05000DB79164A1370164A1279934217D0B1B998
:10C06000114B00221A6007E00F4B00221A609A6001
:10C070001A731A82FFF768FF0B4B1A685A60084A56
:10C08000137843F040031370FFF720FF08BD084BFF
:10C090001A68054B1A60EFE7FC390020FDBC02006E
:10C0A000203A0020083A0020AC390020213A002034
:10C0B000103A002010B582B00024ADF800400123F2
:10C0C000ADF80230009806F0CAFAADF80440022339
:10C0D000ADF80630019806F0C2FA02B010BD0000BB
:10C0E00008B5002006F0E2FA094A00231360536005
:10C0F0009360D3601361074A117863F3451111709F
:10C10000CBB243F040031370FFF7E0FE08BD00BF61
:10C11000AC390020203A002038B50C4D00242C60AA
:10C120006C60AC60EC602C6101F00AFA084B58605E
:10C13000084A9A60084ADA601C615C61074B1A7809
:10C1400064F3C3021A706C6038BD00BFAC390020C4
:10C1500088390020B9C2020000879303203A0020EA
:10C1600008B50C4B1B7813F0100F00D008BD0A481F
:10C170000A4B036000F092FEFFF752FFFFF79AFFB1
:10C18000074801F061F9034A137843F01003137074
:10C19000ECE700BF203A0020A039002011C40200C3
:10C1A00088390020034B1878800880F0010000F0E7
:10C1B00001007047203A002010B501F0B5FF174B81
:10C1C0001B7B1BBB154B9B7B2BBB144B1A8A41F271
:10C1D00082639A4206D8124B1B7813F0080F05D0E1
:10C1E000012300E001231BB9082410E00023FAE733
:10C1F0000A4B01221A7300241C829A6801329A6049
:10C20000FFF7A2FE2046FFF7EFFE00E0082401F052
:10C21000D1FF204610BD0824F9E700BFAC3900204B
:10C22000203A002010B501F07FFF214B5B7BABB1C2
:10C230001F4B9B7B03BB1E4B1A8A41F282639A42BF
:10C2400006D81C4B1B7813F0080F05D0012300E023
:10C2500001239BB1012302E00023FAE700231C46DF
:10C260000BB3134B00225A731B7B4BB1012B0ED027
:10C270007846FDF731F916E00023F0E70023EEE7FA
:10C28000FFF79AFF78B17846FDF726F90BE0084BE7
:10C2900000201860586018731882FFF7A5FEFFF79A
:10C2A00053FEFFF713FE01F085FF204610BD00BFCF
:10C2B000AC390020203A002008B52C4B1B7BDBB1A9
:10C2C000012B2ED07846FDF707F9284A138A01334F
:10C2D0009BB21382264AA2FB03121209C2EB02127E
:10C2E000A3EB42039BB2002B3DD0204B5B8A13B1E2
:10C2F000013B1E4A538208BD1C4B1A8A41F28263DD
:10C300009A4206D81B4B1B7813F0080F07D0012365
:10C3100000E00123002BD8D0FFF784FFE5E70023DE
:10C32000F8E7124B1B8A41F28262934206D8114A07
:10C33000127812F0080F14D0012200E00122002A26
:10C34000C3D042F2B012934202D9084B01225A7371
:10C35000FFF768FF0028C8D1044B5B7B012BB4D1E9
:10C36000C3E70022EBE7FFF717FEBEE7AC3900207A
:10C3700089888888203A002010B5244B1B7B002B2D
:10C3800035D10446214B5B8A2BBB1AB91F4B9B68E6
:10C390008B4205D3FAB11D4B9B6801338B421AD2F5
:10C3A0001A4B9B682A338B4223D3184B9B7B03BBCE
:10C3B000164B996000221A605A601A8242F60651A2
:10C3C00059825A731A73FFF7BFFDFFF77FFD2046AE
:10C3D000FFF70AFE0DE062B10C4B9B6801338B4204
:10C3E00007D10A4B01225A73FFF71CFF01E0012B12
:10C3F00000D010BD002AFCD1044B9B688B42F8D1C1
:10C40000024B01225A73FFF70DFFF2E7AC3900200F
:10C410000378042B00D0704743681B78002BFAD0B8
:10C4200010B58468027E437E012A14BF00220122D7
:10C43000416904F11000FFF79FFF10BD08B538B146
:10C440000D4B01229A730D4A13680133136008BD26
:10C450000A4B1B685BB1094A1368013B1360002B50
:10C46000F5D1054B00229A73FFF7DCFEEFE7784623
:10C47000FDF732F8EFE700BFAC3900207C3900202F
:10C4800000B58DB0ADF808008DF81020039103239E
:10C490008DF8043001A8FEF7C9FC0DB05DF804FB6F
:10C4A000014B9868704700BFAC390020054B1B7BDF
:10C4B000012B02D0034B98687047024B98680138F3
:10C4C000704700BFAC3900201D4B1B7813F0400FA4
:10C4D00034D070B504460D461A4B1A685B689A4210
:10C4E00028D2184B1B7B012B17D0174B9A4216D220
:10C4F000144B1A685B68403B9A4218D2EFF31086DF
:10C5000072B6104A1368591C11602B60FFF7CEFFFA
:10C51000206006B962B6002070BD0C4BE6E7094BFF
:10C5200001225A73FFF77EFE0028E7D1E0E7FFF70C
:10C53000CDFCE3E7FFF7CAFC0F20EDE70F207047C3
:10C54000203A0020AC390020FFFF7F0000E0FF0010
:10C55000044B9B68584010F0010F00D0013B184677
:10C56000704700BFAC390020014B187B704700BFFB
:10C57000AC390020F8B5104B1B7813F0200F01D018
:10C580000820F8BD17460C4E43F0200333700B4DC6
:10C59000A860297300242C82FFF7D6FC2046FFF701
:10C5A00023FD2F606F60337843F040033370FFF753
:10C5B0008DFC2046E5E700BF203A0020AC39002082
:10C5C00008B50022FFF7D6FF08BD00002DE9F041B5
:10C5D000002625E0134604FB03F3244AD25A3046D2
:10C5E000C0472249BC2304FB03F3CA5A0132CA5292
:10C5F0000221284602F0C6FD01370221284602F03A
:10C6000091FD014649B1194BBC2202FB0433D3F81A
:10C610000880B8F1000FDDD1E3E797B90136F6B233
:10C62000022E1FD83446BC2306FB03F308330F4DFC
:10C630001D4404350221284602F074FD01460027FE
:10C64000E0E7284602F006FE0828E7D1074BBC22A7
:10C6500002FB0434A368002BE0D0002204493046DA
:10C660009847DBE70120BDE8F08100BF2C3A0020AD
:10C6700068AD040008B5082383731023437300F1E9
:10C680001C0343610323037300F1180303610C309F
:10C6900002F0B2FD08BD000008B50378012B06D0FA
:10C6A000022B06D07846FCF717FF002002E0292075
:10C6B00000E0014808BD00BF084C010008B5037840
:10C6C000012B07D0022B15D07846FCF705FF4FF45D
:10C6D000FA730AE08368591A21F0030303EB91030C
:10C6E000DB0003EB910303F5FA730748984228BF78
:10C6F000184608BD83685B1A1B0B044800FB03F354
:10C7000003F5FA73F1E700BF60850100084C0100F2
:10C7100038B5044601210C3002F004FD054678B11D
:10C72000084BC4F89C300023C4F8A0306168FFF7C0
:10C73000C5FFC4F8A800C4F8AC40012384F8B830A1
:10C74000284638BD65C8020010B50446FFF7E0FF73
:10C7500020B104F19C000FF03DFB00B910BD7846FC
:10C76000FCF7BAFEFAE70000F8B505460C46164697
:10C7700017680378012B19D11249A1FB043149092B
:10C780008B00AC68E41BB4EB810F00D31C468CB16A
:10C79000686827F00307E968224639443844FFF700
:10C7A00071FA58B9336823443360F8BD7846FCF712
:10C7B00093FEE1E77846FCF78FFEE9E77846FCF761
:10C7C0008BFEEFE77D0CCEC7F8B506460C46154646
:10C7D00017680378022B17D1114BA3FB04231B0C02
:10C7E0001A03B468E41BB4EB033F00D314467CB1D6
:10C7F000706827F0030721463844FFF711FA58B94B
:10C800002B6823442B60F8BD7846FCF765FEE3E710
:10C810007846FCF761FEEBE77846FCF75DFEEFE754
:10C82000EB0661C538B505460C4611462378012B49
:10C8300006D0022B0FD07846FCF74EFE002004E015
:10C84000021D2046FFF790FFA0686B68834214BF6B
:10C850000020012038BD021D2046FFF7B5FFA0686B
:10C86000F3E700002DE9F8430F46D1F8A850254B17
:10C870001B786BB90446A5F5FA7501F10C08012186
:10C88000404602F04FFC064648B14FF0000922E056
:10C890000FF0DCFA002387F8B830BDE8F88378465B
:10C8A000FCF71AFEF1E70FF0D1FA0121404602F041
:10C8B00069FC00237B6087F8B830134B186801F0DF
:10C8C000D1FC3846FFF740FFE7E73046FFF7E4FECC
:10C8D0004844A8420FD8A5EB090231463846FFF775
:10C8E000A1FF0028DFD101F0E7FAB0EB0409ECD595
:10C8F000A4EB0009E9E70FF0A9FA3846FFF724FF97
:10C90000CBE700BF283A0020243A002010B50848A1
:10C9100001F088FC074B1860002406E0064BBC20A1
:10C9200000FB0430FFF7A6FE0134022CF6D910BD3F
:10C93000CDC50200243A00202C3A002038B5044628
:10C940000D46022805D80548BC2303FB0404A56056
:10C9500038BD7846FCF7C0FDF5E700BF2C3A002053
:10C960002DE9F84305460C461746022816D8CCB1E7
:10C970002378012B1AD0022B3ED16368C3F30B033B
:10C98000002B31D1A368C3F30B03002B30D1A36874
:10C99000002B34D17846FCF79FFD30E07846FCF759
:10C9A0009BFDE4E77846FCF797FDE1E7636813F049
:10C9B000030F0DD1E36813F0030F0DD1A36813F03B
:10C9C000030F0DD1A368D3B97846FCF785FD16E0B7
:10C9D0007846FCF781FDEDE77846FCF77DFDEDE755
:10C9E0007846FCF779FDEDE77846FCF775FDC9E779
:10C9F0007846FCF771FDCAE77846FCF76DFDEFF36A
:10CA0000108872B6BC2605FB06F606F108032A4E0E
:10CA10001E4404360021304602F084FB814678B380
:10CA20000021304602F0AEFB20686168A268E3682E
:10CA3000C9F80000C9F80410C9F80820C9F80C307A
:10CA40002FB11D4BBC2202FB05335B883B801A4B88
:10CA5000BC2202FB05335A8801325A8093F8B83061
:10CA600083B9164B1B7813B10024A1460CE0124B7E
:10CA7000BC2000FB0530FFF74BFE8146002403E09D
:10CA8000042401E00024A146B8F1000F00D162B6F1
:10CA9000B9F1000F09D0BC2005FB00F09830064D1D
:10CAA000284404300FF096F910B92046BDE8F88309
:10CAB0007846FCF711FDF8E72C3A0020283A0020D0
:10CAC00038B50446EFF3108572B610B9164B1B68E3
:10CAD00073B18CB1144A136801331360124B1B6895
