:020000022000DC
:1070000000F003206D7302005573020057730200F5
:10701000597302005B7302005D7302000000000000
:107020000000000000000000000000005F7302008C
:1070300061730200000000006373020065730200C8
:1070400067730200677302006773020067730200D0
:10705000677302006773020061C803006773020070
:107060006773020067730200559C03006773020098
:1070700067730200677302006773020067730200A0
:10708000677302000933040049EB020067730200D2
:107090006D33040067730200FDCB030067730200C9
:1070A0006773020067730200677302006773020070
:1070B0006773020067730200000000000000000018
:1070C0006773020067730200677302006773020050
:1070D0006773020067730200677302006773020040
:1070E000677302006773020067730200000000000C
:1070F00000000000677302000000000067730200D8
:10710000000000000000000000000000000000007F
:10711000000000000000000000000000000000006F
:10712000000000000000000000000000000000005F
:10713000000000000000000000000000000000004F
:10714000000000000000000000000000000000003F
:10715000000000000000000000000000000000002F
:10716000000000000000000000000000000000001F
:10717000000000000000000000000000000000000F
:1071800000000000000000000000000000000000FF
:1071900000000000000000000000000000000000EF
:1071A00000000000000000000000000000000000DF
:1071B00000000000000000000000000000000000CF
:1071C00000000000000000000000000000000000BF
:1071D00000000000000000000000000000000000AF
:1071E000000000000000000000000000000000009F
:1071F000000000000000000000000000000000008F
:10720000344935480A1A02D0072291438D46334942
:1072100033480A1A06D00722914381F309880222D3
:1072200082F314882F483049304A00F042F8304841
:107230003049314A00F03DF830483149314A00F0D8
:1072400038F831483149324A00F033F83148324990
:10725000324A00F02EF832483249334A00F029F819
:1072600032483349334A00F024F833483349002286
:1072700000F02AF832483349002200F025F832485D
:107280003249091A082902DB0022026041601F48C6
:107290001F49884205D00268043003B4904703BCFC
:1072A000F7E700208646EC4600200021284A904758
:1072B000FEE7884207D0521A05D0037801300B70E0
:1072C0000131013AF9D17047884202D00270013091
:1072D000FAE7704700F0032000E8032000F00320E5
:1072E00000F00320E46B0400002E00207C2E002020
:1072F000A0730200A0730200C0380400E46B040015
:10730000002E0020002E0020783C0400783C040071
:10731000783C0400783C0400783C0400783C04008D
:10732000783C0400783C0400E46B0400606C0400CA
:107330007C2E00207C2E00207C2E00200C5D002066
:107340000C5D00200C5D00200C5D00200C61002015
:1073500021810200FEE7FEE7FEE7FEE7FEE7FEE72B
:10736000FEE7FEE7FEE7FEE700F002B8FFF7FCBF2E
:1073700008484FF00701884385460748804707487B
:10738000016841F470010160BFF34F8FBFF36F8F4D
:10739000FFF736BF00F00320E9CC030088ED00E0E2
:1073A00041DF70470B781BBB124B1B6813F4804FF7
:1073B0001ED0114B1B68032B1ADD10B584B00F4B88
:1073C000D3F804354A685088097B526914786CB93F
:1073D00092F90D20039202910190094A0092E12254
:1073E0000849042008F002FC04B010BD0022F1E7B7
:1073F000704700BF242E0020202E002000100140E6
:10740000D83C0400CE3C040010B5C6B0744B1B68D9
:1074100013F4804F03D0734B1B68032B31DC704B8C
:107420001B6813F4804F03D06E4B1B68032B34DCB6
:107430006B4B1B6813F4804F03D06A4B1B68032B04
:1074400067DC674B1B6813F4804F04D0654B1B68E7
:10745000032B00F38A80624B1B6813F4804F04D027
:10746000604B1B68032B00F3AD805D4B1B6813F46E
:10747000804F04D05B4B1B68032B00F3A58046B004
:1074800010BD594BD3F80435584A009240F20322FC
:107490005749042008F0AAFBC1E7534BD3F8043541
:1074A000544A1178527802920191534A00924FF453
:1074B00001724F49042008F099FBB9E74D4A1A447C
:1074C00092F830204D490C681009590014F800C09A
:1074D00005A800F813C002F00F020131A25C42546B
:1074E00001330F2BEAD905AA00238DF8343003F1BC
:1074F000804303F58833D3F804350292404A019261
:10750000404A009240F206223949042008F06EFBFE
:1075100097E70023E5E7374A1A44127C37490C689D
:107520001009590014F800C005A800F813C002F0B3
:107530000F020131A25C425401330F2BEBD905AA93
:1075400000238DF8343003F1804303F58833D3F8FA
:10755000043502922C4A01922A4A009240F20722F4
:107560002349042008F042FB75E70023E5E7214AA0
:107570001A4492F8202021490C681009590014F887
:1075800000C005A800F813C002F00F020131A25C90
:10759000425401330F2BEAD905AA00238DF8343069
:1075A00003F1804303F58833D3F804350292174A78
:1075B0000192144A00924FF402720D49042008F01F
:1075C00015FB52E70023E5E7074BD3F80435104AD3
:1075D000009240F209220649042008F007FB4EE71A
:1075E000242E0020202E002000100140103D040019
:1075F000CE3C0400982E00202C3D0400282E0020B4
:107600005C3D0400683D0400703D04007C3D0400C6
:10761000883D040000B585B00390124B1B6813F43D
:10762000804F03D0104B1B68042B0BDCBDF80E30D1
:10763000012B12D1402200210C481CF0B5F805B0F6
:107640005DF804FB0A4BD3F804350A4A00929022F5
:107650000949052008F0CAFAE8E7784602F088FCF4
:10766000E8E700BF242E0020202E0020982E0020C6
:1076700000100140D03D0400CE3C040000B583B0B2
:107680000378142B1BD01D2B0AD11C4B1B6813F441
:10769000804F03D01A4B1B68042B04DCFFF7B4FEA9
:1076A00003B05DF804FB174BD3F80435164A00927B
:1076B0004FF4A1721549052008F098FAEEE7C38847
:1076C000102BEDD10D4B1B6813F4804F03D00C4BE6
:1076D0001B68032B05DC402200210D481CF064F8D8
:1076E000DEE7084BD3F804350A4A00924FF4A6723D
:1076F0000649042008F07AFAEDE700BF242E0020A6
:10770000202E002000100140EC3D0400CE3C04007F
:10771000982E00200C3E040030B585B003900C4636
:10772000184B1B6813F4804F03D0174B1B68042BB6
:1077300018DCBDF80E30012B1FD1144DA44605F105
:10774000400E2C460FCCCCF80000CCF80410CCF83E
:107750000820CCF80C3025460CF1100C7445F0D103
:1077600005B030BD0A4BD3F804350A4A009287228F
:107770000949052008F03AFADBE7784602F0F8FB01
:10778000DBE700BF242E0020202E0020982E0020B2
:1077900000100140503E0400CE3C040030B585B0DE
:1077A00003900C46184B1B6813F4804F03D0174B03
:1077B0001B68042B19DCBDF80E30012B20D1A44628
:1077C000134D4034AE46DCF80000DCF80410DCF861
:1077D0000820DCF80C30AEE80F000CF1100C7546F8
:1077E000A445EFD1002005B030BD0A4BD3F80435D5
:1077F000094A00927C220949052008F0F7F9DAE7E6
:10780000784602F0B5FBDAE7242E0020202E002077
:10781000982E002000100140683E0400CE3C040079
:1078200000B583B0194B1B6813F4804F03D0184B7D
:107830001B68032B12DC174B4FF6FF725A809A809D
:107840001A80154817F07EFEA0B9144A002114488A
:107850001BF068FAA0B903B05DF804FB114BD3F834
:107860000435114A00924FF4D5721049042008F0F3
:10787000BDF9E0E70E4A4FF4D97115F031FBE4E7AA
:107880000B4A40F2B31115F02BFBE4E7242E002045
:10789000202E00207C2E0020B5780200A573020067
:1078A000842E002000100140803E0400CE3C0400E5
:1078B000783C040070B582B004460D4616460D4B68
:1078C0001B6813F4804F03D00B4B1B68032B06DCA3
:1078D00032462946204601F0EFFE02B070BD074B4C
:1078E000D3F80435064A0092FD220649042008F028
:1078F0007DF9EDE7242E0020202E0020001001400D
:10790000A03E0400CE3C040000B583B0234B1B68AE
:1079100013F4804F03D0224B1B68032B1ADC1F4B40
:107920001B6813F4804F03D01D4B1B68032B1FDC17
:107930001A4B1B6813F4804F03D0194B1B68032BA1
:1079400021DC0021174B19700E2002F0F3F803B070
:107950005DF804FB144BD3F80435144A52780192B5
:10796000134A0092BF221349042008F03FF9D6E7DA
:107970000D4BD3F80435104A0092C0220D49042063
:1079800008F034F9D4E7084BD3F804350B4A0092D9
:10799000C1220849042008F029F9D2E7242E00204A
:1079A000202E0020942E002000100140982E002050
:1079B000B83E0400CE3C0400DC3E0400083F040056
:1079C00000B583B00E4B1B6813F4804F03D00D4BF2
:1079D0001B68032B08DC00210B4B19700D2002F0F3
:1079E000A9F803B05DF804FB084BD3F80435084A46
:1079F0000092D2220749042008F0F8F8EBE700BF14
:107A0000242E0020202E0020942E00200010014063
:107A1000403F0400CE3C040000B583B00F4B1B6810
:107A200013F4804F03D00E4B1B68032B0ADC00F0CD
:107A3000CBFC00F071FC01210D2002F07BF803B0BB
:107A40005DF804FB074BD3F80435074A00924FF466
:107A500083720649042008F0C9F8E8E7242E0020C4
:107A6000202E002000100140703F0400CE3C040096
:107A700000B583B0254B1B78002B31D1244B5A78AD
:107A80001B789A4229D2234B1B6813F4804F03D0F2
:107A9000214B1B68032B14DC1D48C3680193002392
:107AA000009300F120020221408801F05DFE0121D7
:107AB0000E2002F03FF8154B01221A7003B05DF85A
:107AC00004FB164BD3F80435154A009240F22712F6
:107AD0001449042008F08AF8DEE7FFF79DFFEAE783
:107AE0000C4B1B6813F4804FE8D00B4B1B68032B27
:107AF000E4DD0A4BD3F804350B4A009240F237120A
:107B00000849042008F072F8D8E700BF942E00203E
:107B1000982E0020242E0020202E0020001001404E
:107B2000943F0400CE3C0400C83F040008B5094B54
:107B30001B7823B9084B5A781B789A4200D308BDAA
:107B4000013B054A1370FFF767FF024B01221A70D1
:107B5000F5E700BF942E0020982E002008B500F015
:107B60000DFC024B18680AF0D8FF08BD98410400CC
:107B700000B583B00F4B1B6813F4804F03D00E4B3E
:107B80001B68032B09DC0322C8210F2002F03EF8FA
:107B90000BF060FF03B05DF804FB084BD3F804352D
:107BA000074A00924FF4B2720649042008F01EF80A
:107BB000E9E700BF242E0020202E00200010014005
:107BC000F83F0400CE3C040010B582B0441C214BA9
:107BD0001B6813F4804F03D01F4B1B68032B1ADC68
:107BE000022C29D0042C2AD0012C21D0194B1B683F
:107BF00013F4804F1ED0184B1B68032B1ADD174B54
:107C0000D3F80435164A00924FF4CB72154904207C
:107C100007F0ECFF0EE0114BD3F804350194124A43
:107C200000924FF4BC720F49042007F0DFFFD7E742
:107C3000FFF71EFF02B010BDFFF778FFFAE70BF069
:107C4000B6FE10B9FFF794FFF4E7FFF787FF0BF0DC
:107C5000A2FEF7E7242E0020202E00200010014075
:107C6000A0410400CE3C04001440040000B583B0E1
:107C70003138032814D90D4B1B6813F4804F11D0F1
:107C80000B4B1B68032B0DDD0A4BD3F804350A4A56
:107C900000924FF4D2720949042007F0A7FF01E0D7
:107CA000FFF792FF03B05DF804FB00BF242E002015
:107CB000202E002000100140A0410400CE3C040012
:107CC00000B583B0064B1868019006490AF0F4FE2F
:107CD00010B903B05DF804FB784602F049F9F8E703
:107CE0007C410400982E002000B583B0154B1B6822
:107CF00013F4804F03D0144B1B68032B14DC0021BA
:107D00000E2001F017FF01210D2001F013FF0F4A93
:107D1000537801335370FFF7D3FF00F055FB00F0A9
:107D2000FBFA03B05DF804FB094BD3F80435074AAE
:107D300052780192074A0092B2220749042007F0C4
:107D400055FFDCE7242E0020202E0020982E002056
:107D50000010014028400400CE3C040000B583B070
:107D6000104B1B6813F4804F03D00F4B1B68032B81
:107D70000CDC00210D2001F0DDFE01210E2001F0C0
:107D8000D9FEFFF79DFF03B05DF804FB074BD3F866
:107D90000435074A0092C8220649042007F026FF4E
:107DA000E7E700BF242E0020202E00200010014015
:107DB00050400400CE3C040008B5FFF781FF08BD29
:107DC00010B582B004460F4B1B6813F4804F03D0EC
:107DD0000D4B1B68032B04DC2378232B0ED002B041
:107DE00010BD0A4BD3F8043502780192084A00927C
:107DF000F1220849042007F0F9FEEDE7002005F024
:107E000031FDECE7242E0020202E00200010014040
:107E10006C400400CE3C040000B583B064212148CE
:107E200001F000FE204B1B6813F4804F03D01F4B62
:107E30001B68032B17DC0BF0AAFD00BB1A4B1B6859
:107E400013F4804F03D0194B1B68032B1DDC00215A
:107E50000F2001F0C5FE0222C8210F2001F0D6FE3E
:107E600003B05DF804FB124BD3F80435114A0092BD
:107E700040F20F221049042007F0B8FEDBE70F4A5A
:107E800040F2112115F02CF8D8E7094BD3F804354E
:107E90000B4A009240F217220749042007F0A6FE81
:107EA000D5E700BF6D7C0200242E0020202E00208C
:107EB0000010014088400400CE3C0400783C0400DF
:107EC000A041040008B5124B998818890DF070FE86
:107ED00058B90F4B998818890DF01EFF58B90C4BF3
:107EE00018881AF023FB60B908BD0A4A40F25B11FA
:107EF00014F0F6FFEDE7074A4FF4AE7114F0F0FF0F
:107F0000EDE7044A40F25F1114F0EAFFECE700BF2E
:107F10007C2E0020783C040030B593B02422002150
:107F200008A81BF041FC01238DF8203007238DF8B1
:107F3000233006238DF82830444B0C93444B109388
:107F4000444805F027FC0DF1470108A80BF034FD6B
:107F5000044660B30B2829D13F4B1B6813F4804FB4
:107F600003D03E4B1B68032B14DC3B4B1B6813F404
:107F7000804F1CD0394B1B68032B18DD384BD3F8CE
:107F80000435384A009240F2C7123749042007F0FE
:107F90002DFE0CE0324BD3F80435344A00924FF4F6
:107FA000E3723149042007F021FEDEE710B93CB14D
:107FB00013B030BD2E4A4FF4E67114F091FFF6E78E
:107FC00002AC2C4D0FCD0FC495E8030084E80300EC
:107FD00002A800F075FD9DF84730FBB91E4B1B68E9
:107FE00013F4804F03D01D4B1B68032B0ADC00F0F9
:107FF00091FDFFF767FFFFF7DFFE1F491F4801F004
:1080000055FCD5E7164BD3F804351D4A00924FF4C2
:10801000F0721549042007F0E9FDE8E70E4B1B68F4
:1080200013F4804F03D00D4B1B68032B02DC00F0D0
:10803000D3FCE2E70A4BD3F80435124A00924FF41E
:10804000F4720949042007F0D1FDF0E7C17D020078
:1080500021780200002E0020242E0020202E002057
:1080600000100140C4400400CE3C040094400400D1
:10807000783C04008041040009790200E97C020098
:10808000004104003841040000B583B01C4A0421BB
:108090004FF4C04007F08EFD1A4B1B6813F4804F5D
:1080A00003D0194B1B68032B11DC1BF063F9D0B90B
:1080B00001F0E0FD154801F011FED0B901F04EFECF
:1080C000FFF72AFF01F028FC03B05DF804FB104B1A
:1080D000D3F804350F4A009240F2F3120E490420FF
:1080E00007F084FDE1E70D4A40F2F51114F0F8FEC7
:1080F000DEE70A4A40F2F91114F0F2FEDEE700BFB3
:1081000089FB0200242E0020202E0020C97B0200C3
:10811000001001404C410400CE3C0400783C0400B7
:1081200008B5FFF7B1FFFFF777FEFFF739F9FCE776
:10813000184B1B781BB1174B01221A70704700B502
:1081400087B0154A03AB07CA03C323F8022B120CEE
:108150001A70124B009303AB114A1249124815F0E2
:1081600031FA68B9114816F081FF01460E4815F042
:1081700055FA50B9074B01221A7007B05DF804FB9D
:108180000B4A962114F0ACFEECE7094A972114F053
:10819000A7FEEFE754320020144804003D8402009B
:1081A0001C2F002058320020043100203C2F0020DA
:1081B000D442040038B52F4B5C68E56829462E4848
:1081C0001BF025FB30B9A37903F201300133A37111
:1081D000608038BD294629481BF019FB28B963790E
:1081E00003F2012001336371F2E7294624481BF0B2
:1081F0000EFB28B9E37903F201400133E371E7E7AD
:10820000294620481BF003FB38B9237A03EB4300CF
:1082100000F2015001332372DAE729461A481BF0B5
:10822000F6FA38B9637A03EB430000F201600133D8
:108230006372CDE7294615481BF0E9FA38B9A37AED
:1082400003EB430000F201700133A372C0E729463B
:108250000F481BF0DCFA28B9E37A03F6010001337A
:10826000E372B5E7237903F1400080000133237105
:10827000AEE700BF3C3200204043040060430400EE
:108280007C430400AC430400D4430400FC430400DA
:108290002844040030B58BB00446002303930493B4
:1082A00005930693079308938DF82430154D2B8979
:1082B000ADF81C30FFF77EFFADF822006B680DF1C2
:1082C0000C0C186959699A69DB69ACE80F000E4912
:1082D0000E4815F0B9F958B90123009303AB094AC8
:1082E000927A21460A4815F0B3F930B90BB030BD87
:1082F000084A8C2114F0F4FDEEE7064A8D2114F0B3
:10830000EFFDF3E73C3200201C2F00205832002004
:1083100004310020D442040000B583B0104B1B6828
:1083200013F4804F03D00F4B1B68032B06DC0E4861
:1083300015F03DFA70B903B05DF804FB0B4BD3F8B0
:1083400004350B4A00924FF4A3720A49042007F047
:108350004DFCECE7084A40F2471114F0C1FDEAE792
:10836000242E0020202E00203D8402000010014019
:10837000484404002A430400D442040000B583B0FA
:108380000C4B1B6813F4804F03D00B4B1B68032B63
:1083900004DC15F014FA03B05DF804FB074BD3F8C6
:1083A0000435074A00924FF4A6720649042007F0EC
:1083B0001DFCEEE7242E0020202E0020001001409E
:1083C0006C4404002A43040000B583B0134B5B687F
:1083D0005B78282B0AD0124B02221A70114B012213
:1083E0001A70FFF7A5FE03B05DF804FBFFF7C6FFA8
:1083F0000D4B1B6813F4804FF5D00C4B1B68032BFF
:10840000F1DD0B4BD3F804350A4A00924FF49D720C
:108410000949042007F0EAFBE5E700BF3C320020F1
:108420009832002038320020242E0020202E0020F8
:1084300000100140984404002A43040070B5C8B0FD
:10844000044603780A2B10D8DFE813F00B008402EF
:10845000BE000F000F000F000F005B020F00F901BC
:1084600077019C4B1B78012B01D048B070BD9A4B13
:108470001B6813F4804F03D0984B1B68032B5CDC04
:10848000E269137843B9944B1B6813F4804F03D00F
:10849000924B1B68032B52DC637D002BE5D08E4B87
:1084A0001B6813F4804F03D08C4B1B68032B7BDCC1
:1084B0008B4D6E6804F1160001F00EFAF0606B68E7
:1084C000DB68002BD1D0FFF759FF834B1B6813F4F7
:1084D000804F03D0814B1B68032B67DC7D4B03224D
:1084E0001A70201DFFF7D6FEBFE7E21812797D490A
:1084F0000D681009590015F800C007A800F813C04E
:1085000002F00F020131AA5C425401330F2BECD967
:1085100007AA00238DF83C3003F1804303F588332C
:10852000D3F804350292704A0192704A0092A82250
:108530006F49042007F05AFBA2E70023E6E76D4BE2
:10854000D3F8043592F90D2001926B4A0092AB22C8
:108550006749042007F04AFB9EE7E218927D6149D3
:108560000D68100959002E5C07A800F8136002F08E
:108570000F020131AA5C42540133032BEDD907AA43
:1085800000238DF8243003F1804303F58833D3F8BA
:1085900004350292594A0192544A0092B122544938
:1085A000042007F023FB83E70023E6E7514BD3F8D1
:1085B00004356A68D2680192514A0092B7224C4948
:1085C000042007F013FB89E7434B1B6813F4804F2B
:1085D00003D0424B1B68032B28DC3E4B1B78032B3C
:1085E00035D0022B7FF441AF3D4C626813780133E4
:1085F0001370E368984723699847374B1B6813F457
:10860000804F04D0354B1B68032B00F38380344B21
:108610005A685088D368019300240094234620327E
:10862000022101F0A1F82B4B1C701EE7314BD3F84F
:108630000435344A12780292264A12780192324A5C
:108640000092C0222A49042007F0D0FAC5E72D4B3A
:108650001B78EBB1204B1B6813F4804F03D01F4BEA
:108660001B68032B09DC1B4B01221A70254A137867
:10867000013B1370FFF750FEF7E61E4BD3F80435AD
:10868000224A0092C5221A49042007F0AFFAEAE70D
:10869000114B1B6813F4804F03D0104B1B68002B49
:1086A00006DC0C4B00221A700D4B5B699847DCE628
:1086B000104BD3F80435227A094949684988029158
:1086C0000192134A0092CC220949012007F08EFA48
:1086D000E7E700BF38320020242E0020202E0020A3
:1086E0003C320020282E0020F4440400683D0400A1
:1086F0002A43040000100140FC4404000845040023
:1087000014450400983200204045040088450400C8
:10871000AC4504009B4BD3F80435626851889A48F5
:10872000008803900291D2680192984A0092D82260
:108730009749042007F05AFA69E7964B1B6813F42F
:10874000804F03D0944B1B68032B4EDC934B0222CB
:108750001A70904B1B6813F4804F03D08E4B1B682C
:10876000032B4DDCE3688E49D88A0FF017FC0028F4
:1087700051D1E0688B4B19688B4BA2684988C08A3D
:1087800010F078F900284BD1874B188816F052FF6B
:1087900000284AD1824B1988834B188816F000FFB5
:1087A000002847D17B4B1B6813F4804F3FF45DAE2C
:1087B000794B1B68032B7FF758AE724BD3F8043507
:1087C000E268D28A77490968498877480088049026
:1087D00003917349098802910192744A0092FB2225
:1087E0006B49042007F002FA3FE6664BD3F80435E4
:1087F0006F4A0092E9226649042007F0F7F9A5E7DD
:10880000604BD3F804356B4A0092EE226049042095
:1088100007F0ECF9A6E7684AEF2114F061FBA8E73E
:10882000654AF12114F05CFBAEE7634AF72114F0CE
:1088300057FBAFE7604AF82114F052FBB2E7027A27
:10884000514B1A80102300220121406814F02FFFA1
:1088500000283FF40AAE4F4B1B6813F4804F03D03F
:108860004D4B1B68002B13DC544B1B784BB3494B0F
:108870001B6813F4804F03D0474B1B68032B14DC99
:10888000464B01221A704D4A1378013B1370ECE5F8
:108890003C4BD3F804350190494A009240F20F1244
:1088A0003B49012007F0A2F9DEE7364BD3F8043547
:1088B000444A00924FF489723549042007F096F932
:1088C000DEE7344B1B6813F4804F03D0324B1B6838
:1088D000032B06DC314B00221A70324B5B69984740
:1088E000C3E5284BD3F804352E4A526852880192CA
:1088F000354A00924FF48C722549042007F076F92E
:10890000E8E70DF11C0C314B0FCB8CE80F00102267
:108910006146606814F0D4FEB0B91E4B1B6813F4B6
:10892000804F3FF4A2AD1C4B1B68032B7FF79DAD1E
:10893000144BD3F80435264A009240F2271214490A
:10894000042007F053F990E51B4A4FF4937114F09B
:10895000C7FAE2E70F4B1B6813F4804F3FF485AD75
:108960000D4B1B68032B7FF780AD064BD3F8043506
:10897000184A00924FF496720549042007F036F920
:1089800073E500BF001001409A320020F04504005A
:108990002A430400242E0020202E002038320020FC
:1089A000162F00203C320020182F002078460400AB
:1089B0002C46040050460400D442040098320020A3
:1089C000BC460400EC460400FC460400AC4704002E
:1089D000644704008C47040030B589B00123069336
:1089E00006A90DF1160010F037F860BB069B012BAD
:1089F0002FD12C4C2568BDF816000FF0B7FC68800D
:108A000023685A884FF6FF739A4226D0254B1B687D
:108A100006AA191D588810F071FA10BB07A80FF0AC
:108A2000AFFA204B1968BDF81C0010F0AFF8F0B990
:108A30001D4B1B6813F4804F03D01C4B1B68032B8A
:108A40001BDC09B030BD1A4A4FF4AC7114F048FA7F
:108A5000CCE7784601F08CFACBE7784601F088FA4B
:108A6000D4E7134A4FF4AE7114F03AFAD6E7104A3D
:108A70004FF4B07114F034FADAE70E4BD3F8043542
:108A8000084A1268518890881288039202900191D6
:108A9000094A00924FF4B1720849042007F0A6F881
:108AA000CFE700BF3C320020242E0020202E0020E3
:108AB000D442040000100140C04704002A430400CF
:108AC00038B50446C36893B16369A3B12369B3B1F0
:108AD0000D4DA446BCE80F000FC59CE8030085E8D7
:108AE00003000023094A1370094A137038BD784601
:108AF00001F03EFAE8E7784601F03AFAE6E7784610
:108B000001F036FAE4E700BF3C3200205432002086
:108B10003832002010B584B0324BDB68039303A8D1
:108B20000FF0FAF9002835D12F4C60681021084465
:108B300005F056FA60681021203005F051FA60689F
:108B40001021303005F04CFA616822680232103191
:108B500000200FF0FFFC18BB244B1B6813F4804F60
:108B600003D0234B1B68032B20DC1F4B19685A686A
:108B70000B1D20324988002010F024F830BB1A4A1F
:108B8000136852683032598801200FF073FF18BB08
:108B900004B010BD174A4FF4BB7114F0A1F9C3E73C
:108BA000144A4FF4BF7114F09BF9D5E7124BD3F878
:108BB00004350D4A126852880192104A009240F220
:108BC0007F120F49042007F011F8CEE7094A4FF44D
:108BD000C07114F085F9D2E7064A40F2831114F00F
:108BE0007FF9D5E7144804003C320020242E0020F1
:108BF000202E0020D4420400001001400048040050
:108C00002A43040082B04FF6FF73ADF800300D4BDD
:108C10001B685B88ADF80230009B019300209DF833
:108C2000043063F307009DF8053063F30F209DF8CF
:108C3000063063F317409DF8073063F31F6002B0FE
:108C4000704700BF0C2E002010F0010F02D04CF234
:108C5000050070474CF20400704710F0010F02D07D
:108C60004CF2030070474CF20200704741F20323BC
:108C7000984264D015D941F2103398426BD8B0F5C0
:108C8000985F3AD3A0F59850102821D8DFE800F07B
:108C90005B431E4F51555320202020202020204B85
:108CA0004D0041F20703984218D8B0F5805F09D310
:108CB000A0F5805007280FD8DFE800F00C47292BDB
:108CC000330E2F3102283CD1264870472648704782
:108CD00026487047264870472448704741F20113E0
:108CE000984234D041F20213984201D12148704792
:108CF000B0F5885F2DD12048704741F20423984297
:108D00002BD041F20523984229D11C4870471C48BA
:108D100070471C4870471C4870471C4870471C48E7
:108D200070471C4870471C4870471C4870471C48D7
:108D300070471C4870471C4870471C4870471C48C7
:108D400070470A4870471B4870471B4870471B48CC
:108D500070470648704705487047194870470348F0
:108D6000704700BF94480400344804001C4A0400C3
:108D7000DC490400CC4904002C4A04003C4A0400AD
:108D8000644804007C480400BC480400DC4804003B
:108D9000F84804001C4904004449040054490400F4
:108DA0006C4904008049040098490400B849040053
:108DB00024480400A44804004C480400F44904007A
:108DC000084A040070B5054614460E4601B122B1AA
:108DD000044B5D801E705C6070BD784601F0C8F881
:108DE000F6E700BFA432002010B584B0424B5A8889
:108DF00082420ED148F21F03984240D035D848F243
:108E0000030398423DD048F2190398421AD10C78D6
:108E100046E03A4B1B6813F4804F03D0384B1B6875
:108E2000002B02DC022004B010BD364BD3F8043511
:108E300002900192344A0092F3223449012006F054
:108E4000D5FEEFE702282AD02C4B1B6813F4804F85
:108E500003D02B4B1B68002B15DC2D4A4FF4897176
:108E6000052014F03DF8FF241AE048F2250398424B
:108E700025D048F23E039842E6D10C7810E00C78F9
:108E80000EE00C780CE01F4BD3F80435214A009219
:108E900040F211121D49012006F0A8FEDDE7FF2473
:108EA000154B18780028BED0144B1B6813F4804F64
:108EB00003D0134B1B68032B03DC00230FE0FF24BC
:108EC000EEE7104BD3F804350194134A00924FF4A7
:108ED0008D720E49042006F089FEEEE70133064A42
:108EE00012789A4206D9044A5268D25CA242F5D15D
:108EF000002098E7012096E7A4320020242E0020CD
:108F0000202E002000100140B04A0400A24A0400B4
:108F10004C4A0400DC4A0400FC4A040030B583B02B
:108F20000446094A012148F23E00FFF74BFF074B78
:108F30001D88FFF767FE024601902946204616F07D
:108F400071FC03B030BD00BFEC4E04009C32002029
:108F500070B5044615461E460180104604F098FA86
:108F60002071E580104B1B88A3810023A373282266
:108F7000E273267401256574A374FFF743FEE07461
:108F8000C0F307232375C0F307436375C0F307607D
:108F9000A075064A294648F21900FFF713FF20463C
:108FA00016F0C6FB70BD00BF9C320020E84E0400E6
:108FB00030B585B00446084601AD00230193029305
:108FC000ADF8061004F064FA8DF80400084A012197
:108FD00048F21F00FFF7F6FEFFF714FE034603906A
:108FE00095E80600204616F0BDFB05B030BD00BF79
:108FF000E44E040010B50A4B1B7863B1084C23788B
:10900000013B04F8043B04F0B1FE0649014420464C
:1090100004F078FE10BD784600F0AAFFEEE700BF2E
:10902000BC320020404B4C0008B5034804F052FE0F
:10903000024B034A1A6008BDC03200200C2E0020EB
:10904000B050040008B5FFF7EFFF024B1B689847CC
:1090500008BD00BFB0320020F0B58BB0914B1A684C
:109060001378013B482B00F24982DFE813F0BD0082
:10907000490073009800C700C700C700C700C700B9
:10908000C700C700C700C700C700C700C700C700A8
:10909000C700C700C700C700C700C700C700C70098
:1090A000C700C700EA003D017901B30117023D0185
:1090B0007901B30117023D017901B30117023D01A6
:1090C000B3013D01B3013D01B3013D01B3013D01D8
:1090D000B301E5013D01B3013D01B3013D01B30120
:1090E0003D01B301790117023D01B3013D01B30117
:1090F00079011702790117023D01B3013D01B30166
:10910000694B1B6813F4804F03D0684B1B68032B1B
:1091100014DC002016F0A4FA0446002211460220B6
:10912000FFF750FE44B116F087FB614B1B78002B14
:1091300000F0EB81FFF75EFF0BB0F0BD5D4BD3F8A5
:1091400004355D4A00924FF4D7725C49042006F062
:109150004DFDDEE7544B1B6813F4804F03D0534B97
:109160001B68032B0BDC0121022016F025FB0446B3
:109170000022114648F22500FFF724FED2E74D4BAE
:10918000D3F8043501220292022201924C4A009245
:1091900040F2B7124949042006F028FDE3E7424BAC
:1091A0001B6813F4804F03D0404B1B68032B0FDC6C
:1091B000444B1A68444B1988444B188816F074FACB
:1091C0000446434A022148F20300FFF7FBFDA9E7EA
:1091D000384BD3F804353F4A00924FF4E1723749D7
:1091E000042006F003FDE3E73B490B8801330B80C5
:1091F00004322C4B1A60FFF72FFF9DE72A4B1B68A8
:1092000013F4804F03D0294B1B68032B05DC324B32
:109210001888FFF783FE044684E7264BD3F80445FD
:109220005088FFF723FD2C4B1B88029301902B4B9A
:10923000009323464FF4F6722049042006F0D6FC32
:10924000E5E7002304930593069307930893099396
:10925000234B1B7801222049098804A8FFF778FED8
:109260000446114B1B6813F4804F3FF45BAF0F4B68
:109270001B68032B7FF756AF0E4BD3F80455094BF1
:109280001B685888FFF7F2FC012302930190154BED
:1092900000932B4640F2FF120849042006F0A6FC7A
:1092A00040E700BF0C2E0020242E0020202E00209E
:1092B000BC32002000100140184B0400A24A0400F8
:1092C000344B0400D83200209C320020AC32002005
:1092D000F04E0400644B04009E320020744B0400E6
:1092E000E04E0400A04B0400002304930593069372
:1092F000079308930993864B1C88864B1888FFF7C1
:10930000A3FC02464FF00003214604A8FFF720FE0D
:109310000446814B1B6813F4804F3FF403AF7F4B2F
:109320001B68032B7FF7FEAE7D4BD3F80465794BAA
:109330001888FFF789FC05467A4B1B685888FFF7A9
:1093400095FC734B1B88039302900195764B009319
:10935000334640F225227549042006F047FCE1E639
:109360000023049305930693079308930993684B8E
:109370001C882046FFF771FC02464FF0000321468F
:1093800004A8FFF7E5FD0446634B1B6813F4804F08
:109390003FF4C8AE614B1B68032B7FF7C3AE604B35
:1093A000D3F804755A4B1E883046FFF756FC054625
:1093B0005C4B1B685888FFF759FC03960290019597
:1093C000594B00933B464FF410725849042006F065
:1093D0000DFCA7E64E4B1C884E4B1888FFF73DFC52
:1093E00001462046FFF7E4FD04464B4B1B6813F48F
:1093F000804F3FF497AE494B1B68032B7FF792AE2B
:10940000474BD3F80465434B1888FFF726FC054605
:10941000444B1B685888FFF729FC3D4B1B8803937E
:1094200002900195424B0093334640F25A223F4945
:10943000042006F0DBFB75E6354B1C88354B18889D
:10944000FFF702FC01462046FFF7B2FD0446324B0F
:109450001B6813F4804F3FF465AE304B1B68032B41
:109460007FF760AE2E4BD3F804652A4B1888FFF7C0
:10947000EBFB05462B4B1B685888FFF7F7FB244B8B
:109480001B88039302900195294B0093334640F2C9
:1094900065222649042006F0A9FB43E61C4B1C88E4
:1094A0002046FFF7D1FB01462046FFF781FD044629
:1094B000194B1B6813F4804F3FF434AE174B1B68F5
:1094C000032B7FF72FAE164BD3F80475104B1E8875
:1094D0003046FFF7B9FB0546124B1B685888FFF76B
:1094E000C5FB039602900195114B00933B4640F259
:1094F00075220E49042006F079FB13E60D4A40F26E
:109500007D21052013F0ECFC0DE6FFF79BFD13E633
:109510009E320020A0320020242E0020202E002089
:10952000001001400C2E0020D04B0400A24A040081
:10953000184C04004C4A040008B5FFF78DFD08BD27
:1095400008B5FFF771FD024B1B68984708BD00BFC7
:10955000B432002000B583B01C4B1B681A789AB156
:109560004A2A11D041680088FFF73EFC28BB174A01
:109570001368191D1160164A032111701B794A2BBB
:1095800018D0FFF769FD1AE0124B1B6813F4804FE7
:1095900015D0114B1B68012B11DD104BD3F804358E
:1095A00001920F4A009240F2AB220E49022006F0CF
:1095B0001DFB04E0FFF7C4FF01E0012802D003B067
:1095C0005DF804FBFFF73EFDF9E700BF0C2E00201D
:1095D000BC320020242E0020202E0020001001404C
:1095E000604C0400A24A040000B589B04FF6FF7336
:1095F000ADF81E30ADF81C3001238DF81430ADF8F5
:1096000016000DF11E0105A80EF07CFEE8B907A9B1
:10961000BDF816000FF0BAFAE8B9BDF81C0016F054
:1096200009F8F0B9BDF81E10BDF81C0015F0B8FF20
:10963000E8B91B4B1B6813F4804F03D0194B1B6810
:10964000032B1ADC09B05DF804FB174A40F29D2198
:1096500013F046FCDBE7144A40F29E2113F040FC75
:10966000DBE7114A40F2A12113F03AFCDAE70E4A97
:1096700040F2A22113F034FCDBE70C4BD3F80435A5
:10968000BDF81E200292BDF81C200192084A0092EB
:1096900040F2A3220749042006F0A8FAD2E700BF4F
:1096A000242E0020202E00204C4A040000100140EF
:1096B000944C0400A24A040030B583B0002837D18E
:1096C000224B1B6813F4804F03D0214B1B68032BE4
:1096D00013DC204B1B8843B31C4B1B6813F4804FD7
:1096E00003D01B4B1B68032B13DC1A4A1388013B66
:1096F0001380FFF7B1FC03B030BD174BD3F804352E
:10970000164A009240F2D3221549042006F06EFA60
:10971000DFE7114BD3F80435124A009240F2D7220A
:109720000F49042006F062FADFE7FFF78BFCE2E75F
:109730000C4615460228DED121B129462046FFF706
:1097400009FFD8E7784600F013FCF6E7242E002046
:10975000202E0020B832002000100140CC4C040024
:10976000A24A0400F84C040030B583B0079D3E4C7B
:1097700024682478B4B93D4C20803D4C20803D487D
:1097800001803D493D48C860032008703C490A609B
:109790003C4A1380BDF818203B4B1A800024324B02
:1097A0001C6015E0394B1B6813F4804F32D0384BE6
:1097B0001B68002B2EDD374BD3F80435364A009258
:1097C00040F2EF223549012006F010FA22E0013480
:1097D0000E2C0DD8324B53F8341028461AF017F8D7
:1097E0000028F4D12E4B03EBC40462681E4B1A60B0
:1097F0001D4B1B6883B1254B1B6813F4804F03D0AE
:10980000234B1B68032B20DC184B1888FFF7ECFE5A
:10981000FFF722FC03B030BD1C4B1B6813F4804FD4
:1098200003D01B4B1B68002B03DC784600F0A0FB29
:10983000E1E7184BD3F804351A4A009240F2073298
:109840001649012006F0D2F9EFE7124BD3F80435A0
:10985000064A12880192144A009240F20B320F49D4
:10986000042006F0C3F9CFE70C2E0020A032002020
:109870009E320020B8320020BC3200203995020010
:10988000D83200209C320020AC320020242E002050
:10989000202E002000100140044D0400A24A0400C4
:1098A00024530400384D0400644D040038B50C46C0
:1098B000054628B144B1064B1D60064B1C6038BDFF
:1098C000784600F055FBF5E7784600F051FBF2E7EB
:1098D000B4320020B032002070B584B006460024B7
:1098E0000E2C12D80B4B53F83450284619F0B6FF03
:1098F0006A4681B2284605F033FA042269463046AA
:1099000019F0F2FE10B10134EAE70025284604B050
:1099100070BD00BF2453040070B598B0002401E06E
:109920000134E4B20E2C27D82F4B53F8345028467C
:1099300019F094FF14AA81B2284605F011FA149A7E
:1099400018AB03EB840343F84C2C284B1B6813F42F
:10995000804FE5D0264B1B68062BE1DD254BD3F865
:10996000043502920195244A009240F2353223498F
:10997000072006F03BF9D3E700252DE00134E4B2DF
:109980000E2C28D818AB03EB850353F84C2C18ABDE
:1099900003EB840353F84C3C9A42EFD1134B1B6802
:1099A00013F4804FEAD0124B1B68002BE6DD114BFD
:1099B000D3F8043503920C4A52F83400029052F85E
:1099C000352001920E4A009240F23F320B490120AD
:1099D00006F00CF9D2E735460D2D03D86E1CF6B211
:1099E0003446CDE718B070BD24530400242E002067
:1099F000202E002000100140804D0400A24A0400E7
:109A0000A44D040008B5064B1B681BB906E0044BC7
:109A10001B68984711F07AFA0028F8DA08BD00BFF1
:109A2000DC32002010B50C46134B1860134A01219C
:109A3000134819F0D9FC98B9610CE00341F2707336
:109A4000984271F1000310D34FF47A72002319F099
:109A500043FD014600220B4819F0DCFC38B910BD6B
:109A6000094A4A2113F03CFAE6E70521F2E7064AE3
:109A70004B2113F035FAF2E7DC320020059A0200A0
:109A80009C540400E03200203C54040070B50546AC
:109A9000002403E00D4A93420ED80134032C14D85D
:109AA0000B4B1B5DAB42F8D10A4B1E6804F05EF90C
:109AB000331AEFD5831BEDE704F058F9054B186016
:109AC000054B1B6820469847E7E770BD801A0600E3
:109AD000A85404002C330020283300201F280CD960
:109AE00000F01F00064BD3F8043523FA00F010F005
:109AF000010F0CBF0120002070474FF0A043F2E798
:109B00000003005070B505460024264600E00134ED
:109B1000032C0AD80123A3402B42F8D0044B185D34
:109B2000FFF7DCFFA0400643F1E7304670BD00BF01
:109B3000AC54040008B511B112F09CFD08BD12F040
:109B400089FDFBE770B50546002400E00134032CD5
:109B50000FD80123A3402B42F8D0064B1E5D3046A0
:109B6000FFF7BCFF80F00101C9B23046FFF7E2FF0A
:109B7000ECE770BDAC54040010B5144B1B684BB13E
:109B8000134B1868FFF7DEFF104B1C68013C1C608C
:109B900024B110BD002013F095F9F1E70D4819F03C
:109BA0005BFC00E00134032CF3D80123A340084AF6
:109BB00012681342F6D0084B1968E14001F0010128
:109BC000064B185DFFF7B6FFECE700BF003300203F
:109BD000043300200833002030330020AC5404004C
:109BE00070B505460E46002400E00134032C09D868
:109BF0000123A3402B42F8D03146034B185DFFF7F9
:109C000099FFF2E770BD00BFAC54040042B310B539
:109C10000C461346132900D810BD124A10605B0091
:109C2000013B114A1360FFF76DFF104B1860610C88
:109C3000E40314F5FA704FF47A724FF0000341F127
:109C4000000119F049FC01460022094819F0E2FB25
:109C50000028E1D10121034B1868FFF7C1FFDBE7C2
:109C6000704700BF04330020003300203033002051
:109C70000833002010B582B012F068FC40B1002417
:109C8000ADF804408DF8064001238DF8053007E05B
:109C900012F00CFC0028F2D013F014F9EFE70134B5
:109CA000032C09D801A90A4B185D12F059FC0028B1
:109CB000F5D013F007F9F2E7064A0121064819F03A
:109CC00093FB08B902B010BD13F0FCF8FAE700BF2F
:109CD000AC540400799B0200A454040060B310B596
:109CE00082B0164A106012F031FC40B1144B1B6870
:109CF000ADF804301B0C8DF8063000240CE012F097
:109D0000D5FB0028F2D013F0DDF8EFE701210D4B71
:109D1000185D12F039FD0134032C0AD80A4A01A952
:109D2000084B185D12F0B6FC0028EFD013F0CAF80B
:109D3000ECE7002002B010BD0E2070472833002051
:109D4000A0540400A85404008D9A020060DF7047FC
:109D500069DF704708B503F025FD08BD10B588B070
:109D600012F0F2FE00282CD1224B0793079A06929C
:109D7000002303930493059303A90120FFF7E8FF51
:109D800010BB0023039304930593F8230393069ACF
:109D900003A9A120FFF7DCFFC8B906A8FFF7D6FF8B
:109DA0000446069A079B9A4208D0134B1B6813F48B
:109DB000804F03D0114B1B68012B0BDCB4B908B0EA
:109DC00010BD13F07FF8CFE713F07CF8D9E713F05C
:109DD00079F8E2E70A4BD3F804350192094A009278
:109DE000AB220949022005F001FFE7E7204613F006
:109DF00069F8E4E7002E0020242E0020202E002009
:109E0000001001401C550400015504000620704755
:109E100000B587B044F2010398425DD01BD80128F9
:109E200036D041F20103984271D1474B1B6813F4BD
:109E3000804F36D0454B1B68002B32DD444BD3F8A6
:109E4000043502920191434A009263224249012063
:109E500005F0CCFE25E044F20203984257D13A4B7C
:109E60001B6813F4804F1CD0384B1B68002B18DD87
:109E7000374BD3F804351068039052680292019171
:109E8000364A009269223449012005F0AFFE08E00D
:109E90002D4B1B6813F4804F03D02C4B1B68002BF9
:109EA0000DDC4FF0A0434FF4F032C3F81825C3F88F
:109EB0000C25EFF3108372B64DF6AD6C3DE0244BEC
:109EC000D3F8043502920191254A0092602222497A
:109ED000012005F08BFEE4E71B4B1B6813F4804F59
:109EE000DFD01A4B1B68002BDBDD194BD3F8043590
:109EF0001068049050680390029192680192194A88
:109F0000009273221449012005F070FEC9E70E4B40
:109F10001B6813F4804FC4D00C4B1B68002BC0DDB2
:109F20000B4BD3F8043501910F4A00927B220A496A
:109F3000012005F05BFEB4E730BF0C4B1B78002B13
:109F4000FAD107B05DF804FB242E0020202E00205B
:109F500000100140D8550400A9550400FC55040028
:109F6000BC5504001C56040040560400102E00206E
:109F700000B583B0014600230093054B01936A4668
:109F800044F20200FFF744FF03B05DF804FB00BF9A
:109F90004C3E040010B40346044C006859689A68AB
:109FA000DB680FC45DF8044B704700BF34330020FA
:109FB0000E4B4FF0805202F1600103C983E80300A9
:109FC00003F1080CA43292E803008CE8030093F933
:109FD000062002F00F0242F040029A7193F9082025
:109FE00002F03F0242F080021A72704734330020C0
:109FF0000048704734330020002308E0074901EB94
:10A00000C30000224280426001F8332001331F2B3D
:10A01000F4D9034B00221A60704700BF443300207C
:10A020004434002000B58646114B1B684FF0000CED
:10A030000BE01F230F4A12F83300B0B102EBC3024A
:10A040005288724509D00CF1010CBCF11F0F0BD8DE
:10A050005A1E002BEDD01346ECE7064A02EBC30272
:10A0600052688A42EFD100E000205DF804FB00BF97
:10A07000443400204433002010B40B4A13680B4CC6
:10A0800004EBC30CACF80200CCF80410012104F876
:10A0900033100B441360202B02D05DF8044B704743
:10A0A000134600221A60F8E74434002044330020AD
:10A0B0000021072918D830B402E00131072910D84F
:10A0C0004FEA011C094C34F80CC08445F5D104EB6F
:10A0D0000114A568E4689C4208BF9542EDD10120B7
:10A0E00000E0002030BC704700207047483400205A
:10A0F00030B4C3698469C1884FEA132C1B06C4F3CA
:10A100000C028A4218D28A1A2244A2F500529A18E6
:10A110004CF100010A4C23685D1C256003F0070325
:10A12000B0F814C007481C0100EB031320F804C06A
:10A130009A60D96030BC70478A1A2244E7E700BFB2
:10A14000C834002048340020C37D9BB1C3780A780E
:10A1500002F080020A7003F07F0313430B70027851
:10A160000B7803F07F030B7043EAC2130B70037884
:10A170009BB97047C3780A7802F0BF020A709B014E
:10A1800003F0400313430B70027903F0C0030B701C
:10A1900002F03F0213430B70E1E700B58378082B10
:10A1A00014BF002201224B7803F07F034B7043EA77
:10A1B000C2134B70B0F806E0DAB202F080024A70C7
:10A1C000CEF3861C4CEA02024A708B7803F003033C
:10A1D0008B7043EA8E038B7090F808E0DAB202F0DD
:10A1E000FC028A70CEF3C10C4CEA02028A70CB7872
:10A1F00003F01F03CB7043EA4E13CB70437ACA7847
:10A2000002F0E002CA7003F01F031343CB705DF845
:10A2100004FB00000023032B31D810B402E001330B
:10A22000032B28D8C3EBC302164C04EB021292F89E
:10A230004820012AF3D1C3EBC30204EB0212948A33
:10A24000C2899442EBD1C3EBC3020E4C04EB021261
:10A25000D2888A42E3D1C3EBC30204EB0212B2F804
:10A26000582012B1848AA242D9D1C3EBC303054856
:10A2700000EB031000E000205DF8044B7047002065
:10A28000704700BFF4340020002300E00133032BAB
:10A2900016D8C3EBC3020B4901EB021292F8482017
:10A2A000022AF3D1C3EBC30201EB0212918A828A24
:10A2B0009142EBD1C3EBC303024800EB031070479C
:10A2C00000207047F434002008B9042070470820AB
:10A2D000704700B503468C460978C1700021416281
:10A2E000DCF808100B2904D89CF80C1029B30121C4
:10A2F00000E0012119700020987031B1DCF80810DD
:10A300000731C9080139597218720121D97503F151
:10A310000C0E0CF1100103C98EE80300BCF80E10FE
:10A320009982DCF8181019629CF81C109975DCF8F9
:10A330002010D9629A625DF804FB0021DAE7000080
:10A3400000210E4B1B688B4216D9002300E001331D
:10A350000B4A02EBC10252689A420BD9084A52F8E2
:10A36000312002EBC30C12F833208242EFD1DCF82B
:10A37000040070470131E4E700207047CC3400202E
:10A38000D034002070B58CB006460D4614462C2201
:10A39000002101A819F008FA0F238DF80430ADF858
:10A3A00008609DF80A3065F300038DF80A308DF8D7
:10A3B0000B4001A801F014FA0CB070BD30B58DB09F
:10A3C00005460C462C22002101A819F0EDF91023B6
:10A3D0008DF8043002958DF80C4001A801F000FAC8
:10A3E0000DB030BD00B58DB010B913F1020F06D11C
:10A3F000074B186804F0D8FA0DB05DF804FB012192
:10A400008DF804100293039201A801F0E9F9EFE737
:10A41000D834002070B5049C002962D01D468E46B9
:10A42000D2F800C051689668D368C4F80CC02161A6
:10A430006661A361D2F810C05169C4F81CC02162E2
:10A44000002363700278D20922705AB30423734543
:10A4500049D8E17D41B3037803F07F03E370002323
:10A46000A3709AB143789B0103F4FE53827843EAC8
:10A470009203E3808378DB0003F01803C27843EA99
:10A4800052132372C37803F01F03637200236362C5
:10A490002B78032B21D82A78144B53F82230E3620F
:10A4A000002070BD0123D2E70178C1F38011E17073
:10A4B000017801F03F01217142B190F90130002B88
:10A4C00002DB0423A370CCE70823FBE70421A1707F
:10A4D0000B447345C5D90920E3E77846FFF748FDEB
:10A4E000D9E70920DDE70920DBE700BFFC570400BE
:10A4F00070B50C461D4603789BB104263244A26019
:10A5000000F10C032360836A6360C36AE360002385
:10A510002374204604F0BCFD10B963691E442E600C
:10A5200070BD0126EAE72DE9F0418EB00D461646D2
:10A530001C46804600282DD0002D2FD0002C31D075
:10A54000636A0233059304F10C00E378002B2DD0ED
:10A550000121A27801AF3B46082A14BF0022012244
:10A5600004F06FFB0697CDF81C80B2B2ADF8202046
:10A570000B9515440C95A3788DF83430237B022B72
:10A5800016D00023ADF8283005A804F052FB0EB019
:10A59000BDE8F0817846FFF7EBFCCDE77846FFF7A2
:10A5A000E7FCCBE77846FFF7E3FCC9E70221D0E7F9
:10A5B00023692BB1236909931023ADF82830E3E711
:10A5C0007846FFF7D5FCF5E72DE9F04188B0044661
:10A5D0000D46C37D002B3CD0082605FB06F8637AA8
:10A5E000AB4238D0257201AB324602A92046FFF7B4
:10A5F0007FFF074648BB4DB994F8533033B9A36980
:10A60000C3F30C03E380012384F85330E37D7BB96B
:10A6100094F8523063B91DBBE06EB4F84A10A278CA
:10A6200023468A1A0146FFF77EFF012384F8523041
:10A6300007992046FFF788FDE16E324641440198B4
:10A6400019F089F802A804F049FD384608B0BDE8C1
:10A65000F0810C26C1E7B4F84A60A6EB0806C1E712
:10A660007846FFF785FCD7E770B505460E4609B179
:10A6700000230B6095F85040002104E0631C85F82E
:10A6800050300134E4B26B7AA34210D3EA6C012358
:10A69000A3401A42F5D121462846FFF795FF01460F
:10A6A00028B9002EEAD0336801333360E6E7084664
:10A6B00070BDF0B589B004460E46154683789A18E9
:10A6C000C37D63B10B239A4221D801AB02A9204676
:10A6D000FFF70EFF074620B1384609B0F0BD0F2343
:10A6E000F1E707992046FFF72FFDE37D43B12A46A6
:10A6F0003146019819F02FF802A804F0EFFCEBE7BF
:10A7000023462A4601993046FFF70DFFF4E7092753
:10A71000E2E7000010B5044690F84830012B0CD158
:10A7200003F024FB237B012B0BD0094BD968014498
:10A7300004F1300003F0E6FA10BD7846FFF718FC8C
:10A74000EEE7A27D024BD9681B6903FB0211EEE71D
:10A75000DC34002030B583B0002403E02846FFF746
:10A76000D9FF0134032C18D8C4EBC4030C4A02EB04
:10A77000031393F84830012BF3D100230193C4EB6A
:10A78000C40502EB051501A92846FFF76DFF042853
:10A79000E4D0019B002BE4D0E0E703B030BD00BF64
:10A7A000F434002038B5044690F84830022B09D123
:10A7B000064B1D6803F0DAFA411904F1300003F08A
:10A7C000A1FA38BD7846FFF7D3FBF1E7DC3400206F
:10A7D00038B5044690F84830022B10D10A4B5A7D08
:10A7E0005D689B6803FB025503F0C0FA411904F150
:10A7F000500003F087FA012384F8683038BD7846AA
:10A80000FFF7B6FBEAE700BFDC34002010B50446D2
:10A81000808A02F03DFE01281CD1237BE3B194F92C
:10A820001620002A1ADBE27D4AB1022B18D094F9D7
:10A830000330002B16DBA378B3B900200BE0E278DD
:10A840000AB9012B12D1237893B9A378042B11D123
:10A85000002000E0102010BD1020FCE70720FAE7E0
:10A860001020F8E70720F6E70720F4E70720F2E7D3
:10A870000020F0E70720EEE738B5044603784BB137
:10A88000C388C2698169808A06F0FEFC054645B925
:10A89000284638BDC2698169808A06F0EFFC05460A
:10A8A000F5E7E169002201F00101A08AFFF76AFDE6
:10A8B000EEE700002DE9F04780460E4617464B1E96
:10A8C000DBB2012B0FD8B7F5C07F10D80024032CC2
:10A8D0001AD8C4EBC403314A02EB031393F848308F
:10A8E0004BB10134F3E77846FFF742FBEBE77846DC
:10A8F000FFF73EFBEAE7C4EBC40502EB051538465B
:10A9000009F01DF8E86600E000255DB3EB6E002B52
:10A9100042D043462C4608F1300ED3F800C05868A8
:10A920009968DA68C4F800C06060A160E260103322
:10A9300010347345F1D10023EB64A5F84A70012E61
:10A9400013D06FF00103AB62002385F86830144B1D
:10A95000AB652D66134BAB632D64012002F048FA02
:10A9600085F848602846BDE8F0870F4B1B7D85F8C9
:10A970005130002385F8523085F8533085F8503037
:10A98000D8F828206A65A5F858306FF00103AB624B
:10A99000064BAB632D64E0E71D46E3E7F43400208B
:10A9A000EFB3020001AD0200DC3400204DAD020027
:10A9B00000B585B000228DF80F20A0B10B460246ED
:10A9C00002320A600DF10F01184604F036F99DF8C5
:10A9D0000F3043B10C4B1B6813F0040F03D00B4B2B
:10A9E0001B68032B04DC9DF80F0005B05DF804FB29
:10A9F000074BD3F80435074A009240F21542064946
:10AA0000042005F0F3F8EEE7242E0020202E00208D
:10AA100000100140B4560400A75604002DE9F0438D
:10AA200091B005460E4614461F46D0F818800378AC
:10AA30004BB1C388C8F30C029A4230D29B1A4344EC
:10AA4000A3F50053AB6105F10C00EB7853B3012182
:10AA5000AA780DF130094B46082A14BF00220122C2
:10AA600004F0EFF8C5F81880CDF810900596AB7893
:10AA7000E21A92B2ADF8182032440A9209978DF882
:10AA80002C300023ADF82030EB78002B41D02B7B0D
:10AA9000022B09D000236B620193029316E09B1AEC
:10AAA0004344CFE70221D3E71023ADF820302B69D0
:10AAB0000793EFE710AB03EB840454F83C3C6B6264
:10AAC000002011B0BDE8F083019BB3B102AB01AA35
:10AAD0002979286A0EF0C2FA0024012CF4D810ABB0
:10AAE00003EB840353F83C0C0028EDD003A9FFF7D7
:10AAF0005FFF0028DED10134EFE72B7B022B2CD146
:10AB000005F10C01E8890EF063FB0028BFD1052098
:10AB1000D7E72B7B012B01D00520D2E7EB89ADF8DD
:10AB20000430AB8AADF806300024012C13D8294636
:10AB3000002341F8243F10AB03EB440333F83C0CF3
:10AB40000EF0B1FA03A9686AFFF732FF08B90134C1
:10AB5000EBE70020B5E70520B3E70520B1E70000EB
:10AB600070B5F0B00E4614461D4610AB0A460146BD
:10AB70002046FFF753FF50B1224B1B6813F0040F20
:10AB800003D0214B1B68052B2FDC70B070BD204615
:10AB9000FFF772FE0028F8D103AB01228DF80C20DC
:10ABA000A28AADF80E20002204928DF8142010AA7B
:10ABB0000692A178711AADF81C1008AA93E8030058
:10ABC00082E803000AAB04F10C0292E8030083E878
:10ABD0000300A37D8DF83830236A0C93636A0D93CC
:10ABE0000F9505A800F0FCFDCFE7084BD3F804351E
:10ABF000074A009240F203720649062004F0F6FF6D
:10AC0000C3E700BF242E0020202E002000100140AA
:10AC1000C8560400A756040010B50446C06E08F0DC
:10AC200092FE04F1300003F055F894F84830022BFE
:10AC300008D070220021204618F0B6FD002002F056
:10AC4000D7F810BD04F1500003F044F8F1E710B557
:10AC50008CB0044690F84830012B0FD101238DF8B9
:10AC60000430636D029303F081F8039001A800F0B3
:10AC7000B7FD2046FFF7D0FF0CB010BD7846FFF7B8
:10AC800077F9EBE730B585B00D460446A8B194F8E6
:10AC90004830022B15D02946606DFFF78FFB204608
:10ACA000FFF7BAFF114B1B6813F0040F03D0104BD2
:10ACB0001B68032B09DC05B030BD7846FFF758F957
:10ACC000E5E72046FFF714FAE5E70A4BD3F8043529
:10ACD00094F8482002950192074A009240F2F3123C
:10ACE0000649042004F082FFE5E700BF242E00207F
:10ACF000202E002000100140F4560400A756040046
:10AD000008B508460021FFF7BDFF08BD08B5037B65
:10AD1000012B02D0FFF79BFF08BD0121FFF7B2FF17
:10AD2000FAE7000008B590F8513053B1013B80F8C4
:10AD30005130002380F85030034B186803F034FE84
:10AD400008BDFFF7E3FFFBE7D834002010B50C4641
:10AD500091F84830012B03D12046FFF7E3FF10BDE7
:10AD60007846FFF705F9F7E770B5C6B00E46154609
:10AD700082782A44C37D2BB14FF48073934278D3F9
:10AD8000002303E04FF4C073F8E70133032B14D81A
:10AD9000C3EBC30C394C04EB0C1C9CF84810012984
:10ADA000F3D1BCF81440818A8C42EED1BCF80E403D
:10ADB000C1898C42E9D1082554E00121FFF77AFDD1
:10ADC0000446002857D02A463146C06E18F0C3FC0E
:10ADD0000023459345A92046FFF746FC054608B1E8
:10ADE000042842D1459B8BB9254B1B6813F0040FF7
:10ADF00037D0244B1B68032B33DDB4F84AC0BCF1B9
:10AE0000800F28BF4FF0800C002313E02046FFF78F
:10AE100081FCE9E7E26ED25C1B490D68100959001C
:10AE20002E5C04A800F8136002F00F020131AA5C46
:10AE3000425401336345EDD304AA002302F81C30C9
:10AE400003F1804303F58833D3F8043502920F4AA7
:10AE500001920F4A00924FF4AC620E49042004F0B4
:10AE6000C5FE0025284646B070BD2046FFF7D4FE3B
:10AE7000F8E70925F6E70425F4E700BFF4340020DD
:10AE8000242E0020202E0020282E002018570400F9
:10AE9000683D0400A756040070B504460D461646EA
:10AEA000FFF7B4FC30B923782BB13246294620464F
:10AEB000FFF75AFF70BD324629462046FFF7F9FBDF
:10AEC000F8E7000038B504460D46CB695B7803719E
:10AED000CB691B7883F00103C370CB6943628B8A13
:10AEE0000B2B07D8CB7A002B35D10B7B012B02D053
:10AEF000002300E001232370002B31D0287B02289F
:10AF00002BD0FFF7E1F9A070AB8A03440B33174A4B
:10AF100082FB03235B10013B637200232372002337
:10AF2000E37504F10C0395E8030083E80300AB69C3
:10AF300023622B89A382AB7AA3752B6AA362DF23DA
:10AF4000E36228460EF072F920B12B78012B0AD06B
:10AF5000FF23E36238BD0123CDE7054B987DD0E7A1
:10AF60000423A370DBE72023F3E700BFABAAAA2AE0
:10AF7000DC340020062979D1F0B585B0154690F86B
:10AF800000C04FEA8C1202F4FE5241788478C378F4
:10AF90001B0443EA0463047943EA042344791C4311
:10AFA0004FFA8CF642EA91012846FFF733F907463B
:10AFB000E0B1002E2FDBC289A98A8A422BD02C4B0C
:10AFC0001B6813F0040F30D02A4B1B68012B2CDDBB
:10AFD000294BD3F8043502910192284A009240F29D
:10AFE0007D622749022004F001FE1EE0204B1B6811
:10AFF00013F0040F19D01F4B1B68012B15DD1E4BDE
:10B00000D3F804351F4A009240F279621C490220AD
:10B0100004F0ECFD09E0002E09DBFD6C2543FD6426
:10B020004CB903213846FFF72DFE05B0F0BDAB8AC1
:10B03000A7F85830F1E73B7883B17B7A5A1C01239B
:10B040009340013B9D420DD0002187F850103846B7
:10B05000FFF70AFB3846FFF75DFBE6E77846FEF7A9
:10B0600087FFEAE73846FFF7F2FDDEE7704700BFEB
:10B07000242E0020202E00200010014058570400EC
:10B08000A7560400285704002DE9F0438BB007466B
:10B090000E4614461D461046FFF7EEFB50B994F8D5
:10B0A0000380B8F1000F08D12B46224631463846BE
:10B0B000FFF760FF0BB0BDE8F0834046FFF740F9B3
:10B0C00081460028F6D08DF80480236A0793A38A6E
:10B0D000ADF8123005AB04F10C0292E8030083E8EE
:10B0E0000300A37D8DF820300297039623788DF816
:10B0F0001030E36A0993294601A8C847DAE792F8B5
:10B1000001C01CF0010F08D010B5D47D14B1FFF7B9
:10B11000BBFF10BDFFF724FDFBE7704708B5013901
:10B120000130FFF7ECFF08BD10B54FF4E0720021CD
:10B13000134818F039FB06F073F80024114B1C601B
:10B1400080222146104818F02FFB104B104A1A603D
:10B15000104A5A604CF250329A600F49D9601A6115
:10B1600004221A759C7508225A750C4803F0FCFBE2
:10B170000B4B18600B4B1C600B4806F04FFB10BDCF
:10B18000F4340020C834002048340020DC3400208F
:10B1900080969800F049020020A10700E1B3020068
:10B1A000D8340020CC340020E5A3020008B506F016
:10B1B00057F808BD98B110B58CB00446036983B147
:10B1C000C36983B1836983B101466846FFF77AFE9C
:10B1D000A28A21696846FFF75FFE0CB010BD0E2001
:10B1E00070470E20F9E70E20F7E70E20F5E7000084
:10B1F00058B310B590B00A46044643683BB3836920
:10B200003BB3014604A8FFF764F8134B1B6813F027
:10B21000040F03D0114B1B68062B06DCA268616883
:10B2200004A8FFF739FE10B010BD0D4BD3F804355C
:10B230002278A169029101920A4A009240F6050221
:10B240000949072004F0D2FCE8E70E2070470E20E1
:10B25000E9E70E20E7E700BF242E0020202E002083
:10B26000001001409C570400A7560400037B012BEB
:10B2700001D00020704730B591B004460D463F4BD9
:10B280001B6813F0040F03D03D4B1B68032B5ADCE3
:10B2900004A8002304930593CDF81730B4F806E012
:10B2A0009DF8101001F080018DF81010CEF3861C6F
:10B2B0004CEA01018DF810109DF8112002F00302F4
:10B2C0008DF8112042EA8E028DF811202A0E8DF899
:10B2D00012202A0C8DF813202A0A8DF814208DF8DC
:10B2E00015506278022A0CBF012119469DF81020E2
:10B2F00002F07F028DF8102042EAC1128DF8102072
:10B300004FF0060209924FF001028DF82C20A28A1C
:10B31000ADF82E200C938DF81C300890226A0D9207
:10B320008DF82830E36A0F9319D0E389ADF82A30FD
:10B33000A37DF3B98DF838306FF0010107A8FFF74E
:10B3400057FF11B030BD0F4BD3F804350E4A0092B1
:10B3500040F263220D49042004F048FC98E70DF107
:10B360000E0103A80DF050FFBDF80C30ADF82A30E7
:10B37000DEE7074B5B7D8DF83830DDE7242E0020BB
:10B38000202E002000100140C8570400A7560400DA
:10B39000DC34002090F84830022B00D0704710B504
:10B3A000044690F86830022B00D010BDC16CFFF746
:10B3B0005DFF0028F9D1002384F86830F5E700002C
:10B3C00010B5002407E0C4EBC4021301034818447D
:10B3D000FFF7E0FF0134032CF5D910BDF434002051
:10B3E00008B5FFF7B7F9FFF7EBFF012008BD10B56F
:10B3F0000C4691F84830022B06D1022384F86830BD
:10B400002046FFF7C7FF10BD7846FEF7B1FDF4E711
:10B41000F0B583B00446C069A369E188060A000656
:10B42000C3F30C0291422FD98A1A1A44A2F5005292
:10B43000851846F100062A463346A08AFEF738FEF4
:10B44000002840F089802046FEF71EFF074630B3F3
:10B45000C269D0F818C0C388100A1206CCF30C01D8
:10B46000994214D2591A6144A1F50051521840F181
:10B470000003AA4273EB06010DD3954276EB03035A
:10B4800030D3384603B0F0BD891ACA18D0E75B1A2A
:10B4900003EB0C01EAE705213846FFF7F3FBE388ED
:10B4A000E269A169A08A05F0C1FFE8B9627A0132B8
:10B4B000E37DA3B3082101FB02F293B34FF4807341
:10B4C000934231D302212046FFF7F4F907460028C2
:10B4D000D7D100212046FFF7C9FE02210020FEF748
:10B4E0006DFFCEE70027CCE7E388E269A169A08A77
:10B4F00006F014F808B90027C3E723785BB1637A34
:10B5000001330121994001392046FFF7AFFE204663
:10B51000FFF7B2F9EFE77846FEF72AFDEFE70C21D7
:10B52000C9E74FF4C073CBE70C4B1B6813F0040F53
:10B5300003D00B4B1B68002B01DC0027A1E7094B54
:10B54000D3F804350192084A009240F27F3207494D
:10B55000012004F04BFBF0E7002792E7242E0020A7
:10B56000202E002000100140D8570400A7560400E8
:10B570002DE9F04182B007460E4614469846104623
:10B58000FFF746FF002846D00546404B1B6813F0E6
:10B59000040F03D03E4B1B68032B3FDC2846FFF70C
:10B5A00001F92B7B012B47D0EB6C217A01228A40D9
:10B5B000134230D11343EB64043E237AE27D002A28
:10B5C00042D04FF0080C0CFB03FC697A8B423ED052
:10B5D000002A41D00823B34240D1AA69A3699A4204
:10B5E00009D205F10C0E0C340FCCAEE80F0094E834
:10B5F00003008EE80300E86E3246391D604418F0FF
:10B60000AAF8EC6C2B7873B36B7A5A1C0123934025
:10B61000013B9C422BD002B0BDE8F0811D4BD3F81A
:10B620000435227A01921C4A009240F2A3321B494F
:10B63000042004F0DBFAB1E795F86830002BB3D1B1
:10B640002846FFF7C5F8AFE74FF00C0CBBE70CEB53
:10B650000603A5F84A30C0E70C23BCE704212846BE
:10B66000FFF710FBD7E77846FEF782FCCCE7E96CE2
:10B670002846FFF7FBFD43462A46B5F84A10E86E18
:10B68000FFF73DFD2846FFF7C7FAC4E7242E002048
:10B69000202E002000100140EC570400A7560400A3
:10B6A0002DE9F04190B000284CD00F4614461E46BC
:10B6B0008046002A48D004AB00933346FEF7AAFE2A
:10B6C000054618B1284610B0BDE8F08104A8FFF780
:10B6D0009DF805460028F5D100230293039302A9A3
:10B6E00060880DF075FD28B19DF8113043F001031D
:10B6F0008DF811302269E168208905F04FFE38B1DC
:10B700009DF8113003F0FE038DF81130002BD9D0D5
:10B710009DF81130002BD5D013F0010F01D0039B01
:10B7200008939DF8103033B1334604AA3946404699
:10B73000FFF71EFFC6E7334604AA39464046FFF727
:10B74000EDFCBFE70E25BDE70E25BBE7F8B508B356
:10B750000E460546164B1F68F7B93C46B4420FD259
:10B7600005EBC4035B68D3B115F8340015F9343028
:10B77000002B16DBB8B1FEF7E3FDB0B90134EDE7FD
:10B780000C4B43F8375003EBC7035E607B1C084A41
:10B79000136002E00E2700E004273846F8BD0E27AC
:10B7A000FBE70B27F9E70F27F7E70F27F5E700BFC0
:10B7B000CC340020D0340020084B196861B110B59A
:10B7C00001E021463CB10C680B79002BF9D003480D
:10B7D00004F077F9F5E710BD704700BFB8360020D8
:10B7E00038B5054630B1104B1C68C4B10F4B01226F
:10B7F0001A7004E07846FEF7BBFBF4E724683CB11E
:10B800002379002BFAD154F8043C28469847F5E7F1
:10B81000064B1B78022B03D0044B00221A7038BD54
:10B82000FFF7CAFFF8E700BFB8360020B4360020A3
:10B8300010B5044630B100232372211D034804F0E3
:10B8400015F910BD7846FEF793FBF4E7B8360020F3
:10B8500010B5044658B10A4B1B78013BDBB2012BF3
:10B8600009D8074B02221A700123237210BD7846B3
:10B87000FEF77EFBEFE7211D024804F022F9F5E711
:10B88000B4360020B83600200A8883689B5A0733F4
:10B890009BB223F0030313449BB20288043A934201
:10B8A00000D900230B80704710B582B0044683682E
:10B8B000C91AADF806100DF10601FFF7E5FFBDF856
:10B8C0000630A068184402B010BD0088043880B269
:10B8D000704743888268D018D15201238370704723
:10B8E00082680023937043808380704708B50731D6
:10B8F00089B221F0030189B2428883889A4204D236
:10B900009B1A994220DC002008BD9A4212D9B0F857
:10B9100000C0ACEB020C614518D98B4218D3BCF1C6
:10B92000030F03D98368134404229A7000234380D1
:10B930001846E9E7826813449B780BB10420E3E7DB
:10B94000FFF7CEFF0020DFE70420DDE70020DBE784
:10B950000420D9E738B504460D468368828813442D
:10B960008B4202D07846FEF703FB0023AB70211D0B
:10B970002046FFF789FFA288A36813449B78042B15
:10B9800000D038BD0023A380FBE710B50C468368C8
:10B99000428813448B4202D07846FEF7E9FA00232E
:10B9A000A37010BD70B5054614460E46002944D05C
:10B9B000002D46D0B6F1005F08D94FF08053D3F880
:10B9C0000C3103F50023B6EB832F0ED3B6F5000F31
:10B9D00008D94FF08053D3F80C3103F50053B6EB80
:10B9E000832F02D37846FEF7C3FA631E3344B3F1C4
:10B9F000005F08D94FF08052D2F80C2102F50022E6
:10BA0000B3EB822F0ED3B3F5000F08D94FF080525D
:10BA1000D2F80C2102F50052B3EB822F02D3784604
:10BA2000FEF7A6FA042C10D92C8000236B80AB8083
:10BA3000AE60043C3480B37070BD7846FEF798FA6F
:10BA4000B6E77846FEF794FAB4E77846FEF790FA40
:10BA5000EAE738B50446A0B16288A36813449B782E
:10BA6000012B12D0EFF3108572B6A388A168194498
:10BA70008B78032B0DD02046FFF732FF05B962B655
:10BA800038BD7846FEF774FAE6E77846FEF770FAB6
:10BA9000E8E72046FFF708FFA368C31A6380002386
:10BAA0008370EBE72DE9F0410E4614460546D0B110
:10BAB000EEB16A88AB6813449B78012B1BD024B38A
:10BAC0002846FFF702FFA04221D3EFF3108872B699
:10BAD00021462846FFF70AFF074680B1B8F1000F5C
:10BAE00016D162B614E07846FEF742FAE0E77846EF
:10BAF000FEF73EFADDE77846FEF73AFADFE7214641
:10BB00002846FFF7E6FE3060E8E7092700E009274E
:10BB10003846BDE8F081F8B50C4615460646E0B15A
:10BB2000FCB1A378012B20D12388AB4221D325B3CC
:10BB3000EFF3108772B625800223A370F118304608
:10BB4000FFF7A2FE7388B288934203D0B268134411
:10BB500000229A7007B962B6F8BD7846FEF708FA77
:10BB6000DEE77846FEF704FADBE77846FEF700FAF0
:10BB7000DAE77846FEF7FCF9D9E77846FEF7F8F9F8
:10BB8000D6E770B50C46054690B1ACB1EFF3108620
:10BB900072B6AA88AB6813449A78042A10D09A78AF
:10BBA000022A15D0032A18D0052006B962B670BD46
:10BBB0007846FEF7DDF9E8E77846FEF7D9F9E5E7DC
:10BBC000291D2846FFF760FEAA88AB681344E6E704
:10BBD00003229A7023600020E7E77846FEF7C8F951
:10BBE0000020E2E738B5044680B1EFF3108572B665
:10BBF000A088A16801448B78042B0BD08878022898
:10BC000014BF0020012005B962B638BD7846FEF7A2
:10BC1000AFF9EAE72046FFF747FE0146EEE738B501
:10BC2000054630B1EFF3108472B6A888A9680144C4
:10BC300007E07846FEF79CF9F4E72846FFF734FE64
:10BC400001468878C31EDBB2012BF6D9022814BF47
:10BC50000020012004B962B638BD70B50C46064616
:10BC600078B194B1EFF3108572B6A378012B10D0A0
:10BC7000032B13D121463046FFF76CFE05B962B69F
:10BC800070BD7846FEF774F9EBE77846FEF770F979
:10BC9000E8E721463046FFF778FEEFE77846FEF703
:10BCA00067F9EBE710B5EFF3108472B6838881680B
:10BCB00019448B78042B06D08878B0FA80F04009BC
:10BCC00004B962B610BDFFF7EFFD0146F4E70000CE
:10BCD000024B00221A769A6002207047BC36002080
:10BCE00008B5064B986800221A605A609A60DA60BC
:10BCF0001A615A619A6104F041FF08BDBC36002008
:10BD000000B585B00A4BDB6802228DF80020019354
:10BD10004FF480530293074A6946012001F0CEFA9E
:10BD200018B9012005B05DF804FB0020FAE700BF58
:10BD3000BC360020DA36002000B585B00A4B1B68FF
:10BD400002228DF8002001934FF480530293074A9A
:10BD50006946012001F0B2FA18B9012005B05DF87A
:10BD600004FB0020FAE700BFDC360020DA360020B2
:10BD7000164BDA68137951795B1A03F57F2303F6C2
:10BD8000FF7302EB03339A4205D002F580520F4B4A
:10BD9000DA600320704700B585B00D4B1B680120A9
:10BDA0008DF8000001930B4B0393042302930A4A7E
:10BDB000694601F083FA18B1002005B05DF804FB74
:10BDC000024B01221A760220F7E700BFBC360020A2
:10BDD000DC360020E0360020DA36002000B585B0E1
:10BDE0000C4BDA680C4B1B68043301208DF8000003
:10BDF0000192039340F6FC730293084A694601F0EE
:10BE00005DFA28B90120034B187605B05DF804FBF4
:10BE10000020FAE7BC360020DC360020DA360020AD
:10BE200000B585B00A4B1B6801208DF80000019316
:10BE3000084B039304230293074A694601F03EFA34
:10BE400018B9012005B05DF804FB0020FAE700BF37
:10BE5000DC360020C8360020DA36002010B584B069
:10BE6000104BDA681478104B1B68043301208DF8EE
:10BE700000000193039202940C4A694601F01EFAF5
:10BE800070B9094B1B6804F0FC041C440434054BD6
:10BE90005C61D9680A780A441A61012004B010BDB7
:10BEA0000020FBE7BC360020DC360020DA3600201C
:10BEB00008B500230A2B09D8064A52F823208242EB
:10BEC00001D00133F6E7044A536002E07846FEF7FA
:10BED0004FF808BDA4580400BC36002010B5214B13
:10BEE000DB6853B11F4B1B7E5BB91E4B5B680A2B93
:10BEF00026D97846FEF73CF822E07846FEF738F877
:10BF0000F0E77846FEF734F8EFE7164A5368013356
:10BF100053600A2B21D97846FEF72AF81DE0114B11
:10BF200000225A6019E00F4B1B7E1BB10D4B022201
:10BF30001A7012E0FFF7D4FE0FE00A4B1B7E83B9A4
:10BF4000084B5A68084B53F8223098470446022899
:10BF5000E9D00328E3D00128D7D0012CEDD0032C61
:10BF6000EBD010BDBC360020A4580400104B1B6859
:10BF70001B685A1E12F1030F18D8C3F30B020AB143
:10BF80000020704710B50B4AD36000231376537618
:10BF90000124147093600848FFF78AFF0749204680
:10BFA00001F07AF9FFF79AFF204610BD0020704794
:10BFB000DC360020BC36002001BD0200C1BF0200FB
:10BFC00008B50B78032B06D00B4B1B78012B06D042
:10BFD000022B0BD008BD084B00221A76F4E7064B63
:10BFE0001B7E002BF6D1FFF779FFF3E70B78032BCD
:10BFF000F0D1FFF775FEEDE7BC36002000B585B047
:10C00000174BDB6818784FF6FF7203F58051184420
:10C0100005F0BAFBE0B10246114BD9680B780B442E
:10C02000984217D00E4B5B7E83B10E4B01208DF8EA
:10C03000000001920393042302930B4A694601F026
:10C040003DF948B90120064B187606E0074BEDE7AD
:10C05000012002E0012000E0002005B05DF804FBB3
:10C06000BC360020705B0400DA3600206C5B0400F4
:10C0700008B5104BDB681878002203F5805118448E
:10C0800005F082FB08B1012008BD0A4BDA6813797C
:10C0900051795B1A03F57F2303F6FF7302EB033339
:10C0A0009A4205D002F58052024BDA600320EBE79A
:10C0B0000220E9E7BC360020F0B585B0514BDE68C0
:10C0C00072793379591E8A4214D006F580510D7861
:10C0D0000D444D490968081D0F7907449B1A06EB6A
:10C0E00003366B88013B9BB247F6FE62934260D9F0
:10C0F0002C461AE00120434B58767EE07846FDF747
:10C1000037FF15E024F47F6424F00F0404F5805415
:10C1100023781C44A6421CD9A5421CD26388013B4B
:10C120009BB247F6FE62934211D92388002BE5D0DB
:10C13000238804EB830323F47F6222F00F029342EF
:10C14000E0D06288B2F5FE4FDCD01C46E2E725461F
:10C150002FE000252DE000252BE07846FDF708FFB5
:10C1600015E024F47F6424F00F0404F58054237850
:10C170001C44A6421CD9A54237D26388013B9BB21E
:10C1800047F6FE62934211D92388002BE5D023881D
:10C1900004EB830323F47F6222F00F029342E0D08A
:10C1A0006288B2F5FE4FDCD01C46E2E7254600E08F
:10C1B0000025E5B1144B19686A8801F580513846AD
:10C1C00005F0E2FA074690B101200E4B18768DF883
:10C1D000000001950D4B0393042302930C4A69461A
:10C1E00001F06CF858B92C46CEE70025E1E7B5FA26
:10C1F00085F56D09034B5D76012005B0F0BD00208B
:10C20000FBE700BFBC360020DC360020685B040082
:10C21000DA3600202DE9F04186B0654B1B6923B169
:10C22000634B5B692BB1002748E07846FDF7A0FE21
:10C23000F6E77846FDF79CFEF5E7A04618E078465D
:10C24000FDF796FE18E028F47F6828F00F0808F53F
:10C25000805898F800309844454520D944454AD242
:10C26000B8F80230013B9BB247F6FE62934214D904
:10C27000B8F80030002BE2D0B8F8003008EB8303A8
:10C2800023F47F6222F00F029342DCD0B8F8022040
:10C29000B2F5FE4FD7D09846DEE7444600E00024D2
:10C2A0003CBB00230093019B002B5CD10127002C99
:10C2B00078D0628847F6FF739A4273D0002F75D109
:10C2C0003B4B5A6922F47F6626F00F06B61A06F534
:10C2D00080561C69DD682B796A799B1A05EB03355A
:10C2E000002301936388013B9BB247F6FE629342B1
:10C2F000A3D800940EE00024D2E77846FDF738FE7C
:10C3000023E024F47F6424F00F0404F580542378A0
:10C3100023441C46A542C6D92388019A02EB830216
:10C320009642C0D9009B634023F47F6323F00F0340
:10C33000002BB8D16388013B9BB247F6FE618B426C
:10C34000B1D801922388002BD7D0238804EB830334
:10C3500023F47F6222F00F029342D2D06288B2F5BA
:10C36000FE4FD6D1CDE7124A526901208DF8080060
:10C370000392009A059204930E4A02A900F09EFFD0
:10C3800070B90B49019B23F003024B6913444B61C5
:10C3900014B1074B1C618AE77846FDF7E9FDF8E721
:10C3A000002000E0012006B0BDE8F0810120FAE79E
:10C3B000BC360020DA36002000B585B00023294ABB
:10C3C0001370D3F8F83FB3F1FF3F09D0B3F1FF3F4B
:10C3D0000DD08BB1B3F1FF3F39D0A3F5805211E0FE
:10C3E0004FF010225269B2F1FF3FEFD104E04FF05D
:10C3F00010225269002AEDD14FF080535A691B690F
:10C4000003FB02F2A2F58052174B1A60174B1B6810
:10C4100013F4801F16D0164B1B68062B12DD154B2C
:10C42000D3F804350021D1F8F81FB1F1FF3F14D043
:10C4300002920191104A009240F276220F490720A1
:10C4400003F0D4FBFFF792FD05B05DF804FB4FF05D
:10C4500010235A69A2F58052D4E74FF010214969A0
:10C46000E6E700BFD8360020DC360020242E00206E
:10C47000202E00200010014070580400575804007E
:10C4800010B50446B0B1104B1B78BBB10E4BD96848
:10C49000E3685879A3EB0032914211D31A79121A4A
:10C4A00002F57F2202F6FF7203EB0233994209D8AC
:10C4B000012004E07846FDF75BFDE4E7002010BDB5
:10C4C0000020FCE70020FAE7BC360020024B187879
:10C4D000003818BF01207047BC36002010B5044654
:10C4E000124B1B78BBB92378032B18D10F4B9C60E0
:10C4F000E268DA600E4B1B78ABB10A220B4B5A6034
:10C5000000221A76012018705A760A4900F0C4FEFB
:10C51000FFF7E4FC10BD7846FDF72AFDE3E7784617
:10C52000FDF726FDE2E70022E8E700BFBC36002069
:10C53000D8360020C1BF0200014B1868704700BF09
:10C54000DC36002010B5044680B163681BB1236857
:10C550000BB1A36813B97846FDF70AFDA3685A1E0C
:10C56000134207D10023E360236110BD7846FDF735
:10C57000FFFCEAE77846FDF7FBFCF3E770B508B38C
:10C580000E4604468368FBB1EFF3108572B603696B
:10C59000C268934212D001684268806800F1FF3C93
:10C5A00003EA0C0303FB021116B1304617F0D3F86F
:10C5B0002369013323614DB962B608E005B962B65B
:10C5C000052504E00E2502E0092500E000252846A7
:10C5D00070BD00000246C0F30B0030BB39B301F65A
:10C5E000FF714FEA113C134B0221C3F80415114BA4
:10C5F000D3F80034002BFAD001460AE00D4BC3F803
:10C6000008250C4BD3F80034002BFAD002F58052E9
:10C6100001316145F2D3074B0022C3F80425054BD5
:10C62000D3F80034002BFAD070471020704709204F
:10C63000704700BF00E00140844610F0030F2DD189
:10C6400011F0030F2CD16AB312F0030F2CD1900814
:10C65000164B0122C3F80425144BD3F80034002BE9
:10C66000FAD003E00CF1040C04311046421E58B11C
:10C670000B68B3F1FF3FF5D0CCF800300B4BD3F88B
:10C680000034002BFAD0EDE7084B0022C3F8042554
:10C69000064BD3F80034002BFAD0704710207047B7
:10C6A00010207047092070470920704700E00140C2
:10C6B000094B1B7813F0040F02D00378122B00D023
:10C6C0007047064B1A68064B5A60034B1A786FF393
:10C6D00082021A70F4E700BF883700207837002004
:10C6E0001437002010B582B001900C46BDF806301A
:10C6F000012B11D123680A490B600A4B1A7842F0CA
:10C7000001021A70D3B25B0883F0010303F0010346
:10C710000B71002002B010BD7846FDF729FCE9E757
:10C72000783700208837002010B582B001900C4681
:10C73000BDF80630022B0FD12268094B1A6022790E
:10C740001A71002058719871D871064A137843F015
:10C750000203137002B010BD7846FDF709FCEBE749
:10C76000703700208837002010B582B001900C4649
:10C77000BDF80630032B06D1054B186820601B79E5
:10C78000237102B010BD7846FDF7F2FBF4E700BF5D
:10C790007837002010B582B001900C46BDF8063005
:10C7A000032B0CD1084B2068186022791A71074AB4
:10C7B000137843F001031370002002B010BD7846D7
:10C7C000FDF7D6FBEEE700BF783700208837002062
:10C7D00010B582B001900C46BDF80630042B05D18F
:10C7E000044B03CB2060616002B010BD7846FDF7BA
:10C7F000BFFBF5E77037002010B582B001900C4602
:10C80000BDF80630042B0BD1074B2068616803C3C9
:10C81000064A137843F002031370002002B010BDE3
:10C820007846FDF7A5FBEFE770370020883700203A
:10C8300000B583B00190BDF80630032B06D1054B3F
:10C8400000221A601A7103B05DF804FB7846FDF708
:10C850008FFBF4E77837002000B583B00190BDF876
:10C860000630042B06D1054B00221A605A6003B033
:10C870005DF804FB7846FDF77BFBF4E7703700209A
:10C8800000B585B01A4B1B7813F0400F13D0184B2E
:10C890001B7813F0040F0BD1002301938DF808309F
:10C8A000144B5B6803F500530193B3F1807F06D905
:10C8B00005B05DF804FB7846FDF75AFBE7E70E4B41
:10C8C0001B788DF808300A4A137843F0040313707C
:10C8D0000023ADF80C300323ADF80E3001A9039806
:10C8E00006F0EAF80028E3D07846FDF741FBDFE7E1
:10C8F00088370020143700208937002000B585B024
:10C900000022019202920F4B996801911B7B8DF8D6
:10C9100008300D490B780133DBB20B708DF80B300A
:10C92000ADF80C200423ADF80E300DEB0301039895
:10C9300006F0C2F810B905B05DF804FB7846FDF7C3
:10C9400017FBF8E7143700208937002000B585B0C1
:10C950000023019302930F4A91680191117B8DF896
:10C960000810128AADF809200B4A12788DF80B20B6
:10C97000ADF80C300423ADF80E300DEB0301039835
:10C9800006F09AF810B905B05DF804FB7846FDF79B
:10C99000EFFAF8E7143700208937002000B58DB092
:10C9A0000B4B1B7B012B0ED0094A926804928DF829
:10C9B0000830039002238DF8043001A8FEF710FF21
:10C9C0000DB05DF804FB024A9268013A0492EEE76A
:10C9D0001437002008B51D481D4B036000F0DAFE37
:10C9E0001C4B1B7813F0200F2AD103F00303032BF9
:10C9F00014D1194B1968194A916019791173B3F858
:10CA000005001082DB79164A1370164A1279934298
:10CA100017D0B1B9114B00221A6007E00F4B00226A
:10CA20001A609A601A731A82FFF768FF0B4B1A6834
:10CA30005A60084A137843F040031370FFF720FF51
:10CA400008BD084B1A68054B1A60EFE764370020F1
:10CA5000B1C602008837002070370020143700204C
:10CA6000893700207837002010B582B00024ADF857
:10CA700000400123ADF80230009806F04EF8ADF802
:10CA800004400223ADF80630019806F046F802B0E3
:10CA900010BD000008B5002006F066F8094A002322
:10CAA000136053609360D3601361074A117863F396
:10CAB00045111170CBB243F040031370FFF7E0FE55
:10CAC00008BD00BF143700208837002038B50C4D52
:10CAD00000242C606C60AC60EC602C6101F046F9C5
