:020000022000DC
:1070000000F003206D7302005573020057730200F5
:10701000597302005B7302005D7302000000000000
:107020000000000000000000000000005F7302008C
:1070300061730200000000006373020065730200C8
:1070400067730200677302006773020067730200D0
:10705000677302006773020035D403006773020090
:107060006773020067730200E5A7030067730200FD
:1070700067730200677302006773020067730200A0
:1070800067730200E54A040029D402006773020016
:10709000494B04006773020029DF03006773020095
:1070A0006773020067730200677302006773020070
:1070B0006773020067730200000000000000000018
:1070C0006773020067730200677302006773020050
:1070D0006773020067730200677302006773020040
:1070E000677302006773020067730200000000000C
:1070F00000000000677302000000000067730200D8
:10710000000000000000000000000000000000007F
:10711000000000000000000000000000000000006F
:10712000000000000000000000000000000000005F
:10713000000000000000000000000000000000004F
:10714000000000000000000000000000000000003F
:10715000000000000000000000000000000000002F
:10716000000000000000000000000000000000001F
:10717000000000000000000000000000000000000F
:1071800000000000000000000000000000000000FF
:1071900000000000000000000000000000000000EF
:1071A00000000000000000000000000000000000DF
:1071B00000000000000000000000000000000000CF
:1071C00000000000000000000000000000000000BF
:1071D00000000000000000000000000000000000AF
:1071E000000000000000000000000000000000009F
:1071F000000000000000000000000000000000008F
:10720000344935480A1A02D0072291438D46334942
:1072100033480A1A06D00722914381F309880222D3
:1072200082F314882F483049304A00F042F8304841
:107230003049314A00F03DF830483149314A00F0D8
:1072400038F831483149324A00F033F83148324990
:10725000324A00F02EF832483249334A00F029F819
:1072600032483349334A00F024F833483349002286
:1072700000F02AF832483349002200F025F832485D
:107280003249091A082902DB0022026041601F48C6
:107290001F49884205D00268043003B4904703BCFC
:1072A000F7E700208646EC4600200021284A904758
:1072B000FEE7884207D0521A05D0037801300B70E0
:1072C0000131013AF9D17047884202D00270013091
:1072D000FAE7704700F0032000E8032000F00320E5
:1072E00000F0032044740400002E0020B02E002083
:1072F000A0730200A07302004E5004004474040006
:10730000002E0020002E00202054040020540400F1
:10731000205404002054040020540400205404008D
:10732000205404002054040044740400F474040045
:10733000B02E0020B02E0020B02E0020CC5E002009
:10734000CC5E0020CC5E0020CC5E0020CC62002011
:10735000417B0200FEE7FEE7FEE7FEE7FEE7FEE711
:10736000FEE7FEE7FEE7FEE700F002B8FFF7FCBF2E
:1073700008484FF00701884385460748804707487B
:10738000016841F470010160BFF34F8FBFF36F8F4D
:10739000FFF736BF00F0032065E3030088ED00E04F
:1073A00041DF70470C4B1B6813F4804F03D00B4B2D
:1073B0001B68012B00DC704700B583B0084BD3F885
:1073C0000435084A00929C220749022007F02EF952
:1073D00003B05DF804FB00BF482E0020442E0020BF
:1073E00000100140A45404009A54040010B586B063
:1073F0005068E0B11A4B1B6813F4804F03D0194B4F
:107400001B68032B01DC06B010BD174BD3F8043505
:107410004988147852780490039202940191134A97
:107420000092C3221249042007F000F9EBE70C4B4D
:107430001B6813F4804FE6D00A4B1B68032BE2DD78
:10744000094BD3F804354988127802920191094A10
:107450000092C8220649042007F0E8F8D3E700BFED
:10746000482E0020442E002000100140C454040087
:107470009A5404001855040000B583B0012A1ED0A8
:10748000022A35D03AB1244AB721032017F066F812
:1074900003B05DF804FB214B1B6813F4804FF7D059
:1074A0001F4B1B68032BF3DD1E4BD3F804351E4A1C
:1074B0000092AA221D49042007F0B8F8E8E7062246
:1074C00032210F2000F0CCFD144B1B6813F4804FC9
:1074D000DED0134B1B68032BDADD124BD3F80435D7
:1074E000134A0092AF221149042007F09FF8CFE71A
:1074F0000A4B1B6813F4804FCAD0094B1B68032B3F
:10750000C6DD084BD3F804350A4A0092B322074976
:10751000042007F08BF8BBE73C540400482E002001
:10752000442E002000100140445504009A540400E9
:10753000645504008455040030B587B0441C624B88
:107540001B6813F4804F03D0604B1B68032B06DCD1
:10755000631E032B12D8DFE803F00E360E365C4BA9
:10756000D3F8043501945B4A0092EC225A49042076
:1075700007F05CF8ECE701238DF81430574A1378D4
:10758000591C11708DF81530322304936423039332
:107590004D4B1B6813F4804F03D04C4B1B68032BDF
:1075A00015DC022C22D9E31E012B20D8022303AACA
:1075B00005A94B481CF024FF05469DF814100E2029
:1075C00000F0E2FC37E000238DF81430D6E7404BA2
:1075D000D3F804359DF814200192424A009240F2FB
:1075E00003123D49042007F021F8DAE7A4B9364B2D
:1075F0001B6813F4804F39D0344B1B68032B35DDE7
:10760000334BD3F80435384A00924FF48C72324928
:10761000042007F00BF829E0344D28880FF060FEB5
:1076200003AA05A928461CF0ADFE05469DF81410D6
:107630000D2000F0A9FC112D3DD8DFE805F0173C26
:107640003C3C093C3C26093C3C3C3C3C3C3C3C0929
:107650001D4B1B6813F4804F03D01C4B1B68032B7E
:1076600006DC062232210F2000F0FAFC07B030BD04
:10767000174BD3F8043501941D4A00924FF49272CF
:107680001549042006F0D2FFEBE70F4B1B6813F4FB
:10769000804FEBD00D4B1B68032BE7DD0C4BD3F871
:1076A00004350194134A00924FF498720A49042059
:1076B00006F0BCFFDAE7002DD8D00F4A4FF49A71DC
:1076C000284616F04BFFD1E7482E0020442E00201C
:1076D00000100140A85504009A540400192F0020FE
:1076E000E42E0020BC55040070570400B02E00208A
:1076F000D8550400F05504003C54040000B583B094
:107700003138032814D90D4B1B6813F4804F11D066
:107710000B4B1B68032B0DDD0A4BD3F804350A4ACB
:1077200000924FF4A1720949042006F07FFF01E0A6
:10773000FFF702FF03B05DF804FB00BF482E0020F6
:10774000442E002000100140705704009A54040099
:1077500000B58DB02422002103A81DF013FC0123E5
:107760008DF80C3007238DF80F3006238DF8143078
:107770001F4B07931F4B0B931F4903A80AF0B8FF39
:1077800060B30B2829D11D4B1B6813F4804F03D025
:107790001B4B1B68032B14DC184B1B6813F4804F26
:1077A0001CD0174B1B68032B18DD164BD3F8043580
:1077B000154A009240F265121449042006F036FF83
:1077C0000CE0104BD3F80435114A00924FF4B2721A
:1077D0000E49042006F02AFFDEE710B90DB05DF86F
:1077E00004FB0C4A4FF4B57116F0B8FEF6E700BF83
:1077F00095790200B5780200182F0020482E00204D
:10780000442E0020001001406C5604009A540400DD
:107810001C5604003C54040000B583B01D4A0421EA
:1078200046F2010006F0E6FE1B4B1B6813F4804F86
:1078300003D01A4B1B68032B13DC1DF089F9E0B948
:1078400000F050FC164800F081FCE0B900F03CFE6E
:1078500000F078FE00F0A6FEFFF77AFF03B05DF8B7
:1078600004FB104BD3F804350F4A009240F271121A
:107870000E49042006F0DAFEDFE70D4A40F27311EC
:1078800016F06CFEDCE70A4A40F2771116F066FE4D
:10789000DCE700BFC9E50200482E0020442E00208E
:1078A0003975020000100140A85604009A540400E3
:1078B0003C54040010B582B0194B1B6813F4804F80
:1078C00003D0184B1B68032B01DC00240CE0164B83
:1078D000D3F80435154A00924FF4A47214490420D9
:1078E00006F0A4FEF1E70134012C17D81148342327
:1078F00003FB0400104B03630023836280F82C30E9
:1079000080F82D30611CC9B21CF006FD0028EAD0B9
:107910000A4A40F2511116F021FEE4E702B010BD10
:10792000482E0020442E002000100140D8560400AC
:107930009A540400B02E0020645704003C54040004
:1079400000B583B00E4B1B6813F4804F03D00D4B72
:107950001B68032B09DC0322C8210F2000F080FBE9
:107960000AF026FF03B05DF804FB074BD3F804359B
:10797000064A0092CF220649042006F057FEEAE7A5
:10798000482E0020442E002000100140F85604002C
:107990009A54040008B50378232B00D008BDFFF7E4
:1079A000CFFFFBE710B5044600210F2000F042FB9B
:1079B00004EB840462003221032000F051FB10BD6F
:1079C00008B500F081FB08BD00B585B003A811F033
:1079D00081F80D4B1B6813F4804F03D00B4B1B68D1
:1079E000032B02DC05B05DF804FB094BD3F804352A
:1079F000BDF80C200192074A009285220649042016
:107A000006F014FEEEE700BF482E0020442E0020B2
:107A100000100140145704009A54040010B58AB0B5
:107A20006421244800F028FA234B1B789BB90DF100
:107A30000C0C224C0FCCACE80F0094E807008CE84B
:107A4000070003A800F0AEF938B11D4A40F29511C5
:107A500016F084FD01E0FFF7B7FF00F0C9FE00F06B
:107A6000ADFB0AF097FE98B9164B1B6813F4804FD4
:107A700003D0154B1B68032B10DC00210F2000F0F6
:107A8000D9FA0222C8210F2000F0EAFA0AB010BD8C
:107A90000B4A4FF4CF7116F061FDE5E70B4BD3F8BD
:107AA00004350B4A00924FF4D0720A49042006F0C4
:107AB000BDFDE2E7FD760200182F002048570400C4
:107AC0003C540400482E0020442E002000100140A9
:107AD000705704009A54040000B583B0134B1B6820
:107AE00013F4804F03D0124B1B68032B13DC00F000
:107AF00029FD00F057FDFFF767FF00F0E5FA0021D0
:107B00000F2000F097FA0422C8210F2000F0A8FAF5
:107B100003B05DF804FB074BD3F80435064A009226
:107B20008A220649042006F081FDE0E7482E002065
:107B3000442E0020001001402C5704009A540400E9
:107B400008B5FFF769FEFFF769FFFFF729FCFCE7BF
:107B500069DF704703781F2B00D07047014B01226B
:107B60001A70FAE71D2F00203F4B1B78002B79D0AD
:107B700000B587B0012804D003286CD007B05DF8A9
:107B800004FB0023019301A9012016F06DF80028E1
:107B90004BD100230393049305939DF80C200123FC
:107BA00063F303028DF80C20D2B263F307128DF851
:107BB0000C209DF80D2063F301028DF80D20112398
:107BC000ADF81630019A03A94120FFF7C1FF78BB39
:107BD00001A816F0A3F870BB244B1B6803B19847AB
:107BE0000123029302A90DF1020011F0F1FC28BB60
:107BF000BDF8020011F05EF90DF1010111F0F2FA89
:107C0000F8B90CF0B1F89DF8011000200CF0ACFBB5
:107C1000D0B904F0AFF9D8B9134B00221A70134B46
:107C20005B68002BAAD09847A8E716F089FCB0E75C
:107C300016F086FCCCE716F083FCCDE716F080FC4E
:107C4000D6E716F07DFCDCE7784600F091FDE0E732
:107C500016F076FCE0E716F0DBF800288ED016F080
:107C60006FFC8BE7704700BF1C2F0020202F0020E7
:107C700008B5064B01221A70054804F0E9F904F032
:107C8000CBF900B908BD16F05BFCFBE71C2F002008
:107C9000002E002008B503781C2B00D008BD074B30
:107CA0001B78002BFAD016F0F7F818B9044804F046
:107CB000D3F9F3E716F044FCF8E700BF1C2F0020CF
:107CC000002E002008B5094B1B7863B90849094804
:107CD00017F0FEF840B90323002207494969074815
:107CE00017F012F900E0082008BD00BF1D2F00208A
:107CF0003C2F0020A8320020202F002074310020CB
:107D000008B50378023B082B3FD8DFE803F01C05D9
:107D1000113E3E2C3E3E36001E4B9B68002B34D05D
:107D2000007A002831D01C4A0121117098472CE0BC
:107D3000184BDB684BB3184A127832B3164A00214D
:107D40001170984721E0154B1B784BB9114B1B69FB
:107D50001BB1114A002111709847FFF7B3FF14E0DF
:107D6000FFF786FF11E010220A4B99690C4817F0C3
:107D700054F950B116F0E4FB07E08168C0680AF0DE
:107D800037FC18B9054B01221A7008BD16F0D8FB54
:107D9000F8E700BF202F00201A2F00201B2F002003
:107DA0007431002010B586B08446224A03AB07CA5E
:107DB00003C323F8022B120C1A701F4CA646BCE812
:107DC0000F00AEE80F009CE807008EE80700A369EB
:107DD000002B2DD0194B009303AB194A19491A48AF
:107DE00017F034F8034610B1184606B010BD174816
:107DF00018F0E8FD0146144817F054F8034600282F
:107E0000F2D1134818F05EFF03460028ECD1104869
:107E100018F090FF01460C4817F044F8034600287C
:107E2000E2D10C4804F014F9FFF74CFF0346DBE7FE
:107E30000723D9E788590400202F0020017D020084
:107E40003C2F0020A8320020743100205C2F00203D
:107E5000243100200C2E002008B5064B1B681BB9EE
:107E600006E0044B1B68984713F03AFE0028F8DA46
:107E700008BD00BFE832002010B50C46134B186057
:107E8000134A012113481CF09DFE98B9610CE003D0
:107E900041F27073984271F1000310D34FF47A727B
:107EA00000231CF007FF014600220B481CF0A0FE37
:107EB00038B910BD094A4A2116F050FBE6E7052102
:107EC000F2E7064A4B2116F049FBF2E7E8320020C0
:107ED000597E0200F4590400EC3200209459040049
:107EE00070B50546002403E00D4A93420ED80134D4
:107EF000032C14D80B4B1B5DAB42F8D10A4B1E6808
:107F000004F096FB331AEFD5831BEDE704F090FBEA
:107F1000054B1860054B1B6820469847E7E770BD86
:107F2000801A0600005A0400383300203433002041
:107F30001F280CD900F01F00064BD3F8043523FA94
:107F400000F010F0010F0CBF0120002070474FF02F
:107F5000A043F2E70003005070B505460024264612
:107F600000E00134032C0AD80123A3402B42F8D0AF
:107F7000044B185DFFF7DCFFA0400643F1E73046F5
:107F800070BD00BF045A040008B511B115F05CF9CA
:107F900008BD15F049F9FBE770B50546002400E07F
:107FA0000134032C0FD80123A3402B42F8D0064BF9
:107FB0001E5D3046FFF7BCFF80F00101C9B23046BC
:107FC000FFF7E2FFECE770BD045A040010B5144B54
:107FD0001B684BB1134B1868FFF7DEFF104B1C6892
:107FE000013C1C6024B110BD002016F0A9FAF1E795
:107FF0000D481CF01FFE00E00134032CF3D80123D0
:10800000A340084A12681342F6D0084B1968E140B1
:1080100001F00101064B185DFFF7B6FFECE700BF6A
:108020000C33002010330020143300203C33002098
:10803000045A040070B505460E46002400E00134E1
:10804000032C09D80123A3402B42F8D03146034B1F
:10805000185DFFF799FFF2E770BD00BF045A0400F6
:1080600042B310B50C461346132900D810BD124A6E
:1080700010605B00013B114A1360FFF76DFF104B6E
:108080001860610CE40314F5FA704FF47A724FF043
:10809000000341F100011CF00DFE014600220948D9
:1080A0001CF0A6FD0028E1D10121034B1868FFF761
:1080B000C1FFDBE7704700BF103300200C33002006
:1080C0003C3300201433002008B504481CF0B2FDF6
:1080D0000021034B1868FFF7ADFF08BD14330020E3
:1080E0001033002010B582B015F01AF840B100240A
:1080F000ADF804408DF8064001238DF8053007E007
:1081000014F0BEFF0028F2D016F01AFAEFE701349F
:10811000032C09D801A90A4B185D15F00BF80028AB
:10812000F5D016F00DFAF2E7064A012106481CF0D8
:1081300049FD08B902B010BD16F002FAFAE700BF17
:10814000045A0400CD7F0200FC59040060B310B54E
:1081500082B0164A106014F0E3FF40B1144B1B6864
:10816000ADF804301B0C8DF8063000240CE014F040
:1081700087FF0028F2D016F0E3F9EFE701210D4B5D
:10818000185D15F0EBF80134032C0AD80A4A01A94E
:10819000084B185D15F068F80028EFD016F0D0F9FC
:1081A000ECE7002002B010BD0E20704734330020F1
:1081B000F8590400005A0400E17E0200002800F093
:1081C00082802DE9F04FD1B004463F4B1B6813F479
:1081D000804F03D03D4B1B68032B31DC3A4B1B68AF
:1081E00013F4804F03D0394B1B68032B2ADC51B0AA
:1081F000BDE8F08FE25C36490D68100959002E5C2D
:108200000FA800F8136002F00F020131AA5C42547B
:1082100001330F2BEED90FAA00238DF85C3003F148
:10822000804303F58833D3F804350292294A01923A
:10823000294A009242222949042006F0F7F9CDE7A5
:108240000023E6E7264BD3F804350D93206802029D
:1082500002F47F0242EA0062010A01F47F4142EA2D
:108260000108B4F804C04FEA0C2292B2B4F806E058
:108270004FEA0E2189B2257A667AA77AE37A94F8D2
:108280000C9094F80DA094F80EB0E47B0B94CDF80C
:1082900028B0CDF824A0CDF8209007930697059636
:1082A000049541EA1E21039142EA1C22029248EA07
:1082B000106001900B4A00920D9B43220749042055
:1082C00006F0B4F993E77047482E0020442E0020B2
:1082D0004C2E00206C5A0400805A0400595A0400A5
:1082E00000100140885A040072DF704773DF704746
:1082F00074DF70472DE9F047A2B0074688469146E3
:10830000324C002525606560A560E56030490B783A
:10831000C3EB43102F4E064426602F4A0244A2604E
:108320001F22A280A281013303F001030B704FF0E2
:108330003C0A5246294613A81CF024FE06238DF859
:108340004F30ADF8487001238DF84A30ADF85C30FD
:1083500012AA1892ADF83C70ADF84090CDF8448068
:108360000DEB0A021D928DF8783052462946684678
:108370001CF008FE02238DF80030221D314613A8A0
:1083800015F064FB90B9114B03F10C029968684633
:1083900015F05CFB68B9114A0C491148FFF7A4FFBE
:1083A000082809D070B922B0BDE8F08716F0C8F8E7
:1083B000E9E716F0C5F8EEE7002204490848FFF7A0
:1083C00093FFEFE716F0BCF8EDE700BF8433002021
:1083D0004033002044330020943300201C2E002022
:1083E000182E0020B0F5202F0AD2074BA3FB002344
:1083F000DB0808B103B90123044A938191607047F7
:108400004FF6FF73F5E700BFCDCCCCCC1C2E00207F
:1084100008B50121054B1878FFF768FF18B900204F
:1084200004F0F2FC08BD16F08BF8F8E7182E0020D7
:1084300008B5044B1878FFF75BFF00B908BD16F0CC
:108440007FF8FBE7182E002076DF70477ADF704751
:108450007CDF704769DF704708B516F071F808BD1A
:1084600008B503F0FDFD08BD00B583B0037823B166
:10847000012B0BD003B05DF804FB3B214088FFF7D4
:10848000E3FF0028F6D016F05BF8F3E7094B1B6812
:1084900013F4804FEED0084B1B68032BEADD074B2B
:1084A000D3F80435064A009268220649042006F0F3
:1084B000BDF8DFE7482E0020442E002000100140C8
:1084C000345B0400195B040000B585B015F0A0FC16
:1084D00060BB0023039303A9012015F0C5FB40BB3B
:1084E00000230093019302939DF80020012363F37E
:1084F00003028DF80020D2B263F307128DF800203A
:108500009DF8012063F301028DF801201123ADF8DD
:108510000A30039A69464120FFF79CFF60B903A81F
:1085200015F0FCFB58B905B05DF804FB16F008F82F
:10853000CFE716F005F8D3E716F002F8EFE715F0ED
:10854000FFFFF0E700B585B09DF80C30012262F323
:1085500003038DF80C30DBB262F307138DF80C3097
:1085600011220F4903A8FFF773FF98B90023019365
:1085700002937823ADF80430C823ADF806304FF4E9
:10858000C873ADF80A3001A8FFF760FF28B905B03D
:108590005DF804FB15F0D4FFE8E715F0D1FFF6E72E
:1085A000605B040000B58BB001AA00230193029325
:1085B0007821ADF80410C821ADF806104FF4C87149
:1085C000ADF80A1003930493059306930793089359
:1085D0000993039240F6CD4304934FF480330593FF
:1085E00003238DF81830074B0893074B099303A812
:1085F00015F0FAFD10B90BB05DF804FB15F0A0FF03
:10860000F9E700BF69840200598402000620704720
:1086100000B587B044F2010398425DD01BD8012811
:1086200036D041F20103984271D1474B1B6813F4D5
:10863000804F36D0454B1B68002B32DD444BD3F8BE
:10864000043502920191434A00926322424901207B
:1086500005F0ECFF25E044F20203984257D13A4B73
:108660001B6813F4804F1CD0384B1B68002B18DD9F
:10867000374BD3F804351068039052680292019189
:10868000364A009269223449012005F0CFFF08E004
:108690002D4B1B6813F4804F03D02C4B1B68002B11
:1086A0000DDC4FF0A0434FF4F032C3F81825C3F8A7
:1086B0000C25EFF3108372B64DF6AD6C3DE0244B04
:1086C000D3F8043502920191254A00926022224992
:1086D000012005F0ABFFE4E71B4B1B6813F4804F50
:1086E000DFD01A4B1B68002BDBDD194BD3F80435A8
:1086F0001068049050680390029192680192194AA0
:10870000009273221449012005F090FFC9E70E4B37
:108710001B6813F4804FC4D00C4B1B68002BC0DDCA
:108720000B4BD3F8043501910F4A00927B220A4982
:10873000012005F07BFFB4E730BF0C4B1B78002B0A
:10874000FAD107B05DF804FB482E0020442E00202B
:1087500000100140F45B0400C55B0400185C0400D9
:10876000D85B0400385C04005C5C0400342E0020FC
:1087700000B583B0014600230093054B01936A4680
:1087800044F20200FFF744FF03B05DF804FB00BFB2
:10879000585C040010B40346044C006859689A6899
:1087A000DB680FC45DF8044B704700BFD433002072
:1087B0000E4B4FF0805202F1600103C983E80300C1
:1087C00003F1080CA43292E803008CE8030093F94B
:1087D000062002F00F0242F040029A7193F908203D
:1087E00002F03F0242F080021A727047D433002038
:1087F00000487047D4330020002308E0074901EB0C
:10880000C30000224280426001F8332001331F2B55
:10881000F4D9034B00221A60704700BFE4330020F4
:10882000E434002000B58646114B1B684FF0000C65
:108830000BE01F230F4A12F83300B0B102EBC30262
:108840005288724509D00CF1010CBCF11F0F0BD8F6
:108850005A1E002BEDD01346ECE7064A02EBC3028A
:1088600052688A42EFD100E000205DF804FB00BFAF
:10887000E4340020E433002010B40B4A13680B4C9E
:1088800004EBC30CACF80200CCF80410012104F88E
:1088900033100B441360202B02D05DF8044B70475B
:1088A000134600221A60F8E7E4340020E433002085
:1088B0000021072918D830B402E00131072910D867
:1088C0004FEA011C094C34F80CC08445F5D104EB87
:1088D0000114A568E4689C4208BF9542EDD10120CF
:1088E00000E0002030BC704700207047E8340020D2
:1088F00030B4C3698469C1884FEA132C1B06C4F3E2
:108900000C028A4218D28A1A2244A2F500529A18FE
:108910004CF100010A4C23685D1C256003F007033D
:10892000B0F814C007481C0100EB031320F804C082
:108930009A60D96030BC70478A1A2244E7E700BFCA
:1089400068350020E8340020C37D9BB1C3780A78E5
:1089500002F080020A7003F07F0313430B70027869
:108960000B7803F07F030B7043EAC2130B7003789C
:108970009BB97047C3780A7802F0BF020A709B0166
:1089800003F0400313430B70027903F0C0030B7034
:1089900002F03F0213430B70E1E700B58378082B28
:1089A00014BF002201224B7803F07F034B7043EA8F
:1089B000C2134B70B0F806E0DAB202F080024A70DF
:1089C000CEF3861C4CEA02024A708B7803F0030354
:1089D0008B7043EA8E038B7090F808E0DAB202F0F5
:1089E000FC028A70CEF3C10C4CEA02028A70CB788A
:1089F00003F01F03CB7043EA4E13CB70437ACA785F
:108A000002F0E002CA7003F01F031343CB705DF85D
:108A100004FB00000023032B31D810B402E0013323
:108A2000032B28D8C3EBC302164C04EB021292F8B6
:108A30004820012AF3D1C3EBC30204EB0212948A4B
:108A4000C2899442EBD1C3EBC3020E4C04EB021279
:108A5000D2888A42E3D1C3EBC30204EB0212B2F81C
:108A6000582012B1848AA242D9D1C3EBC30305486E
:108A700000EB031000E000205DF8044B704700207D
:108A8000704700BF94350020002300E00133032B22
:108A900016D8C3EBC3020B4901EB021292F848202F
:108AA000022AF3D1C3EBC30201EB0212918A828A3C
:108AB0009142EBD1C3EBC303024800EB03107047B4
:108AC000002070479435002008B904207047082022
:108AD000704700B503468C460978C1700021416299
:108AE000DCF808100B2904D89CF80C1029B30121DC
:108AF00000E0012119700020987031B1DCF80810F5
:108B00000731C9080139597218720121D97503F169
:108B10000C0E0CF1100103C98EE80300BCF80E1016
:108B20009982DCF8181019629CF81C109975DCF811
:108B30002010D9629A625DF804FB0021DAE7000098
:108B400000210E4B1B688B4216D9002300E0013335
:108B50000B4A02EBC10252689A420BD9084A52F8FA
:108B6000312002EBC30C12F833208242EFD1DCF843
:108B7000040070470131E4E7002070476C350020A5
:108B80007035002070B58CB006460D4614462C2278
:108B9000002101A81CF0F6F90F238DF80430ADF880
:108BA00008609DF80A3065F300038DF80A308DF8EF
:108BB0000B4001A801F014FA0CB070BD30B58DB0B7
:108BC00005460C462C22002101A81CF0DBF91023DD
:108BD0008DF8043002958DF80C4001A801F000FAE0
:108BE0000DB030BD00B58DB010B913F1020F06D134
:108BF000074B186804F048FB0DB05DF804FB012139
:108C00008DF804100293039201A801F0E9F9EFE74F
:108C10007835002070B5049C002962D01D468E4630
:108C2000D2F800C051689668D368C4F80CC02161BE
:108C30006661A361D2F810C05169C4F81CC02162FA
:108C4000002363700278D20922705AB3042373455B
:108C500049D8E17D41B3037803F07F03E37000233B
:108C6000A3709AB143789B0103F4FE53827843EAE0
:108C70009203E3808378DB0003F01803C27843EAB1
:108C800052132372C37803F01F03637200236362DD
:108C90002B78032B21D82A78144B53F82230E36227
:108CA000002070BD0123D2E70178C1F38011E1708B
:108CB000017801F03F01217142B190F90130002BA0
:108CC00002DB0423A370CCE70823FBE70421A17097
:108CD0000B447345C5D90920E3E77846FFF748FD03
:108CE000D9E70920DDE70920DBE700BF185E0400B3
:108CF00070B50C461D4603789BB104263244A26031
:108D000000F10C032360836A6360C36AE36000239D
:108D10002374204604F036FE10B963691E442E60A9
:108D200070BD0126EAE72DE9F0418EB00D461646EA
:108D30001C46804600282DD0002D2FD0002C31D08D
:108D4000636A0233059304F10C00E378002B2DD005
:108D50000121A27801AF3B46082A14BF002201225C
:108D600004F0DFFB0697CDF81C80B2B2ADF82020EE
:108D70000B9515440C95A3788DF83430237B022B8A
:108D800016D00023ADF8283005A804F0C2FB0EB0C1
:108D9000BDE8F0817846FFF7EBFCCDE77846FFF7BA
:108DA000E7FCCBE77846FFF7E3FCC9E70221D0E711
:108DB00023692BB1236909931023ADF82830E3E729
:108DC0007846FFF7D5FCF5E72DE9F04188B0044679
:108DD0000D46C37D002B3CD0082605FB06F8637AC0
:108DE000AB4238D0257201AB324602A92046FFF7CC
:108DF0007FFF074648BB4DB994F8533033B9A36998
:108E0000C3F30C03E380012384F85330E37D7BB983
:108E100094F8523063B91DBBE06EB4F84A10A278E2
:108E200023468A1A0146FFF77EFF012384F8523059
:108E300007992046FFF788FDE16E324641440198CC
:108E40001CF077F802A804F0C3FD384608B0BDE86E
:108E5000F0810C26C1E7B4F84A60A6EB0806C1E72A
:108E60007846FFF785FCD7E770B505460E4609B191
:108E700000230B6095F85040002104E0631C85F846
:108E800050300134E4B26B7AA34210D3EA6C012370
:108E9000A3401A42F5D121462846FFF795FF014627
:108EA00028B9002EEAD0336801333360E6E708467C
:108EB00070BDF0B589B004460E46154683789A1801
:108EC000C37D63B10B239A4221D801AB02A920468E
:108ED000FFF70EFF074620B1384609B0F0BD0F235B
:108EE000F1E707992046FFF72FFDE37D43B12A46BE
:108EF000314601981CF01DF802A804F069FDEBE76B
:108F000023462A4601993046FFF70DFFF4E709276B
:108F1000E2E7000010B5044690F84830012B0CD170
:108F200003F086FB237B012B0BD0094BD96801444E
:108F300004F1300003F048FB10BD7846FFF718FC41
:108F4000EEE7A27D024BD9681B6903FB0211EEE735
:108F50007C35002030B583B0002403E02846FFF7BD
:108F6000D9FF0134032C18D8C4EBC4030C4A02EB1C
:108F7000031393F84830012BF3D100230193C4EB82
:108F8000C40502EB051501A92846FFF76DFF04286B
:108F9000E4D0019B002BE4D0E0E703B030BD00BF7C
:108FA0009435002038B5044690F84830022B09D19A
:108FB000064B1D6803F03CFB411904F1300003F03F
:108FC00003FB38BD7846FFF7D3FBF1E77C35002083
:108FD00038B5044690F84830022B10D10A4B5A7D20
:108FE0005D689B6803FB025503F022FB411904F105
:108FF000500003F0E9FA012384F8683038BD784660
:10900000FFF7B6FBEAE700BF7C35002010B5044649
:10901000808A02F069FE01281CD1237BE3B194F918
:109020001620002A1ADBE27D4AB1022B18D094F9EF
:109030000330002B16DBA378B3B900200BE0E278F5
:109040000AB9012B12D1237893B9A378042B11D13B
:10905000002000E0102010BD1020FCE70720FAE7F8
:109060001020F8E70720F6E70720F4E70720F2E7EB
:109070000020F0E70720EEE738B5044603784BB14F
:10908000C388C2698169808A06F01EFE054645B91B
:10909000284638BDC2698169808A06F00FFE054600
:1090A000F5E7E169002201F00101A08AFFF76AFDFE
:1090B000EEE700002DE9F04780460E4617464B1EAE
:1090C000DBB2012B0FD8B7F5C07F10D80024032CDA
:1090D0001AD8C4EBC403314A02EB031393F84830A7
:1090E0004BB10134F3E77846FFF742FBEBE77846F4
:1090F000FFF73EFBEAE7C4EBC40502EB0515384673
:1091000009F04DFAE86600E000255DB3EB6E002B38
:1091100042D043462C4608F1300ED3F800C05868C0
:109120009968DA68C4F800C06060A160E26010333A
:1091300010347345F1D10023EB64A5F84A70012E79
:1091400013D06FF00103AB62002385F86830144B35
:10915000AB652D66134BAB632D64012002F048FA1A
:1091600085F848602846BDE8F0870F4B1B7D85F8E1
:109170005130002385F8523085F8533085F850304F
:10918000D8F828206A65A5F858306FF00103AB6263
:10919000064BAB632D64E0E71D46E3E79435002002
:1091A000EF9B0200019502007C3500204D950200E6
:1091B00000B585B000228DF80F20A0B10B46024605
:1091C00002320A600DF10F01184604F0A6F99DF86D
:1091D0000F3043B10C4B1B6813F0040F03D00B4B43
:1091E0001B68032B04DC9DF80F0005B05DF804FB41
:1091F000074BD3F80435074A009240F2154206495E
:10920000042005F013FAEEE7482E0020442E00203B
:1092100000100140D05C0400C35C04002DE9F04361
:1092200091B005460E4614461F46D0F818800378C4
:109230004BB1C388C8F30C029A4230D29B1A434404
:10924000A3F50053AB6105F10C00EB7853B301219A
:10925000AA780DF130094B46082A14BF00220122DA
:1092600004F05FF9C5F81880CDF810900596AB783A
:10927000E21A92B2ADF8182032440A9209978DF89A
:109280002C300023ADF82030EB78002B41D02B7B25
:10929000022B09D000236B620193029316E09B1A04
:1092A0004344CFE70221D3E71023ADF820302B69E8
:1092B0000793EFE710AB03EB840454F83C3C6B627C
:1092C000002011B0BDE8F083019BB3B102AB01AA4D
:1092D0002979286A10F08AFC0024012CF4D810ABFC
:1092E00003EB840353F83C0C0028EDD003A9FFF7EF
:1092F0005FFF0028DED10134EFE72B7B022B2CD15E
:1093000005F10C01E88910F02BFD0028BFD10520E4
:10931000D7E72B7B012B01D00520D2E7EB89ADF8F5
:109320000430AB8AADF806300024012C13D829464E
:10933000002341F8243F10AB03EB440333F83C0C0B
:1093400010F079FC03A9686AFFF732FF08B901340D
:10935000EBE70020B5E70520B3E70520B1E7000003
:1093600070B5F0B00E4614461D4610AB0A460146D5
:109370002046FFF753FF50B1224B1B6813F0040F38
:1093800003D0214B1B68052B2FDC70B070BD20462D
:10939000FFF772FE0028F8D103AB01228DF80C20F4
:1093A000A28AADF80E20002204928DF8142010AA93
:1093B0000692A178711AADF81C1008AA93E8030070
:1093C00082E803000AAB04F10C0292E8030083E890
:1093D0000300A37D8DF83830236A0C93636A0D93E4
:1093E0000F9505A800F0FCFDCFE7084BD3F8043536
:1093F000074A009240F203720649062005F016F96A
:10940000C3E700BF482E0020442E0020001001407A
:10941000E45C0400C35C040010B50446C06E09F0AF
:10942000C2F804F1300003F0B7F894F84830022B8A
:1094300008D07022002120461BF0A4FD002002F07D
:10944000D7F810BD04F1500003F0A6F8F1E710B50D
:109450008CB0044690F84830012B0FD101238DF8D1
:109460000430636D029303F0E3F8039001A800F069
:10947000B7FD2046FFF7D0FF0CB010BD7846FFF7D0
:1094800077F9EBE730B585B00D460446A8B194F8FE
:109490004830022B15D02946606DFFF78FFB204620
:1094A000FFF7BAFF114B1B6813F0040F03D0104BEA
:1094B0001B68032B09DC05B030BD7846FFF758F96F
:1094C000E5E72046FFF714FAE5E70A4BD3F8043541
:1094D00094F8482002950192074A009240F2F31254
:1094E0000649042005F0A2F8E5E700BF482E002059
:1094F000442E002000100140105D0400C35C0400F5
:1095000008B508460021FFF7BDFF08BD08B5037B7D
:10951000012B02D0FFF79BFF08BD0121FFF7B2FF2F
:10952000FAE7000008B590F8513053B1013B80F8DC
:109530005130002380F85030034B186803F0A4FE2C
:1095400008BDFFF7E3FFFBE77835002010B50C46B8
:1095500091F84830012B03D12046FFF7E3FF10BDFF
:109560007846FFF705F9F7E770B5C6B00E46154621
:1095700082782A44C37D2BB14FF48073934278D311
:10958000002303E04FF4C073F8E70133032B14D832
:10959000C3EBC30C394C04EB0C1C9CF8481001299C
:1095A000F3D1BCF81440818A8C42EED1BCF80E4055
:1095B000C1898C42E9D1082554E00121FFF77AFDE9
:1095C0000446002857D02A463146C06E1BF0B1FC35
:1095D0000023459345A92046FFF746FC054608B100
:1095E000042842D1459B8BB9254B1B6813F0040F0F
:1095F00037D0244B1B68032B33DDB4F84AC0BCF1D1
:10960000800F28BF4FF0800C002313E02046FFF7A7
:1096100081FCE9E7E26ED25C1B490D681009590034
:109620002E5C04A800F8136002F00F020131AA5C5E
:10963000425401336345EDD304AA002302F81C30E1
:1096400003F1804303F58833D3F8043502920F4ABF
:1096500001920F4A00924FF4AC620E49042004F0CC
:10966000E5FF0025284646B070BD2046FFF7D4FE32
:10967000F8E70925F6E70425F4E700BF9435002054
:10968000482E0020442E00204C2E0020345D040083
:10969000805A0400C35C040070B504460D461646AB
:1096A000FFF7B4FC30B923782BB132462946204667
:1096B000FFF75AFF70BD324629462046FFF7F9FBF7
:1096C000F8E7000038B504460D46CB695B780371B6
:1096D000CB691B7883F00103C370CB6943628B8A2B
:1096E0000B2B07D8CB7A002B35D10B7B012B02D06B
:1096F000002300E001232370002B31D0287B0228B7
:109700002BD0FFF7E1F9A070AB8A03440B33174A63
:1097100082FB03235B10013B63720023237200234F
:10972000E37504F10C0395E8030083E80300AB69DB
:1097300023622B89A382AB7AA3752B6AA362DF23F2
:10974000E362284610F03AFB20B12B78012B0AD0B7
:10975000FF23E36238BD0123CDE7054B987DD0E7B9
:109760000423A370DBE72023F3E700BFABAAAA2AF8
:109770007C350020062979D1F0B585B0154690F8E2
:1097800000C04FEA8C1202F4FE5241788478C3780C
:109790001B0443EA0463047943EA042344791C4329
:1097A0004FFA8CF642EA91012846FFF733F9074653
:1097B000E0B1002E2FDBC289A98A8A422BD02C4B24
:1097C0001B6813F0040F30D02A4B1B68012B2CDDD3
:1097D000294BD3F8043502910192284A009240F2B5
:1097E0007D622749022004F021FF1EE0204B1B6808
:1097F00013F0040F19D01F4B1B68012B15DD1E4BF6
:10980000D3F804351F4A009240F279621C490220C5
:1098100004F00CFF09E0002E09DBFD6C2543FD641C
:109820004CB903213846FFF72DFE05B0F0BDAB8AD9
:10983000A7F85830F1E73B7883B17B7A5A1C0123B3
:109840009340013B9D420DD0002187F850103846CF
:10985000FFF70AFB3846FFF75DFBE6E77846FEF7C1
:1098600087FFEAE73846FFF7F2FDDEE7704700BF03
:10987000482E0020442E002000100140745D04009A
:10988000C35C0400445D04002DE9F0438BB007463F
:109890000E4614461D461046FFF7EEFB50B994F8ED
:1098A0000380B8F1000F08D12B46224631463846D6
:1098B000FFF760FF0BB0BDE8F0834046FFF740F9CB
:1098C00081460028F6D08DF80480236A0793A38A86
:1098D000ADF8123005AB04F10C0292E8030083E806
:1098E0000300A37D8DF820300297039623788DF82E
:1098F0001030E36A0993294601A8C847DAE792F8CD
:1099000001C01CF0010F08D010B5D47D14B1FFF7D1
:10991000BBFF10BDFFF724FDFBE7704708B5013919
:109920000130FFF7ECFF08BD10B54FF4E0720021E5
:1099300013481BF027FB06F093F90024114B1C6021
:109940008022214610481BF01DFB104B104A1A6064
:10995000104A5A604CF250329A600F49D9601A612D
:1099600004221A759C7508225A750C4803F06CFC89
:109970000B4B18600B4B1C600B4806F06FFC10BDC6
:109980009435002068350020E83400207C35002024
:1099900080969800F049020020A10700E19B020098
:1099A000783500206C350020E58B020008B506F004
:1099B00077F908BD98B110B58CB00446036983B13E
:1099C000C36983B1836983B101466846FFF77AFEB4
:1099D000A28A21696846FFF75FFE0CB010BD0E2019
:1099E00070470E20F9E70E20F7E70E20F5E700009C
:1099F00058B310B590B00A46044643683BB3836938
:109A00003BB3014604A8FFF764F8134B1B6813F03F
:109A1000040F03D0114B1B68062B06DCA26861689B
:109A200004A8FFF739FE10B010BD0D4BD3F8043574
:109A30002278A169029101920A4A009240F6050239
:109A40000949072004F0F2FDE8E70E2070470E20D8
:109A5000E9E70E20E7E700BF482E0020442E002053
:109A600000100140B85D0400C35C0400037B012BBF
:109A700001D00020704730B591B004460D463F4BF1
:109A80001B6813F0040F03D03D4B1B68032B5ADCFB
:109A900004A8002304930593CDF81730B4F806E02A
:109AA0009DF8101001F080018DF81010CEF3861C87
:109AB0004CEA01018DF810109DF8112002F003020C
:109AC0008DF8112042EA8E028DF811202A0E8DF8B1
:109AD00012202A0C8DF813202A0A8DF814208DF8F4
:109AE00015506278022A0CBF012119469DF81020FA
:109AF00002F07F028DF8102042EAC1128DF810208A
:109B00004FF0060209924FF001028DF82C20A28A34
:109B1000ADF82E200C938DF81C300890226A0D921F
:109B20008DF82830E36A0F9319D0E389ADF82A3015
:109B3000A37DF3B98DF838306FF0010107A8FFF766
:109B400057FF11B030BD0F4BD3F804350E4A0092C9
:109B500040F263220D49042004F068FD98E70DF1FE
:109B60000E0103A810F018F9BDF80C30ADF82A303A
:109B7000DEE7074B5B7D8DF83830DDE7482E0020AF
:109B8000442E002000100140E45D0400C35C04008A
:109B90007C35002090F84830022B00D0704710B57B
:109BA000044690F86830022B00D010BDC16CFFF75E
:109BB0005DFF0028F9D1002384F86830F5E7000044
:109BC00010B5002407E0C4EBC40213010348184495
:109BD000FFF7E0FF0134032CF5D910BD94350020C8
:109BE00008B5FFF7B7F9FFF7EBFF012008BD10B587
:109BF0000C4691F84830022B06D1022384F86830D5
:109C00002046FFF7C7FF10BD7846FEF7B1FDF4E729
:109C1000F0B583B00446C069A369E188060A00066E
:109C2000C3F30C0291422FD98A1A1A44A2F50052AA
:109C3000851846F100062A463346A08AFEF738FE0C
:109C4000002840F089802046FEF71EFF074630B30B
:109C5000C269D0F818C0C388100A1206CCF30C01F0
:109C6000994214D2591A6144A1F50051521840F199
:109C70000003AA4273EB06010DD3954276EB030372
:109C800030D3384603B0F0BD891ACA18D0E75B1A42
:109C900003EB0C01EAE705213846FFF7F3FBE38805
:109CA000E269A169A08A06F0E1F8E8B9627A0132B6
:109CB000E37DA3B3082101FB02F293B34FF4807359
:109CC000934231D302212046FFF7F4F907460028DA
:109CD000D7D100212046FFF7C9FE02210020FEF760
:109CE0006DFFCEE70027CCE7E388E269A169A08A8F
:109CF00006F034F908B90027C3E723785BB1637A2B
:109D000001330121994001392046FFF7AFFE20467B
:109D1000FFF7B2F9EFE77846FEF72AFDEFE70C21EF
:109D2000C9E74FF4C073CBE70C4B1B6813F0040F6B
:109D300003D00B4B1B68002B01DC0027A1E7094B6C
:109D4000D3F804350192084A009240F27F32074965
:109D5000012004F06BFCF0E7002792E7482E00207A
:109D6000442E002000100140F45D0400C35C040098
:109D70002DE9F04182B007460E461446984610463B
:109D8000FFF746FF002846D00546404B1B6813F0FE
:109D9000040F03D03E4B1B68032B3FDC2846FFF724
:109DA00001F92B7B012B47D0EB6C217A01228A40F1
:109DB000134230D11343EB64043E237AE27D002A40
:109DC00042D04FF0080C0CFB03FC697A8B423ED06A
:109DD000002A41D00823B34240D1AA69A3699A421C
:109DE00009D205F10C0E0C340FCCAEE80F0094E84C
:109DF00003008EE80300E86E3246391D60441BF014
:109E000098F8EC6C2B7873B36B7A5A1C012393404F
:109E1000013B9C422BD002B0BDE8F0811D4BD3F832
:109E20000435227A01921C4A009240F2A3321B4967
:109E3000042004F0FBFBB1E795F86830002BB3D1A8
:109E40002846FFF7C5F8AFE74FF00C0CBBE70CEB6B
:109E50000603A5F84A30C0E70C23BCE704212846D6
:109E6000FFF710FBD7E77846FEF782FCCCE7E96CFA
:109E70002846FFF7FBFD43462A46B5F84A10E86E30
:109E8000FFF73DFD2846FFF7C7FAC4E7482E00203C
:109E9000442E002000100140085E0400C35C040052
:109EA0002DE9F04190B000284CD00F4614461E46D4
:109EB0008046002A48D004AB00933346FEF7AAFE42
:109EC000054618B1284610B0BDE8F08104A8FFF798
:109ED0009DF805460028F5D100230293039302A9BB
:109EE00060880FF03DFF28B19DF8113043F0010369
:109EF0008DF811302269E168208905F06FFF38B1D3
:109F00009DF8113003F0FE038DF81130002BD9D0ED
:109F10009DF81130002BD5D013F0010F01D0039B19
:109F200008939DF8103033B1334604AA39464046B1
:109F3000FFF71EFFC6E7334604AA39464046FFF73F
:109F4000EDFCBFE70E25BDE70E25BBE7F8B508B36E
:109F50000E460546164B1F68F7B93C46B4420FD271
:109F600005EBC4035B68D3B115F8340015F9343040
:109F7000002B16DBB8B1FEF7E3FDB0B90134EDE715
:109F80000C4B43F8375003EBC7035E607B1C084A59
:109F9000136002E00E2700E004273846F8BD0E27C4
:109FA000FBE70B27F9E70F27F7E70F27F5E700BFD8
:109FB0006C35002070350020084B196861B110B570
:109FC00001E021463CB10C680B79002BF9D0034825
:109FD00004F096FAF5E710BD704700BF583700202F
:109FE00038B5054630B1104B1C68C4B10F4B012287
:109FF0001A7004E07846FEF7BBFBF4E724683CB136
:10A000002379002BFAD154F8043C28469847F5E709
:10A01000064B1B78022B03D0044B00221A7038BD6C
:10A02000FFF7CAFFF8E700BF583700205437002079
:10A0300010B5044630B100232372211D034804F0FB
:10A0400034FA10BD7846FEF793FBF4E7583700204A
:10A0500010B5044658B10A4B1B78013BDBB2012B0B
:10A0600009D8074B02221A700123237210BD7846CB
:10A07000FEF77EFBEFE7211D024804F041FAF5E709
:10A0800054370020583700200A8883689B5A0733CA
:10A090009BB223F0030313449BB20288043A934219
:10A0A00000D900230B80704710B582B00446836846
:10A0B000C91AADF806100DF10601FFF7E5FFBDF86E
:10A0C0000630A068184402B010BD0088043880B281
:10A0D000704743888268D018D1520123837070473B
:10A0E00082680023937043808380704708B50731EE
:10A0F00089B221F0030189B2428883889A4204D24E
:10A100009B1A994220DC002008BD9A4212D9B0F86F
:10A1100000C0ACEB020C614518D98B4218D3BCF1DE
:10A12000030F03D98368134404229A7000234380E9
:10A130001846E9E7826813449B780BB10420E3E7F3
:10A14000FFF7CEFF0020DFE70420DDE70020DBE79C
:10A150000420D9E738B504460D4683688288134445
:10A160008B4202D07846FEF703FB0023AB70211D23
:10A170002046FFF789FFA288A36813449B78042B2D
:10A1800000D038BD0023A380FBE710B50C468368E0
:10A19000428813448B4202D07846FEF7E9FA002346
:10A1A000A37010BD70B5054614460E46002944D074
:10A1B000002D46D0B6F1005F08D94FF08053D3F898
:10A1C0000C3103F50023B6EB832F0ED3B6F5000F49
:10A1D00008D94FF08053D3F80C3103F50053B6EB98
:10A1E000832F02D37846FEF7C3FA631E3344B3F1DC
:10A1F000005F08D94FF08052D2F80C2102F50022FE
:10A20000B3EB822F0ED3B3F5000F08D94FF0805275
:10A21000D2F80C2102F50052B3EB822F02D378461C
:10A22000FEF7A6FA042C10D92C8000236B80AB809B
:10A23000AE60043C3480B37070BD7846FEF798FA87
:10A24000B6E77846FEF794FAB4E77846FEF790FA58
:10A25000EAE738B50446A0B16288A36813449B7846
:10A26000012B12D0EFF3108572B6A388A1681944B0
:10A270008B78032B0DD02046FFF732FF05B962B66D
:10A2800038BD7846FEF774FAE6E77846FEF770FACE
:10A29000E8E72046FFF708FFA368C31A638000239E
:10A2A0008370EBE72DE9F0410E4614460546D0B128
:10A2B000EEB16A88AB6813449B78012B1BD024B3A2
:10A2C0002846FFF702FFA04221D3EFF3108872B6B1
:10A2D00021462846FFF70AFF074680B1B8F1000F74
:10A2E00016D162B614E07846FEF742FAE0E7784607
:10A2F000FEF73EFADDE77846FEF73AFADFE7214659
:10A300002846FFF7E6FE3060E8E7092700E0092766
:10A310003846BDE8F081F8B50C4615460646E0B172
:10A32000FCB1A378012B20D12388AB4221D325B3E4
:10A33000EFF3108772B625800223A370F118304620
:10A34000FFF7A2FE7388B288934203D0B268134429
:10A3500000229A7007B962B6F8BD7846FEF708FA8F
:10A36000DEE77846FEF704FADBE77846FEF700FA08
:10A37000DAE77846FEF7FCF9D9E77846FEF7F8F910
:10A38000D6E770B50C46054690B1ACB1EFF3108638
:10A3900072B6AA88AB6813449A78042A10D09A78C7
:10A3A000022A15D0032A18D0052006B962B670BD5E
:10A3B0007846FEF7DDF9E8E77846FEF7D9F9E5E7F4
:10A3C000291D2846FFF760FEAA88AB681344E6E71C
:10A3D00003229A7023600020E7E77846FEF7C8F969
:10A3E0000020E2E738B5044680B1EFF3108572B67D
:10A3F000A088A16801448B78042B0BD088780228B0
:10A4000014BF0020012005B962B638BD7846FEF7BA
:10A41000AFF9EAE72046FFF747FE0146EEE738B519
:10A42000054630B1EFF3108472B6A888A9680144DC
:10A4300007E07846FEF79CF9F4E72846FFF734FE7C
:10A4400001468878C31EDBB2012BF6D9022814BF5F
:10A450000020012004B962B638BD70B50C4606462E
:10A4600078B194B1EFF3108572B6A378012B10D0B8
:10A47000032B13D121463046FFF76CFE05B962B6B7
:10A4800070BD7846FEF774F9EBE77846FEF770F991
:10A49000E8E721463046FFF778FEEFE77846FEF71B
:10A4A00067F9EBE710B5EFF3108472B68388816823
:10A4B00019448B78042B06D08878B0FA80F04009D4
:10A4C00004B962B610BDFFF7EFFD0146F4E70000E6
:10A4D000024B00221A769A60022070475C370020F7
:10A4E00008B5064B986800221A605A609A60DA60D4
:10A4F0001A615A619A6105F061F808BD5C37002065
:10A5000000B585B00A4BDB6802228DF8002001936C
:10A510004FF480530293074A6946012001F0FAFA8A
:10A5200018B9012005B05DF804FB0020FAE700BF70
:10A530005C3700207A37002000B585B00A4B1B68D5
:10A5400002228DF8002001934FF480530293074AB2
:10A550006946012001F0DEFA18B9012005B05DF866
:10A5600004FB0020FAE700BF7C3700207A37002088
:10A57000164BDA68137951795B1A03F57F2303F6DA
:10A58000FF7302EB03339A4205D002F580520F4B62
:10A59000DA600320704700B585B00D4B1B680120C1
:10A5A0008DF8000001930B4B0393042302930A4A96
:10A5B000694601F0AFFA18B1002005B05DF804FB60
:10A5C000024B01221A760220F7E700BF5C37002019
:10A5D0007C370020803700207A37002000B585B016
:10A5E0000C4BDA680C4B1B68043301208DF800001B
:10A5F0000192039340F6FC730293084A694601F006
:10A6000089FA28B90120034B187605B05DF804FBE0
:10A610000020FAE75C3700207C3700207A370020E2
:10A6200000B585B00A4B1B6801208DF8000001932E
:10A63000084B039304230293074A694601F06AFA20
:10A6400018B9012005B05DF804FB0020FAE700BF4F
:10A650007C370020683700207A37002010B584B09E
:10A66000104BDA681478104B1B68043301208DF806
:10A6700000000193039202940C4A694601F04AFAE1
:10A6800070B9094B1B6804F0FC041C440434054BEE
:10A690005C61D9680A780A441A61012004B010BDCF
:10A6A0000020FBE75C3700207C3700207A37002051
:10A6B00008B500230A2B09D8064A52F82320824203
:10A6C00001D00133F6E7044A536002E07846FEF712
:10A6D0004FF808BDC05E04005C37002010B5214B68
:10A6E000DB6853B11F4B1B7E5BB91E4B5B680A2BAB
:10A6F00026D97846FEF73CF822E07846FEF738F88F
:10A70000F0E77846FEF734F8EFE7164A536801336E
:10A7100053600A2B21D97846FEF72AF81DE0114B29
:10A7200000225A6019E00F4B1B7E1BB10D4B022219
:10A730001A7012E0FFF7D4FE0FE00A4B1B7E83B9BC
:10A74000084B5A68084B53F82230984704460228B1
:10A75000E9D00328E3D00128D7D0012CEDD0032C79
:10A76000EBD010BD5C370020C05E0400104B1B68AE
:10A770001B685A1E12F1030F18D8C3F30B020AB15B
:10A780000020704710B50B4AD36000231376537630
:10A790000124147093600848FFF78AFF0749204698
:10A7A00001F0A6F9FFF79AFF204610BD0020704780
:10A7B0007C3700205C37002001A50200C1A7020001
:10A7C00008B50B78032B06D00B4B1B78012B06D05A
:10A7D000022B0BD008BD084B00221A76F4E7064B7B
:10A7E0001B7E002BF6D1FFF779FFF3E70B78032BE5
:10A7F000F0D1FFF775FEEDE75C37002000B585B0BE
:10A80000174BDB6818784FF6FF7203F58051184438
:10A8100005F0DAFCE0B10246114BD9680B780B4425
:10A82000984217D00E4B5B7E83B10E4B01208DF802
:10A83000000001920393042302930B4A694601F03E
:10A8400069F948B90120064B187606E0074BEDE799
:10A85000012002E0012000E0002005B05DF804FBCB
:10A860005C370020946104007A3700209061040076
:10A8700008B5104BDB681878002203F580511844A6
:10A8800005F0A2FC08B1012008BD0A4BDA68137973
:10A8900051795B1A03F57F2303F6FF7302EB033351
:10A8A0009A4205D002F58052024BDA600320EBE7B2
:10A8B0000220E9E75C370020F0B585B0514BDE6837
:10A8C00072793379591E8A4214D006F580510D7879
:10A8D0000D444D490968081D0F7907449B1A06EB82
:10A8E00003366B88013B9BB247F6FE62934260D908
:10A8F0002C461AE00120434B58767EE07846FDF75F
:10A9000037FF15E024F47F6424F00F0404F580542D
:10A9100023781C44A6421CD9A5421CD26388013B63
:10A920009BB247F6FE62934211D92388002BE5D0F3
:10A93000238804EB830323F47F6222F00F02934207
:10A94000E0D06288B2F5FE4FDCD01C46E2E7254637
:10A950002FE000252DE000252BE07846FDF708FFCD
:10A9600015E024F47F6424F00F0404F58054237868
:10A970001C44A6421CD9A54237D26388013B9BB236
:10A9800047F6FE62934211D92388002BE5D0238835
:10A9900004EB830323F47F6222F00F029342E0D0A2
:10A9A0006288B2F5FE4FDCD01C46E2E7254600E0A7
:10A9B0000025E5B1144B19686A8801F580513846C5
:10A9C00005F002FC074690B101200E4B18768DF879
:10A9D000000001950D4B0393042302930C4A694632
:10A9E00001F098F858B92C46CEE70025E1E7B5FA12
:10A9F00085F56D09034B5D76012005B0F0BD0020A3
:10AA0000FBE700BF5C3700207C3700208C6104002E
:10AA10007A3700202DE9F04186B0654B1B6923B1E0
:10AA2000634B5B692BB1002748E07846FDF7A0FE39
:10AA3000F6E77846FDF79CFEF5E7A04618E0784675
:10AA4000FDF796FE18E028F47F6828F00F0808F557
:10AA5000805898F800309844454520D944454AD25A
:10AA6000B8F80230013B9BB247F6FE62934214D91C
:10AA7000B8F80030002BE2D0B8F8003008EB8303C0
:10AA800023F47F6222F00F029342DCD0B8F8022058
:10AA9000B2F5FE4FD7D09846DEE7444600E00024EA
:10AAA0003CBB00230093019B002B5CD10127002CB1
:10AAB00078D0628847F6FF739A4273D0002F75D121
:10AAC0003B4B5A6922F47F6626F00F06B61A06F54C
:10AAD00080561C69DD682B796A799B1A05EB033572
:10AAE000002301936388013B9BB247F6FE629342C9
:10AAF000A3D800940EE00024D2E77846FDF738FE94
:10AB000023E024F47F6424F00F0404F580542378B8
:10AB100023441C46A542C6D92388019A02EB83022E
:10AB20009642C0D9009B634023F47F6323F00F0358
:10AB3000002BB8D16388013B9BB247F6FE618B4284
:10AB4000B1D801922388002BD7D0238804EB83034C
:10AB500023F47F6222F00F029342D2D06288B2F5D2
:10AB6000FE4FD6D1CDE7124A526901208DF8080078
:10AB70000392009A059204930E4A02A900F0CAFFBC
:10AB800070B90B49019B23F003024B6913444B61DD
:10AB900014B1074B1C618AE77846FDF7E9FDF8E739
:10ABA000002000E0012006B0BDE8F0810120FAE7B6
:10ABB0005C3700207A37002000B585B00023294A91
:10ABC0001370D3F8F83FB3F1FF3F09D0B3F1FF3F63
:10ABD0000DD08BB1B3F1FF3F39D0A3F5805211E016
:10ABE0004FF010225269B2F1FF3FEFD104E04FF075
:10ABF00010225269002AEDD14FF080535A691B6927
:10AC000003FB02F2A2F58052174B1A60174B1B6828
:10AC100013F4801F16D0164B1B68062B12DD154B44
:10AC2000D3F804350021D1F8F81FB1F1FF3F14D05B
:10AC300002920191104A009240F276220F490720B9
:10AC400003F0F4FCFFF792FD05B05DF804FB4FF054
:10AC500010235A69A2F58052D4E74FF010214969B8
:10AC6000E6E700BF783700207C370020482E002020
:10AC7000442E0020001001408C5E0400735E04002E
:10AC800010B50446B0B1104B1B78BBB10E4BD96860
:10AC9000E3685879A3EB0032914211D31A79121A62
:10ACA00002F57F2202F6FF7203EB0233994209D8C4
:10ACB000012004E07846FDF75BFDE4E7002010BDCD
:10ACC0000020FCE70020FAE75C370020024B1878F0
:10ACD000003818BF012070475C37002010B50446CB
:10ACE000124B1B78BBB92378032B18D10F4B9C60F8
:10ACF000E268DA600E4B1B78ABB10A220B4B5A604C
:10AD000000221A76012018705A760A4900F0F0FEE7
:10AD1000FFF7E4FC10BD7846FDF72AFDE3E778462F
:10AD2000FDF726FDE2E70022E8E700BF5C370020E0
:10AD300078370020C1A70200014B1868704700BF98
:10AD40007C37002010B5044680B163681BB12368CE
:10AD50000BB1A36813B97846FDF70AFDA3685A1E24
:10AD6000134207D10023E360236110BD7846FDF74D
:10AD7000FFFCEAE77846FDF7FBFCF3E770B508B3A4
:10AD80000E4604468368FBB1EFF3108572B6036983
:10AD9000C268934212D001684268806800F1FF3CAB
:10ADA00003EA0C0303FB021116B130461AF0C1F896
:10ADB0002369013323614DB962B608E005B962B673
:10ADC000052504E00E2502E0092500E000252846BF
:10ADD00070BD00000246C0F30B0030BB39B301F672
:10ADE000FF714FEA113C134B0221C3F80415114BBC
:10ADF000D3F80034002BFAD001460AE00D4BC3F81B
:10AE000008250C4BD3F80034002BFAD002F5805201
:10AE100001316145F2D3074B0022C3F80425054BED
:10AE2000D3F80034002BFAD0704710207047092067
:10AE3000704700BF00E00140844610F0030F2DD1A1
:10AE400011F0030F2CD16AB312F0030F2CD190082C
:10AE5000164B0122C3F80425144BD3F80034002B01
:10AE6000FAD003E00CF1040C04311046421E58B134
:10AE70000B68B3F1FF3FF5D0CCF800300B4BD3F8A3
:10AE80000034002BFAD0EDE7084B0022C3F804256C
:10AE9000064BD3F80034002BFAD0704710207047CF
:10AEA00010207047092070470920704700E00140DA
:10AEB000094B1B7813F0040F02D00378122B00D03B
:10AEC0007047064B1A68064B5A60034B1A786FF3AB
:10AED00082021A70F4E700BF2838002018380020DA
:10AEE000B437002010B582B001900C46BDF8063092
:10AEF000012B11D123680A490B600A4B1A7842F0E2
:10AF000001021A70D3B25B0883F0010303F001035E
:10AF10000B71002002B010BD7846FDF729FCE9E76F
:10AF2000183800202838002010B582B001900C4657
:10AF3000BDF80630022B0FD12268094B1A60227926
:10AF40001A71002058719871D871064A137843F02D
:10AF50000203137002B010BD7846FDF709FCEBE761
:10AF6000103800202838002010B582B001900C461F
:10AF7000BDF80630032B06D1054B186820601B79FD
:10AF8000237102B010BD7846FDF7F2FBF4E700BF75
:10AF90001838002010B582B001900C46BDF806307C
:10AFA000032B0CD1084B2068186022791A71074ACC
:10AFB000137843F001031370002002B010BD7846EF
:10AFC000FDF7D6FBEEE700BF183800202838002038
:10AFD00010B582B001900C46BDF80630042B05D1A7
:10AFE000044B03CB2060616002B010BD7846FDF7D2
:10AFF000BFFBF5E71038002010B582B001900C4679
:10B00000BDF80630042B0BD1074B2068616803C3E1
:10B01000064A137843F002031370002002B010BDFB
:10B020007846FDF7A5FBEFE7103800202838002010
:10B0300000B583B00190BDF80630032B06D1054B57
:10B0400000221A601A7103B05DF804FB7846FDF720
:10B050008FFBF4E71838002000B583B00190BDF8ED
:10B060000630042B06D1054B00221A605A6003B04B
:10B070005DF804FB7846FDF77BFBF4E71038002011
:10B0800000B585B01A4B1B7813F0400F13D0184B46
:10B090001B7813F0040F0BD1002301938DF80830B7
:10B0A000144B5B6803F500530193B3F1807F06D91D
:10B0B00005B05DF804FB7846FDF75AFBE7E70E4B59
:10B0C0001B788DF808300A4A137843F00403137094
:10B0D0000023ADF80C300323ADF80E3001A903981E
:10B0E00006F054FA0028E3D07846FDF741FBDFE78D
:10B0F00028380020B43700202938002000B585B05A
:10B100000022019202920F4B996801911B7B8DF8EE
:10B1100008300D490B780133DBB20B708DF80B3022
:10B12000ADF80C200423ADF80E300DEB03010398AD
:10B1300006F02CFA10B905B05DF804FB7846FDF76F
:10B1400017FBF8E7B43700202938002000B585B098
:10B150000023019302930F4A91680191117B8DF8AE
:10B160000810128AADF809200B4A12788DF80B20CE
:10B17000ADF80C300423ADF80E300DEB030103984D
:10B1800006F004FA10B905B05DF804FB7846FDF747
:10B19000EFFAF8E7B43700202938002000B58DB069
:10B1A0000B4B1B7B012B0ED0094A926804928DF841
:10B1B0000830039002238DF8043001A8FEF710FF39
:10B1C0000DB05DF804FB024A9268013A0492EEE782
:10B1D000B437002008B51D481D4B036000F038FF50
:10B1E0001C4B1B7813F0200F2AD103F00303032B11
:10B1F00014D1194B1968194A916019791173B3F870
:10B2000005001082DB79164A1370164A12799342B0
:10B2100017D0B1B9114B00221A6007E00F4B002282
:10B220001A609A601A731A82FFF768FF0B4B1A684C
:10B230005A60084A137843F040031370FFF720FF69
:10B2400008BD084B1A68054B1A60EFE70438002068
:10B25000B1AE02002838002010380020B43700209A
:10B26000293800201838002010B582B00024ADF82D
:10B2700000400123ADF80230009806F0B8F9ADF8AF
:10B2800004400223ADF80630019806F0B0F902B090
:10B2900010BD000008B5002006F0D0F9094A0023CF
:10B2A000136053609360D3601361074A117863F3AE
:10B2B00045111170CBB243F040031370FFF7E0FE6D
:10B2C00008BD00BFB43700202838002038B50C4D29
:10B2D00000242C606C60AC60EC602C6101F0A8F97B
:10B2E000084B5860084A9A60084ADA601C615C6141
:10B2F000074B1A7864F3C3021A706C6038BD00BF44
:10B30000B4370020903700206DB40200008793030B
:10B310002838002008B50C4B1B7813F0100F00D014
:10B3200008BD0A480A4B036000F092FEFFF752FF87
:10B33000FFF79AFF074801F0FFF8034A137843F03C
:10B3400010031370ECE700BF28380020A837002056
:10B35000C5B5020090370020034B1878800880F0B4
:10B36000010000F0010070472838002010B501F0FE
:10B37000EDFE174B1B7B1BBB154B9B7B2BBB144B59
:10B380001A8A41F282639A4206D8124B1B7813F054
:10B39000080F05D0012300E001231BB9082410E0A9
:10B3A0000023FAE70A4B01221A7300241C829A68D0
:10B3B00001329A60FFF7A2FE2046FFF7EFFE00E0A1
:10B3C000082401F009FF204610BD0824F9E700BF5A
:10B3D000B43700202838002010B501F0B7FE214B0B
:10B3E0005B7BABB11F4B9B7B03BB1E4B1A8A41F2AD
:10B3F00082639A4206D81C4B1B7813F0080F05D0C5
:10B40000012300E001239BB1012302E00023FAE7BE
:10B4100000231C460BB3134B00225A731B7B4BB10A
:10B42000012B0ED07846FDF7A3F916E00023F0E7D4
:10B430000023EEE7FFF79AFF78B17846FDF798F919
:10B440000BE0084B00201860586018731882FFF753
:10B45000A5FEFFF753FEFFF713FE01F0BDFE2046E9
:10B4600010BD00BFB43700202838002008B52C4B91
:10B470001B7BDBB1012B2ED07846FDF779F9284AEA
:10B48000138A01339BB21382264AA2FB03121209CC
:10B49000C2EB0212A3EB42039BB2002B3DD0204B28
:10B4A0005B8A13B1013B1E4A538208BD1C4B1A8AAA
:10B4B00041F282639A4206D81B4B1B7813F0080FA7
:10B4C00007D0012300E00123002BD8D0FFF784FF31
:10B4D000E5E70023F8E7124B1B8A41F282629342B0
:10B4E00006D8114A127812F0080F14D0012200E099
:10B4F0000122002AC3D042F2B012934202D9084B73
:10B5000001225A73FFF768FF0028C8D1044B5B7B08
:10B51000012BB4D1C3E70022EBE7FFF717FEBEE72C
:10B52000B4370020898888882838002010B5244B3B
:10B530001B7B002B35D10446214B5B8A2BBB1AB9F0
:10B540001F4B9B688B4205D3FAB11D4B9B6801339F
:10B550008B421AD21A4B9B682A338B4223D3184B47
:10B560009B7B03BB164B996000221A605A601A82BB
:10B5700042F6065159825A731A73FFF7BFFDFFF75F
:10B580007FFD2046FFF70AFE0DE062B10C4B9B6881
:10B5900001338B4207D10A4B01225A73FFF71CFF7C
:10B5A00001E0012B00D010BD002AFCD1044B9B68A8
:10B5B0008B42F8D1024B01225A73FFF70DFFF2E7DD
:10B5C000B43700200378042B00D0704743681B7801
:10B5D000002BFAD010B58468027E437E012A14BF86
:10B5E00000220122416904F11000FFF79FFF10BD06
:10B5F00008B538B10D4B01229A730D4A1368013317
:10B60000136008BD0A4B1B685BB1094A1368013B14
:10B610001360002BF5D1054B00229A73FFF7DCFE77
:10B62000EFE77846FDF7A4F8EFE700BFB437002056
:10B630008437002000B58DB0ADF808008DF81020DB
:10B64000039103238DF8043001A8FEF7C9FC0DB067
:10B650005DF804FB014B9868704700BFB4370020C9
:10B66000054B1B7B012B02D0034B98687047024BA4
:10B6700098680138704700BFB43700201D4B1B7815
:10B6800013F0400F34D070B504460D461A4B1A68BB
:10B690005B689A4228D2184B1B7B012B17D0174BA3
:10B6A0009A4216D2144B1A685B68403B9A4218D2F1
:10B6B000EFF3108672B6104A1368591C11602B60A4
:10B6C000FFF7CEFF206006B962B6002070BD0C4BBC
:10B6D000E6E7094B01225A73FFF77EFE0028E7D107
:10B6E000E0E7FFF7CDFCE3E7FFF7CAFC0F20EDE74B
:10B6F0000F20704728380020B4370020FFFF7F005C
:10B7000000E0FF00044B9B68584010F0010F00D090
:10B71000013B1846704700BFB4370020014B187B2F
:10B72000704700BFB4370020F8B5104B1B7813F0FA
:10B73000200F01D00820F8BD17460C4E43F020031F
:10B7400033700B4DA860297300242C82FFF7D6FCC0
:10B750002046FFF723FD2F606F60337843F04003EE
:10B760003370FFF78DFC2046E5E700BF2838002046
:10B77000B437002008B50022FFF7D6FF08BD00004F
:10B780002DE9F041002625E0134604FB03F3244A8B
:10B79000D25A3046C0472249BC2304FB03F3CA5A9D
:10B7A0000132CA520221284602F0F2FC013702217E
:10B7B000284602F0BDFC014649B1194BBC2202FBF0
:10B7C0000433D3F80880B8F1000FDDD1E3E797B96F
:10B7D0000136F6B2022E1FD83446BC2306FB03F313
:10B7E00008330F4D1D4404350221284602F0A0FC09
:10B7F00001460027E0E7284602F032FD0828E7D19D
:10B80000074BBC2202FB0434A368002BE0D00022CB
:10B81000044930469847DBE70120BDE8F08100BFCE
:10B8200034380020FC5E040008B50823837310231D
:10B83000437300F11C0343610323037300F11803F6
:10B8400003610C3002F0DEFC08BD000008B503788F
:10B85000012B06D0022B06D07846FCF789FF00208A
:10B8600002E0292000E0014808BD00BF084C0100AB
:10B8700008B50378012B07D0022B15D07846FCF7CA
:10B8800077FF4FF4FA730AE08368591A21F0030333
:10B8900003EB9103DB0003EB910303F5FA73074815
:10B8A000984228BF184608BD83685B1A1B0B0448E2
:10B8B00000FB03F303F5FA73F1E700BF60850100B5
:10B8C000084C010038B5044601210C3002F030FC70
:10B8D000054678B1084BC4F89C300023C4F8A0306A
:10B8E0006168FFF7C5FFC4F8A800C4F8AC400123A5
:10B8F00084F8B830284638BD19BA020010B504469D
:10B90000FFF7E0FF20B104F19C000FF017F800B939
:10B9100010BD7846FCF72CFFFAE70000F8B50546A5
:10B920000C46164617680378012B19D11249A1FB62
:10B93000043149098B00AC68E41BB4EB810F00D3E0
:10B940001C468CB1686827F00307E9682246394431
:10B950003844FFF771FA58B9336823443360F8BDAF
:10B960007846FCF705FFE1E77846FCF701FFE9E7D9
:10B970007846FCF7FDFEEFE77D0CCEC7F8B506462E
:10B980000C46154617680378022B17D1114BA3FB01
:10B9900004231B0C1A03B468E41BB4EB033F00D36D
:10B9A00014467CB1706827F0030721463844FFF73E
:10B9B00011FA58B92B6823442B60F8BD7846FCF780
:10B9C000D7FEE3E77846FCF7D3FEEBE77846FCF7D3
:10B9D000CFFEEFE7EB0661C538B505460C461146CC
:10B9E0002378012B06D0022B0FD07846FCF7C0FE3F
:10B9F000002004E0021D2046FFF790FFA0686B685E
:10BA0000834214BF0020012038BD021D2046FFF7ED
:10BA1000B5FFA068F3E700002DE9F8430F46D1F821
:10BA2000A850254B1B786BB90446A5F5FA7501F1B2
:10BA30000C080121404602F07BFB064648B14FF05E
:10BA4000000922E00EF0B6FF002387F8B830BDE809
:10BA5000F8837846FCF78CFEF1E70EF0ABFF01218E
:10BA6000404602F095FB00237B6087F8B830134B0B
:10BA7000186801F009FC3846FFF740FFE7E7304659
:10BA8000FFF7E4FE4844A8420FD8A5EB090231466F
:10BA90003846FFF7A1FF0028DFD101F01FFAB0EB15
:10BAA0000409ECD5A4EB0009E9E70EF083FF384662
:10BAB000FFF724FFCBE700BF303800202C380020F0
:10BAC00010B5084801F0C0FB074B1860002406E0E1
:10BAD000064BBC2000FB0430FFF7A6FE0134022C0D
:10BAE000F6D910BD81B702002C3800203438002070
:10BAF00038B504460D46022805D80548BC2303FB8B
:10BB00000404A56038BD7846FCF732FEF5E700BFB7
:10BB1000343800202DE9F84305460C461746022824
:10BB200016D8CCB12378012B1AD0022B3ED16368F2
:10BB3000C3F30B03002B31D1A368C3F30B03002B1A
:10BB400030D1A368002B34D17846FCF711FE30E0E9
:10BB50007846FCF70DFEE4E77846FCF709FEE1E7DE
:10BB6000636813F0030F0DD1E36813F0030F0DD1D9
:10BB7000A36813F0030F0DD1A368D3B97846FCF77F
:10BB8000F7FD16E07846FCF7F3FDEDE77846FCF7A5
:10BB9000EFFDEDE77846FCF7EBFDEDE77846FCF7C7
:10BBA000E7FDC9E77846FCF7E3FDCAE77846FCF70E
:10BBB000DFFDEFF3108872B6BC2605FB06F606F132
:10BBC00008032A4E1E4404360021304602F0B0FA23
:10BBD000814678B30021304602F0DAFA20686168C5
:10BBE000A268E368C9F80000C9F80410C9F8082081
:10BBF000C9F80C302FB11D4BBC2202FB05335B880A
:10BC00003B801A4BBC2202FB05335A8801325A8012
:10BC100093F8B83083B9164B1B7813B10024A146B2
:10BC20000CE0124BBC2000FB0530FFF74BFE8146B9
:10BC3000002403E0042401E00024A146B8F1000F31
:10BC400000D162B6B9F1000F09D0BC2005FB00F0AD
:10BC50009830064D284404300EF070FE10B920468E
:10BC6000BDE8F8837846FCF783FDF8E73438002018
:10BC70003038002038B50446EFF3108572B610B99D
:10BC8000164B1B6873B18CB1144A136801331360EF
:10BC9000124B1B68003B18BF0123114A137005B9F2
:10BCA00062B638BD7846FCF763FDECE70B4B1C68C9
:10BCB000013C1C600CB1EBE70134022CE8D8094BC5
:10BCC000BC2202FB043393F8B830002BF4D1054BAF
:10BCD00002FB0430FFF712FEEEE700BF683A0020D7
:10BCE000303800203438002018B1830B024AD05C71
:10BCF00070470020704700BF0C5F040012DF7047E0
:10BD000000B583B001F020FF40B10C4B1B6813F06D
:10BD1000400F03D00A4B1B68012B02DC03B05DF817
:10BD200004FB084BD3F804350190074A00927522B2
:10BD30000649022002F07AFCF0E700BF482E0020FE
:10BD4000442E002000100140685F04005B5F040087
:10BD500000B58DB0114B1B78022B06D07846FCF74E
:10BD600007FD01200DB05DF804FBFFF7F5FA18B9E7
:10BD70000B48FEF75DF9F4E70FF058FB074B032281
:10BD80001A702C22002101A819F0FCF81D238DF84F
:10BD9000043001A8FEF724F9E3E700BF703A002061
:10BDA000382E00200B4B1B78042B00D0704700B5B9
:10BDB0008DB0084B05221A702C22002101A819F021
:10BDC000E1F81C238DF8043001A8FEF709F90DB045
:10BDD0005DF804FB703A002008B50378122B00D000
:10BDE00008BD0448FEF734F9034B186801F04CFA1B
:10BDF000F6E700BF382E00206C3A002010B58AB05C
:10BE00000FF058FB70B3044600238DF810300DF18D
:10BE1000140C8646BEE80F00ACE80F00DEF80030D8
:10BE2000CCF80030627D052A04D9237D03F00F038E
:10BE3000072B1ED1164B1A688AB104AB0393237DDE
:10BE4000C3F303038DF80430637D062B1BD9063B37
:10BE50008DF8053004F11D03029301A89047204698
:10BE60000FF006FB0FF042FB80F00100C0B20AB0F9
:10BE700010BD207D04AB063A04F11D0100F00F0057
:10BE80000EF00EF8D6E700238DF805300293E4E7B4
:10BE9000743A002070B582B0314B1B78002B54D11E
:10BEA0000446002855D0067A0F2E01D0062E52D116
:10BEB00006F074FBE06870B1FCF76CFC0DF1070054
:10BEC000FFF71CFF0546002840D19DF80730012BE5
:10BED00004D002253AE0FCF76BFCEFE7FCF78CFCA2
:10BEE00000F012FB304601F0CFF8E07800F032F9B4
:10BEF00000F0BEFE0EF0A4FC1A480FF093FB0EF00B
:10BF00007BF90DF0AFFFFFF7DBFD05F003FB00F061
:10BF10000BFD06F003FB06F09FF8204601F01CFD28
:10BF2000FDF702FD04F000FDFCF770FB08B10628E8
:10BF300013D10D4801F088F90C4B18600C4B00220E
:10BF40001A60074B01221A7000E00825284602B04B
:10BF500070BD0E25FAE70725F8E70546F6E700BFAE
:10BF6000703A0020FDBD020051BD02006C3A002075
:10BF7000743A002010B582B0204B1B78012B0DD0F5
:10BF80005AB2002A35D0043BDBB2012B33D80EF075
:10BF9000C5FC044628B3204602B010BD01F0ECFCFD
:10BFA000FDF704FDFCF732FB0446B8B1062815D0B6
:10BFB000134B1B6813F4804FEDD0124B1B68012B01
:10BFC000E9DD114BD3F804350190104A00924FF48B
:10BFD000C2720F49022002F029FBDCE701F08AF867
:10BFE000D5E7064B02221A700A4B186801F04CF98B
:10BFF000D1E70824CFE70824CDE700BF703A00203E
:10C00000482E0020442E002000100140945F0400C0
:10C010005B5F04006C3A002008B5094B1B78032BCA
:10C0200001D0082008BD064B04221A7005480EF006
:10C0300029FC0028F6D07846FCF79AFB0020F1E7AF
:10C04000703A0020A5BD020008B5FDF7B3FC08BD9D
:10C0500008B5FDF7EDFF08BD08B5FDF7F9FF08BD10
:10C0600008B500F0CBFD002008BD08B507F010FFB3
:10C0700008BD0000074A136801331360B3F1704F25
:10C0800002D0044B18687047134600221A60012240
:10C090001A60F6E7783A002010B5044618B100237C
:10C0A0002360636010BD7846FCF762FBF7E738B5A4
:10C0B0000C46054668B184B100236360EFF310833A
:10C0C00072B62A686AB16A6854606C6003B962B675
:10C0D00038BD7846FCF74CFBEDE77846FCF748FBAB
:10C0E000EAE72C60F1E710B5044658B1EFF310838E
:10C0F00072B6206808B142682260226832B103B982
:10C1000062B610BD7846FCF733FBEFE76260F6E7F6
:10C1100010B5044608B1206810BD7846FCF728FB2E
:10C12000F9E735DF7047000008B54FF0FF30FFF743
:10C13000F8FFBFF34F8F0549CA6802F4E062044B71
:10C140001343CB60BFF34F8F00BFFDE700ED00E06E
:10C150000400FA05072814D8DFE800F0080C1504DD
:10C16000110F0A066420704714207047FA207047A8
:10C170001E2070474FF4FA707047322070474B20F2
:10C180007047FA207047962070470000024B5868AD
:10C19000103840B2704700BF00ED00E003460028B1
:10C1A0000FDB5B11084A52F82330424200F01F00B7
:10C1B00002F01F0258BF504223FA00F000F00100C5
:10C1C000704700F11F03ECE700E100E046DF704735
:10C1D00038B504460D464B1EDBB2012B0AD80023AE
:10C1E00023616361A361E3612046FFF7EFFF4FF036
:10C1F000010C1AE07846FCF7BBFAF0E7CA5CC818F5
:10C200005200D2B2CA54407842EAD012CA54013322
:10C210009BB20E2BF2D9CB7B5B00CB73BEF1000F30
:10C220000ADB0CF1010C5FFA8CFCAC450BD8214603
:10C2300011F920EF0023ECE794F82F3083F0870307
:10C2400084F82F30EDE738BD2DE9F04190B08446F9
:10C250000C4696461F4602F10F084FEA281604AD19
:10C260000068DCF80410DCF80820DCF80C300FC59E
:10C270000EF00F055FEA181302D07DB1002300E035
:10C280000023984663B1012104A8FFF7A1FFB8F18C
:10C29000000F1AD0701E000110230EE00123F0E7FA
:10C2A0000221F1E7013B9BB22218D25C10A919448C
:10C2B00011F8101C4A400DF80320002BF2D1002584
:10C2C0000C950D950E950F9533E0711EADB22A4673
:10C2D00004EB0111684618F02CFE80230DF80530A0
:10C2E0006B1C03E000220DF8032001330F2BF9DD56
:10C2F00010230AE0013B9BB21DF8032010A919444A
:10C3000011F8101C4A400DF80320002BF2D1D6E79B
:10C31000013A92B210AB134413F8100C63189B5CF3
:10C32000584008AB9854002AF2D104A8FFF74EFFFA
:10C330000135731EAB4202DD29011022F3E7102301
:10C340000AE0013B9BB210AAD11811F8402C11F859
:10C35000101C4A4008A9CA54002BF2D104A8FFF7C8
:10C3600035FF0CAC0FCC38607960BA60FB6010B060
:10C37000BDE8F08110B50446134B1B6893B14168CA
:10C38000114B1B685B68CB1A002B0BDB0E4B1B6839
:10C3900018465B691BB15A68521A002AF8DB6361C0
:10C3A000446103E0084B1A6862611C60064A938886
:10C3B0009BB201339BB2938013B10123237010BD54
:10C3C0007846FCF7D5F9F8E7843A002038B50546F9
:10C3D00019E06369214A13600023636193889BB26B
:10C3E000591E89B291800BB3A3681BB3022323703B
:10C3F000A36821692846984700F01AF90546237872
:10C40000DBB2022B1AD0154B1B6833B3134B1B68DE
:10C410005B685B1B642B20D5104B1C682378DBB258
:10C42000012BD6D07846FCF7A3F9D2E77846FCF783
:10C430009FF9D9E77846FCF79BF9D7E7E26812B98C
:10C4400000232370DFE76368134463605B1B642B86
:10C45000F9D42046FFF78EFFD5E738BD843A002097
:10C4600010B50446144B1B68834207D0124B1B685F
:10C47000D3B15A69A2420ED01346F9E743690E4A76
:10C48000136093889BB2591E89B2918063B9784634
:10C49000FCF76EF908E062695A6107498B889BB224
:10C4A0005A1E92B28A8013B10023237010BD7846C1
:10C4B000FCF75EF9F8E700BF843A002008B5064BA8
:10C4C0001B6833B1044B1B680449586800F05CF9E1
:10C4D00008BD00F0B7F9FBE7843A0020F9C4020078
:10C4E00008B500F0A5F8FFF771FF00F0A1F8FFF71D
:10C4F000E5FF012008BD000008B5024B186800F0F8
:10C50000C3FE08BD7C3A002008B50023064A13701C
:10C51000064A13605360064800F096FE054B18600B
:10C5200000F078F808BD00BF803A0020843A00206F
:10C53000E1C402007C3A002010B50446154B1B787C
:10C540009BB900F075FFA0B1BCB1A368CBB1237853
:10C55000DBB2012B19D0002363612046FFF70AFFED
:10C5600000F066F8FFF7AAFF10BD7846FCF700F967
:10C57000E7E77846FCF7FCF8E6E77846FCF7F8F8DA
:10C58000E3E77846FCF7F4F8E1E77846FCF7F0F8E3
:10C59000E1E700BF803A002010B5044600F048FFF4
:10C5A00050B16CB12046FFF75BFF0023636100F0E0
:10C5B0003FF8FFF783FF10BD7846FCF7D9F8F0E7A6
:10C5C0007846FCF7D5F8EDE738B504460D46104B34
:10C5D0001B788BB900F02CFF90B1ACB12046FFF76F
:10C5E0003FFF0023636165602046FFF7C3FE00F054
:10C5F0001FF8FFF763FF38BD7846FCF7B9F8E9E7A5
:10C600007846FCF7B5F8E8E77846FCF7B1F8E5E7D7
:10C61000803A002008B518F023FB00B108BD18F0DF
:10C6200097FA0028FAD07846FCF7A2F8F6E700005F
:10C63000EFF3108172B6194B1B68194AD2F8040542
:10C64000D2F80421012A24D001B962B640EA03637A
:10C650004FEAD36C5901C91A6CF1000C4FEA4C2215
:10C6600042EAD1524802C11842F1000C4FEA8C1242
:10C6700042EA91628801401A62EB0C02C01842F152
:10C68000000210F5804042F10002C00B40EA424037
:10C690007047034AD2F804050133D5E78C3A0020ED
:10C6A0000010014010B50A4B4FF40032C3F8482384
:10C6B000C3F80823074B1B682BB1064B1C68FFF718
:10C6C000B7FFA04710BD7846FCF752F8F5E700BF6A
:10C6D00000100140983A0020EFF3108172B6254B0C
:10C6E0000022C3F80421244A13680133136001B9FE
:10C6F00062B6224B1B68002B3AD0204B1A68013AD5
:10C700001A601B68002B33D103F1804303F5883393
:10C71000D3F804251A4B1B689A421BD2EFF3108200
:10C7200072B6144BD3F80435981C15490968884231
:10C730000DD303330F49C1F8443502B962B60D4B2E
:10C740004FF40032C3F84423C3F8042370470C4B62
:10C750001B68EFE710B50B4B1B682BB1094B1C682E
:10C76000FFF766FFA04710BD7846FCF701F8F5E734
:10C77000704700BF001001408C3A0020903A002022
:10C78000943A0020983A002030B583B00446002344
:10C7900001930D46002936D0244B1D60FFF748FF5A
:10C7A000031B002B33DB0020410CC003204BC018BF
:10C7B000204A4FF0000341F1000118F07BFAEFF33B
:10C7C0001083019372B61C4BD3F80435032838BF8D
:10C7D0000320C3F1FF1202F57F42824219D30344C2
:10C7E000154AC2F844354FF40033C2F84433C2F856
:10C7F00004330023114A1360114A1360019B03B9EB
:10C8000062B603B030BD7846FBF7B2FFC4E7201A2A
:10C81000CAE7034403F17F4301331A0E013207498B
:10C820000A6023F07F43064A1360E7E7983A002046
:10C8300020A1070040420F0000100140903A002064
:10C84000943A0020074B4FF40032C3F84823C3F852
:10C8500008230023044A1360044A1360044A136047
:10C86000704700BF00100140903A0020943A002029
:10C87000983A002030DF704731DF704710B403462C
:10C8800002684068A2EB70129C6880EAF43018607D
:10C89000D9680C445C60114499601044D8605DF81C
:10C8A000044B704770B582B00D46064608B10024AF
:10C8B0000BE07846FBF75CFFF9E79DF807103019AD
:10C8C000FFF7DAFF9DF807301C44A5420DD90DF1A2
:10C8D0000700FFF7CFFF9DF80730002BF7D02A1B8A
:10C8E0009342EAD98DF80720E7E702B070BD000057
:10C8F00030B583B005460024019404210DEB0100FE
:10C90000FFF7D0FF074B2B60019B6B60AB60EB60C8
:10C9100003E02846FFF7B2FF0134132CF9D903B026
:10C9200030BD00BFED5EEAF1704708B5032004F0AA
:10C9300085FE08BD48DF704749DF70474ADF704712
:10C94000044B01225A7143F2B0629A6043F6982276
:10C95000DA607047F83A0020094B03221A74094A3A
:10C960005A611A6840F6D8639A4204D9054B43F2DB
:10C97000B0629A607047034B40F6D8629A60704785
:10C98000D83A0020F83A002008B50F4B1B78022B4C
:10C9900012D0032B08D0012B03D07846FBF7E8FE1A
:10C9A0000EE0022303740BE0084B00225A71084981
:10C9B00099600849D960827103230374034B436172
:10C9C000014B00221A7008BD093B0020F83A0020F4
:10C9D000A0860100FF1FA10738B504460025057495
:10C9E000012343710E4A13680133136000F0D4FA37
:10C9F0000EF05AF823680B4A1168283103FB01F145
:10CA0000094AA2FB0121A3EB9141084A7839284643
:10CA100000F03EFA00B938BD7846FBF7A9FEFAE708
:10CA20000C3B0020F43A002083DE1B4359C902006E
:10CA300010B5044600238360C36003680D4A926802
:10CA40000260817991B10121017403B90A4B991AED
:10CA50006161B1F57A7F01D39A4202D94FF47A73BA
:10CA60006361FFF76DFF0123A37110BDFFF7B4FFF2
:10CA7000F7E700BFF83A00208096980010B50C4602
:10CA800031B1C3680133C360426903681344036072
:10CA90008368013383600122027442695208426153
:10CAA000012B0DD0022B19D042690368134417499A
:10CAB0008B4222D840F6D7639A4221D800231DE04A
:10CAC000B2F5FA7F05D040F6D8639A42ECD84361BC
:10CAD000EAE7002CF7D100234361E5E7C368022BA6
